{
  "contractName": "AdhocIssueSheet",
  "abi": [
    {
      "constant": false,
      "inputs": [
        {
          "name": "addrs",
          "type": "address[]"
        }
      ],
      "name": "removeAddressesFromWhitelist",
      "outputs": [
        {
          "name": "success",
          "type": "bool"
        }
      ],
      "payable": false,
      "stateMutability": "nonpayable",
      "type": "function"
    },
    {
      "constant": false,
      "inputs": [
        {
          "name": "addr",
          "type": "address"
        }
      ],
      "name": "removeAddressFromWhitelist",
      "outputs": [
        {
          "name": "success",
          "type": "bool"
        }
      ],
      "payable": false,
      "stateMutability": "nonpayable",
      "type": "function"
    },
    {
      "constant": true,
      "inputs": [
        {
          "name": "_address",
          "type": "address"
        }
      ],
      "name": "isOwner",
      "outputs": [
        {
          "name": "",
          "type": "bool"
        }
      ],
      "payable": false,
      "stateMutability": "view",
      "type": "function"
    },
    {
      "constant": false,
      "inputs": [
        {
          "name": "addr",
          "type": "address"
        }
      ],
      "name": "addAddressToWhitelist",
      "outputs": [
        {
          "name": "success",
          "type": "bool"
        }
      ],
      "payable": false,
      "stateMutability": "nonpayable",
      "type": "function"
    },
    {
      "constant": true,
      "inputs": [],
      "name": "owner",
      "outputs": [
        {
          "name": "",
          "type": "address"
        }
      ],
      "payable": false,
      "stateMutability": "view",
      "type": "function"
    },
    {
      "constant": true,
      "inputs": [],
      "name": "issueCount",
      "outputs": [
        {
          "name": "",
          "type": "uint256"
        }
      ],
      "payable": false,
      "stateMutability": "view",
      "type": "function"
    },
    {
      "constant": true,
      "inputs": [
        {
          "name": "",
          "type": "address"
        }
      ],
      "name": "whitelist",
      "outputs": [
        {
          "name": "",
          "type": "bool"
        }
      ],
      "payable": false,
      "stateMutability": "view",
      "type": "function"
    },
    {
      "constant": false,
      "inputs": [
        {
          "name": "addrs",
          "type": "address[]"
        }
      ],
      "name": "addAddressesToWhitelist",
      "outputs": [
        {
          "name": "success",
          "type": "bool"
        }
      ],
      "payable": false,
      "stateMutability": "nonpayable",
      "type": "function"
    },
    {
      "constant": true,
      "inputs": [
        {
          "name": "",
          "type": "uint256"
        }
      ],
      "name": "issueAddresses",
      "outputs": [
        {
          "name": "",
          "type": "address"
        }
      ],
      "payable": false,
      "stateMutability": "view",
      "type": "function"
    },
    {
      "constant": true,
      "inputs": [
        {
          "name": "",
          "type": "address"
        }
      ],
      "name": "issues",
      "outputs": [
        {
          "name": "id",
          "type": "uint256"
        },
        {
          "name": "approved",
          "type": "bool"
        },
        {
          "name": "flag",
          "type": "bool"
        }
      ],
      "payable": false,
      "stateMutability": "view",
      "type": "function"
    },
    {
      "constant": false,
      "inputs": [
        {
          "name": "_newOwner",
          "type": "address"
        }
      ],
      "name": "transferOwnership",
      "outputs": [],
      "payable": false,
      "stateMutability": "nonpayable",
      "type": "function"
    },
    {
      "inputs": [],
      "payable": false,
      "stateMutability": "nonpayable",
      "type": "constructor"
    },
    {
      "anonymous": false,
      "inputs": [
        {
          "indexed": false,
          "name": "_issue",
          "type": "address"
        }
      ],
      "name": "Approve",
      "type": "event"
    },
    {
      "anonymous": false,
      "inputs": [
        {
          "indexed": false,
          "name": "addr",
          "type": "address"
        }
      ],
      "name": "WhitelistedAddressAdded",
      "type": "event"
    },
    {
      "anonymous": false,
      "inputs": [
        {
          "indexed": false,
          "name": "addr",
          "type": "address"
        }
      ],
      "name": "WhitelistedAddressRemoved",
      "type": "event"
    },
    {
      "constant": false,
      "inputs": [
        {
          "name": "_issue",
          "type": "address"
        }
      ],
      "name": "addIssue",
      "outputs": [
        {
          "name": "",
          "type": "bool"
        }
      ],
      "payable": false,
      "stateMutability": "nonpayable",
      "type": "function"
    },
    {
      "constant": false,
      "inputs": [
        {
          "name": "_offset",
          "type": "uint256"
        },
        {
          "name": "_limit",
          "type": "uint256"
        },
        {
          "name": "_issueSheetAddress",
          "type": "address"
        }
      ],
      "name": "transferIssueOwnership",
      "outputs": [],
      "payable": false,
      "stateMutability": "nonpayable",
      "type": "function"
    },
    {
      "constant": false,
      "inputs": [
        {
          "name": "_issue",
          "type": "address"
        }
      ],
      "name": "approve",
      "outputs": [
        {
          "name": "",
          "type": "bool"
        }
      ],
      "payable": false,
      "stateMutability": "nonpayable",
      "type": "function"
    },
    {
      "constant": true,
      "inputs": [
        {
          "name": "_issue",
          "type": "address"
        }
      ],
      "name": "approved",
      "outputs": [
        {
          "name": "",
          "type": "bool"
        }
      ],
      "payable": false,
      "stateMutability": "view",
      "type": "function"
    },
    {
      "constant": true,
      "inputs": [
        {
          "name": "_issue",
          "type": "address"
        }
      ],
      "name": "contains",
      "outputs": [
        {
          "name": "",
          "type": "bool"
        }
      ],
      "payable": false,
      "stateMutability": "view",
      "type": "function"
    },
    {
      "constant": false,
      "inputs": [
        {
          "name": "_issue",
          "type": "address"
        }
      ],
      "name": "startIssue",
      "outputs": [
        {
          "name": "",
          "type": "bool"
        }
      ],
      "payable": false,
      "stateMutability": "nonpayable",
      "type": "function"
    },
    {
      "constant": false,
      "inputs": [
        {
          "name": "_issue",
          "type": "address"
        }
      ],
      "name": "pauseIssue",
      "outputs": [
        {
          "name": "",
          "type": "bool"
        }
      ],
      "payable": false,
      "stateMutability": "nonpayable",
      "type": "function"
    },
    {
      "constant": false,
      "inputs": [
        {
          "name": "_issue",
          "type": "address"
        }
      ],
      "name": "resumeIssue",
      "outputs": [
        {
          "name": "",
          "type": "bool"
        }
      ],
      "payable": false,
      "stateMutability": "nonpayable",
      "type": "function"
    },
    {
      "constant": false,
      "inputs": [
        {
          "name": "_issue",
          "type": "address"
        }
      ],
      "name": "endIssue",
      "outputs": [
        {
          "name": "",
          "type": "bool"
        }
      ],
      "payable": false,
      "stateMutability": "nonpayable",
      "type": "function"
    },
    {
      "constant": true,
      "inputs": [
        {
          "name": "_offset",
          "type": "uint256"
        },
        {
          "name": "_limit",
          "type": "uint256"
        }
      ],
      "name": "getIssues",
      "outputs": [
        {
          "name": "issueAddrs_",
          "type": "address[]"
        }
      ],
      "payable": false,
      "stateMutability": "view",
      "type": "function"
    }
  ],
  "bytecode": "0x608060405234801561001057600080fd5b50336000806101000a81548173ffffffffffffffffffffffffffffffffffffffff021916908373ffffffffffffffffffffffffffffffffffffffff1602179055506000600481905550611c46806100686000396000f30060806040526004361061011d576000357c0100000000000000000000000000000000000000000000000000000000900463ffffffff1680631aadf6291461012257806324953eaa146101ae578063286dd3f51461022c5780632974f71b146102875780632f54bf6e146102e257806343862eab1461033d5780635dbe47e81461039457806367bc1ca9146103ef5780637b9417c81461044a5780638da5cb5b146104a557806398cf147a146104fc5780639b19251a14610527578063b2371b6414610582578063d8b964e6146105dd578063daea85c514610638578063e1e44c0a14610693578063e2ec6ec3146106ee578063e8ac7ba01461076c578063e9a5551c146107d9578063eea83fd714610846578063f2fde38b146108a1575b600080fd5b34801561012e57600080fd5b5061015760048036038101908080359060200190929190803590602001909291905050506108e4565b6040518080602001828103825283818151815260200191508051906020019060200280838360005b8381101561019a57808201518184015260208101905061017f565b505050509050019250505060405180910390f35b3480156101ba57600080fd5b50610212600480360381019080803590602001908201803590602001908080602002602001604051908101604052809392919081815260200183836020028082843782019150505050505091929192905050506109ef565b604051808215151515815260200191505060405180910390f35b34801561023857600080fd5b5061026d600480360381019080803573ffffffffffffffffffffffffffffffffffffffff169060200190929190505050610a51565b604051808215151515815260200191505060405180910390f35b34801561029357600080fd5b506102c8600480360381019080803573ffffffffffffffffffffffffffffffffffffffff169060200190929190505050610b7e565b604051808215151515815260200191505060405180910390f35b3480156102ee57600080fd5b50610323600480360381019080803573ffffffffffffffffffffffffffffffffffffffff169060200190929190505050610d3a565b604051808215151515815260200191505060405180910390f35b34801561034957600080fd5b506103926004803603810190808035906020019092919080359060200190929190803573ffffffffffffffffffffffffffffffffffffffff169060200190929190505050610d93565b005b3480156103a057600080fd5b506103d5600480360381019080803573ffffffffffffffffffffffffffffffffffffffff169060200190929190505050610edc565b604051808215151515815260200191505060405180910390f35b3480156103fb57600080fd5b50610430600480360381019080803573ffffffffffffffffffffffffffffffffffffffff169060200190929190505050610f35565b604051808215151515815260200191505060405180910390f35b34801561045657600080fd5b5061048b600480360381019080803573ffffffffffffffffffffffffffffffffffffffff1690602001909291905050506110f1565b604051808215151515815260200191505060405180910390f35b3480156104b157600080fd5b506104ba61121e565b604051808273ffffffffffffffffffffffffffffffffffffffff1673ffffffffffffffffffffffffffffffffffffffff16815260200191505060405180910390f35b34801561050857600080fd5b50610511611243565b6040518082815260200191505060405180910390f35b34801561053357600080fd5b50610568600480360381019080803573ffffffffffffffffffffffffffffffffffffffff169060200190929190505050611249565b604051808215151515815260200191505060405180910390f35b34801561058e57600080fd5b506105c3600480360381019080803573ffffffffffffffffffffffffffffffffffffffff169060200190929190505050611269565b604051808215151515815260200191505060405180910390f35b3480156105e957600080fd5b5061061e600480360381019080803573ffffffffffffffffffffffffffffffffffffffff169060200190929190505050611441565b604051808215151515815260200191505060405180910390f35b34801561064457600080fd5b50610679600480360381019080803573ffffffffffffffffffffffffffffffffffffffff1690602001909291905050506114f5565b604051808215151515815260200191505060405180910390f35b34801561069f57600080fd5b506106d4600480360381019080803573ffffffffffffffffffffffffffffffffffffffff1690602001909291905050506116cd565b604051808215151515815260200191505060405180910390f35b3480156106fa57600080fd5b506107526004803603810190808035906020019082018035906020019080806020026020016040519081016040528093929190818152602001838360200280828437820191505050505050919291929050505061192e565b604051808215151515815260200191505060405180910390f35b34801561077857600080fd5b5061079760048036038101908080359060200190929190505050611990565b604051808273ffffffffffffffffffffffffffffffffffffffff1673ffffffffffffffffffffffffffffffffffffffff16815260200191505060405180910390f35b3480156107e557600080fd5b5061081a600480360381019080803573ffffffffffffffffffffffffffffffffffffffff1690602001909291905050506119c3565b604051808481526020018315151515815260200182151515158152602001935050505060405180910390f35b34801561085257600080fd5b50610887600480360381019080803573ffffffffffffffffffffffffffffffffffffffff169060200190929190505050611a07565b604051808215151515815260200191505060405180910390f35b3480156108ad57600080fd5b506108e2600480360381019080803573ffffffffffffffffffffffffffffffffffffffff169060200190929190505050611bc3565b005b6060600080600454851015806108fa5750600084145b15610907578292506109e7565b846004540391508382111561091a578391505b816040519080825280602002602001820160405280156109495781602001602082028038833980820191505090505b509250600090505b818110156109e65760026000828701815260200190815260200160002060009054906101000a900473ffffffffffffffffffffffffffffffffffffffff16838281518110151561099d57fe5b9060200190602002019073ffffffffffffffffffffffffffffffffffffffff16908173ffffffffffffffffffffffffffffffffffffffff16815250508080600101915050610951565b5b505092915050565b6000806109fb33610d3a565b1515610a0657600080fd5b600090505b8251811015610a4b57610a348382815181101515610a2557fe5b90602001906020020151610a51565b15610a3e57600191505b8080600101915050610a0b565b50919050565b6000610a5c33610d3a565b1515610a6757600080fd5b600160008373ffffffffffffffffffffffffffffffffffffffff1673ffffffffffffffffffffffffffffffffffffffff16815260200190815260200160002060009054906101000a900460ff1615610b79576000600160008473ffffffffffffffffffffffffffffffffffffffff1673ffffffffffffffffffffffffffffffffffffffff16815260200190815260200160002060006101000a81548160ff0219169083151502179055507ff1abf01a1043b7c244d128e8595cf0c1d10743b022b03a02dffd8ca3bf729f5a82604051808273ffffffffffffffffffffffffffffffffffffffff1673ffffffffffffffffffffffffffffffffffffffff16815260200191505060405180910390a1600190505b919050565b600080600160003373ffffffffffffffffffffffffffffffffffffffff1673ffffffffffffffffffffffffffffffffffffffff16815260200190815260200160002060009054906101000a900460ff161515610bd957600080fd5b610be283610edc565b1580610bf45750610bf283611441565b155b15610c025760009150610d34565b8290508073ffffffffffffffffffffffffffffffffffffffff1663fe75154b6040518163ffffffff167c0100000000000000000000000000000000000000000000000000000000028152600401602060405180830381600087803b158015610c6957600080fd5b505af1158015610c7d573d6000803e3d6000fd5b505050506040513d6020811015610c9357600080fd5b81019080805190602001909291905050501515610cb35760009150610d34565b8073ffffffffffffffffffffffffffffffffffffffff1663be9a65556040518163ffffffff167c0100000000000000000000000000000000000000000000000000000000028152600401600060405180830381600087803b158015610d1757600080fd5b505af1158015610d2b573d6000803e3d6000fd5b50505050600191505b50919050565b60008173ffffffffffffffffffffffffffffffffffffffff166000809054906101000a900473ffffffffffffffffffffffffffffffffffffffff1673ffffffffffffffffffffffffffffffffffffffff16149050919050565b6000806000610da133610d3a565b1515610dac57600080fd5b60045486101515610dbc57610ed4565b8486019250600454831115610dd15760045492505b8591505b82821015610ed3576002600083815260200190815260200160002060009054906101000a900473ffffffffffffffffffffffffffffffffffffffff1690508073ffffffffffffffffffffffffffffffffffffffff1663f2fde38b856040518263ffffffff167c0100000000000000000000000000000000000000000000000000000000028152600401808273ffffffffffffffffffffffffffffffffffffffff1673ffffffffffffffffffffffffffffffffffffffff168152602001915050600060405180830381600087803b158015610eae57600080fd5b505af1158015610ec2573d6000803e3d6000fd5b505050508180600101925050610dd5565b5b505050505050565b6000600360008373ffffffffffffffffffffffffffffffffffffffff1673ffffffffffffffffffffffffffffffffffffffff16815260200190815260200160002060010160019054906101000a900460ff169050919050565b600080600160003373ffffffffffffffffffffffffffffffffffffffff1673ffffffffffffffffffffffffffffffffffffffff16815260200190815260200160002060009054906101000a900460ff161515610f9057600080fd5b610f9983610edc565b1580610fab5750610fa983611441565b155b15610fb957600091506110eb565b8290508073ffffffffffffffffffffffffffffffffffffffff166322f3e2d46040518163ffffffff167c0100000000000000000000000000000000000000000000000000000000028152600401602060405180830381600087803b15801561102057600080fd5b505af1158015611034573d6000803e3d6000fd5b505050506040513d602081101561104a57600080fd5b8101908080519060200190929190505050151561106a57600091506110eb565b8073ffffffffffffffffffffffffffffffffffffffff16638456cb596040518163ffffffff167c0100000000000000000000000000000000000000000000000000000000028152600401600060405180830381600087803b1580156110ce57600080fd5b505af11580156110e2573d6000803e3d6000fd5b50505050600191505b50919050565b60006110fc33610d3a565b151561110757600080fd5b600160008373ffffffffffffffffffffffffffffffffffffffff1673ffffffffffffffffffffffffffffffffffffffff16815260200190815260200160002060009054906101000a900460ff1615156112195760018060008473ffffffffffffffffffffffffffffffffffffffff1673ffffffffffffffffffffffffffffffffffffffff16815260200190815260200160002060006101000a81548160ff0219169083151502179055507fd1bba68c128cc3f427e5831b3c6f99f480b6efa6b9e80c757768f6124158cc3f82604051808273ffffffffffffffffffffffffffffffffffffffff1673ffffffffffffffffffffffffffffffffffffffff16815260200191505060405180910390a1600190505b919050565b6000809054906101000a900473ffffffffffffffffffffffffffffffffffffffff1681565b60045481565b60016020528060005260406000206000915054906101000a900460ff1681565b6000600160003373ffffffffffffffffffffffffffffffffffffffff1673ffffffffffffffffffffffffffffffffffffffff16815260200190815260200160002060009054906101000a900460ff1615156112c357600080fd5b600360008373ffffffffffffffffffffffffffffffffffffffff1673ffffffffffffffffffffffffffffffffffffffff16815260200190815260200160002060010160019054906101000a900460ff1615611321576000905061143c565b606060405190810160405280600454815260200160001515815260200160011515815250600360008473ffffffffffffffffffffffffffffffffffffffff1673ffffffffffffffffffffffffffffffffffffffff1681526020019081526020016000206000820151816000015560208201518160010160006101000a81548160ff02191690831515021790555060408201518160010160016101000a81548160ff0219169083151502179055509050508160026000600454815260200190815260200160002060006101000a81548173ffffffffffffffffffffffffffffffffffffffff021916908373ffffffffffffffffffffffffffffffffffffffff160217905550600460008154809291906001019190505550600190505b919050565b6000600360008373ffffffffffffffffffffffffffffffffffffffff1673ffffffffffffffffffffffffffffffffffffffff16815260200190815260200160002060010160019054906101000a900460ff16151561149e57600080fd5b600360008373ffffffffffffffffffffffffffffffffffffffff1673ffffffffffffffffffffffffffffffffffffffff16815260200190815260200160002060010160009054906101000a900460ff169050919050565b6000600160003373ffffffffffffffffffffffffffffffffffffffff1673ffffffffffffffffffffffffffffffffffffffff16815260200190815260200160002060009054906101000a900460ff16151561154f57600080fd5b600360008373ffffffffffffffffffffffffffffffffffffffff1673ffffffffffffffffffffffffffffffffffffffff16815260200190815260200160002060010160019054906101000a900460ff1615806115f75750600360008373ffffffffffffffffffffffffffffffffffffffff1673ffffffffffffffffffffffffffffffffffffffff16815260200190815260200160002060010160009054906101000a900460ff165b1561160557600090506116c8565b6001600360008473ffffffffffffffffffffffffffffffffffffffff1673ffffffffffffffffffffffffffffffffffffffff16815260200190815260200160002060010160006101000a81548160ff0219169083151502179055507f96bfcd230b7ff6b6fae05762edc541f5cb32225984541cf1a9c0b04bac427a5e82604051808273ffffffffffffffffffffffffffffffffffffffff1673ffffffffffffffffffffffffffffffffffffffff16815260200191505060405180910390a1600190505b919050565b600080600160003373ffffffffffffffffffffffffffffffffffffffff1673ffffffffffffffffffffffffffffffffffffffff16815260200190815260200160002060009054906101000a900460ff16151561172857600080fd5b61173183610edc565b1580611743575061174183611441565b155b156117515760009150611928565b8290508073ffffffffffffffffffffffffffffffffffffffff1663a4fd6f566040518163ffffffff167c0100000000000000000000000000000000000000000000000000000000028152600401602060405180830381600087803b1580156117b857600080fd5b505af11580156117cc573d6000803e3d6000fd5b505050506040513d60208110156117e257600080fd5b81019080805190602001909291905050508061189957508073ffffffffffffffffffffffffffffffffffffffff1663fe75154b6040518163ffffffff167c0100000000000000000000000000000000000000000000000000000000028152600401602060405180830381600087803b15801561185d57600080fd5b505af1158015611871573d6000803e3d6000fd5b505050506040513d602081101561188757600080fd5b81019080805190602001909291905050505b156118a75760009150611928565b8073ffffffffffffffffffffffffffffffffffffffff1663efbe1c1c6040518163ffffffff167c0100000000000000000000000000000000000000000000000000000000028152600401600060405180830381600087803b15801561190b57600080fd5b505af115801561191f573d6000803e3d6000fd5b50505050600191505b50919050565b60008061193a33610d3a565b151561194557600080fd5b600090505b825181101561198a57611973838281518110151561196457fe5b906020019060200201516110f1565b1561197d57600191505b808060010191505061194a565b50919050565b60026020528060005260406000206000915054906101000a900473ffffffffffffffffffffffffffffffffffffffff1681565b60036020528060005260406000206000915090508060000154908060010160009054906101000a900460ff16908060010160019054906101000a900460ff16905083565b600080600160003373ffffffffffffffffffffffffffffffffffffffff1673ffffffffffffffffffffffffffffffffffffffff16815260200190815260200160002060009054906101000a900460ff161515611a6257600080fd5b611a6b83610edc565b1580611a7d5750611a7b83611441565b155b15611a8b5760009150611bbd565b8290508073ffffffffffffffffffffffffffffffffffffffff1663b187bd266040518163ffffffff167c0100000000000000000000000000000000000000000000000000000000028152600401602060405180830381600087803b158015611af257600080fd5b505af1158015611b06573d6000803e3d6000fd5b505050506040513d6020811015611b1c57600080fd5b81019080805190602001909291905050501515611b3c5760009150611bbd565b8073ffffffffffffffffffffffffffffffffffffffff16633f4ba83a6040518163ffffffff167c0100000000000000000000000000000000000000000000000000000000028152600401600060405180830381600087803b158015611ba057600080fd5b505af1158015611bb4573d6000803e3d6000fd5b50505050600191505b50919050565b611bcc33610d3a565b1515611bd757600080fd5b806000806101000a81548173ffffffffffffffffffffffffffffffffffffffff021916908373ffffffffffffffffffffffffffffffffffffffff160217905550505600a165627a7a7230582024daf7a139c93a605ca0cdd55cc0b40845a54f00506887f6121541a05ddef57f0029",
  "source": "pragma solidity ^0.4.24;\n\n// This contract implements the storage and management of proposals (known as issue).\n\nimport \"./library/IssueSheet.sol\";\nimport \"./library/Ownable.sol\";\nimport \"./library/Pausable.sol\";\nimport \"./library/Whitelist.sol\";\nimport \"./SingleIssue.sol\";\n\ncontract AdhocIssueSheet is Ownable, IssueSheet, Whitelist {\n    struct Issue {\n        uint id;\n        bool approved;\n        bool flag;\n    }\n    event Approve(address _issue);\n\n    mapping(uint256 => address) public issueAddresses;\n    mapping(address => Issue) public issues;\n    uint256 public issueCount;\n\n    constructor() public {\n        issueCount = 0;\n    }\n\n    function addIssue(address _issue) public onlyWhitelisted returns (bool) {\n        if (issues[_issue].flag) {\n            return false;\n        }\n        issues[_issue] = Issue(issueCount, false, true);\n        issueAddresses[issueCount] = _issue;\n        issueCount++;\n        return true;\n    }\n\n    function transferIssueOwnership(uint256 _offset, uint256 _limit, address _issueSheetAddress) public onlyOwner {\n        if (_offset >= issueCount) {\n            return;\n        }\n        uint256 end = _offset + _limit;\n        if (end > issueCount) {\n            end = issueCount;\n        }\n        for (uint i = _offset; i < end; i++) {\n            SingleIssue issue = SingleIssue(issueAddresses[i]);\n            issue.transferOwnership(_issueSheetAddress);\n        }\n    }\n\n    function approve(address _issue) public onlyWhitelisted returns (bool) {\n        if (!issues[_issue].flag || issues[_issue].approved) {\n            return false;\n        }\n        issues[_issue].approved = true;\n        emit Approve(_issue);\n        return true;\n    }\n\n    function approved(address _issue) public view returns (bool) {\n        require(issues[_issue].flag);\n        return issues[_issue].approved;\n    }\n\n    function contains(address _issue) public view returns (bool) {\n        return issues[_issue].flag;\n    }\n\n    function startIssue(address _issue) public onlyWhitelisted returns (bool) {\n        if (!contains(_issue) || !approved(_issue)) {\n            return false;\n        }\n        SingleIssue issue = SingleIssue(_issue);\n        if (!issue.isNew()) {\n            return false;\n        }\n        issue.start();\n        return true;\n    }\n\n    function pauseIssue(address _issue) public onlyWhitelisted returns (bool) {\n        if (!contains(_issue) || !approved(_issue)) {\n            return false;\n        }\n        SingleIssue issue = SingleIssue(_issue);\n        if (!issue.isActive()) {\n            return false;\n        }\n        issue.pause();\n        return true;\n    }\n\n    function resumeIssue(address _issue) public onlyWhitelisted returns (bool) {\n        if (!contains(_issue) || !approved(_issue)) {\n            return false;\n        }\n        SingleIssue issue = SingleIssue(_issue);\n        if (!issue.isPaused()) {\n            return false;\n        }\n        issue.unpause();\n        return true;\n    }\n\n    function endIssue(address _issue) public onlyWhitelisted returns (bool) {\n        if (!contains(_issue) || !approved(_issue)) {\n            return false;\n        }\n        SingleIssue issue = SingleIssue(_issue);\n        if (issue.isEnded() || issue.isNew()) {\n            return false;\n        }\n        issue.end();\n        return true;\n    }\n\n    function getIssues(uint256 _offset, uint256 _limit) public view returns (address[] issueAddrs_) {\n        if (_offset >= issueCount || _limit == 0) {\n            return issueAddrs_;\n        }\n        uint256 l = issueCount - _offset;\n        if (l > _limit) {\n            l = _limit;\n        }\n        issueAddrs_ = new address[](l);\n        for (uint256 i = 0; i < l; i++) {\n            issueAddrs_[i] = issueAddresses[_offset + i];\n        }\n    }\n}\n",
  "sourcePath": "/Users/rc7/work/src/github.com/iotexproject/iotex-governance/contracts/AdhocIssueSheet.sol",
  "compiler": {
    "name": "solc",
    "version": "0.4.24+commit.e67f0147.Emscripten.clang"
  },
  "schemaVersion": "3.0.18",
  "updatedAt": "2020-11-07T17:26:47.577Z",
  "devdoc": {
    "methods": {
      "addAddressToWhitelist(address)": {
        "details": "add an address to the whitelist",
        "params": {
          "addr": "address"
        },
        "return": "true if the address was added to the whitelist, false if the address was already in the whitelist"
      },
      "addAddressesToWhitelist(address[])": {
        "details": "add addresses to the whitelist",
        "params": {
          "addrs": "addresses"
        },
        "return": "true if at least one address was added to the whitelist, false if all addresses were already in the whitelist"
      },
      "removeAddressFromWhitelist(address)": {
        "details": "remove an address from the whitelist",
        "params": {
          "addr": "address"
        },
        "return": "true if the address was removed from the whitelist, false if the address wasn't in the whitelist in the first place"
      },
      "removeAddressesFromWhitelist(address[])": {
        "details": "remove addresses from the whitelist",
        "params": {
          "addrs": "addresses"
        },
        "return": "true if at least one address was removed from the whitelist, false if all addresses weren't in the whitelist in the first place"
      }
    }
  },
  "userdoc": {
    "methods": {}
  }
}