{
  "contractName": "EqualVPS",
  "abi": [
    {
      "constant": true,
      "inputs": [],
      "name": "numOfQualifiedVoters",
      "outputs": [
        {
          "name": "",
          "type": "uint256"
        }
      ],
      "payable": false,
      "stateMutability": "view",
      "type": "function"
    },
    {
      "constant": true,
      "inputs": [],
      "name": "openToPublic",
      "outputs": [
        {
          "name": "",
          "type": "bool"
        }
      ],
      "payable": false,
      "stateMutability": "view",
      "type": "function"
    },
    {
      "constant": false,
      "inputs": [
        {
          "name": "addrs",
          "type": "address[]"
        }
      ],
      "name": "removeAddressesFromWhitelist",
      "outputs": [
        {
          "name": "success",
          "type": "bool"
        }
      ],
      "payable": false,
      "stateMutability": "nonpayable",
      "type": "function"
    },
    {
      "constant": false,
      "inputs": [
        {
          "name": "addr",
          "type": "address"
        }
      ],
      "name": "removeAddressFromWhitelist",
      "outputs": [
        {
          "name": "success",
          "type": "bool"
        }
      ],
      "payable": false,
      "stateMutability": "nonpayable",
      "type": "function"
    },
    {
      "constant": true,
      "inputs": [],
      "name": "updating",
      "outputs": [
        {
          "name": "",
          "type": "bool"
        }
      ],
      "payable": false,
      "stateMutability": "view",
      "type": "function"
    },
    {
      "constant": true,
      "inputs": [
        {
          "name": "_address",
          "type": "address"
        }
      ],
      "name": "isOwner",
      "outputs": [
        {
          "name": "",
          "type": "bool"
        }
      ],
      "payable": false,
      "stateMutability": "view",
      "type": "function"
    },
    {
      "constant": true,
      "inputs": [
        {
          "name": "",
          "type": "uint256"
        }
      ],
      "name": "voterAddrs",
      "outputs": [
        {
          "name": "",
          "type": "address"
        }
      ],
      "payable": false,
      "stateMutability": "view",
      "type": "function"
    },
    {
      "constant": false,
      "inputs": [
        {
          "name": "addr",
          "type": "address"
        }
      ],
      "name": "addAddressToWhitelist",
      "outputs": [
        {
          "name": "success",
          "type": "bool"
        }
      ],
      "payable": false,
      "stateMutability": "nonpayable",
      "type": "function"
    },
    {
      "constant": true,
      "inputs": [],
      "name": "owner",
      "outputs": [
        {
          "name": "",
          "type": "address"
        }
      ],
      "payable": false,
      "stateMutability": "view",
      "type": "function"
    },
    {
      "constant": true,
      "inputs": [
        {
          "name": "",
          "type": "address"
        }
      ],
      "name": "whitelist",
      "outputs": [
        {
          "name": "",
          "type": "bool"
        }
      ],
      "payable": false,
      "stateMutability": "view",
      "type": "function"
    },
    {
      "constant": true,
      "inputs": [],
      "name": "canUpdateQualifiedVoters",
      "outputs": [
        {
          "name": "",
          "type": "bool"
        }
      ],
      "payable": false,
      "stateMutability": "view",
      "type": "function"
    },
    {
      "constant": true,
      "inputs": [
        {
          "name": "",
          "type": "address"
        }
      ],
      "name": "qualifiedVoters",
      "outputs": [
        {
          "name": "eligible",
          "type": "bool"
        },
        {
          "name": "flag",
          "type": "bool"
        }
      ],
      "payable": false,
      "stateMutability": "view",
      "type": "function"
    },
    {
      "constant": false,
      "inputs": [
        {
          "name": "addrs",
          "type": "address[]"
        }
      ],
      "name": "addAddressesToWhitelist",
      "outputs": [
        {
          "name": "success",
          "type": "bool"
        }
      ],
      "payable": false,
      "stateMutability": "nonpayable",
      "type": "function"
    },
    {
      "constant": false,
      "inputs": [
        {
          "name": "_newOwner",
          "type": "address"
        }
      ],
      "name": "transferOwnership",
      "outputs": [],
      "payable": false,
      "stateMutability": "nonpayable",
      "type": "function"
    },
    {
      "inputs": [
        {
          "name": "_openToPublic",
          "type": "bool"
        },
        {
          "name": "_canUpdateQualifiedVoters",
          "type": "bool"
        },
        {
          "name": "_qualifiedVoters",
          "type": "address[]"
        }
      ],
      "payable": false,
      "stateMutability": "nonpayable",
      "type": "constructor"
    },
    {
      "anonymous": false,
      "inputs": [
        {
          "indexed": false,
          "name": "addr",
          "type": "address"
        }
      ],
      "name": "WhitelistedAddressAdded",
      "type": "event"
    },
    {
      "anonymous": false,
      "inputs": [
        {
          "indexed": false,
          "name": "addr",
          "type": "address"
        }
      ],
      "name": "WhitelistedAddressRemoved",
      "type": "event"
    },
    {
      "anonymous": false,
      "inputs": [
        {
          "indexed": false,
          "name": "voter",
          "type": "address"
        },
        {
          "indexed": false,
          "name": "power",
          "type": "uint256"
        }
      ],
      "name": "SetVotingPower",
      "type": "event"
    },
    {
      "constant": false,
      "inputs": [
        {
          "name": "_voters",
          "type": "address[]"
        }
      ],
      "name": "addQualifiedVoters",
      "outputs": [],
      "payable": false,
      "stateMutability": "nonpayable",
      "type": "function"
    },
    {
      "constant": false,
      "inputs": [
        {
          "name": "_voters",
          "type": "address[]"
        }
      ],
      "name": "deleteQualifiedVoters",
      "outputs": [],
      "payable": false,
      "stateMutability": "nonpayable",
      "type": "function"
    },
    {
      "constant": true,
      "inputs": [],
      "name": "totalPower",
      "outputs": [
        {
          "name": "",
          "type": "uint256"
        }
      ],
      "payable": false,
      "stateMutability": "view",
      "type": "function"
    },
    {
      "constant": true,
      "inputs": [
        {
          "name": "_voters",
          "type": "address[]"
        }
      ],
      "name": "powersOf",
      "outputs": [
        {
          "name": "powers_",
          "type": "uint256[]"
        }
      ],
      "payable": false,
      "stateMutability": "view",
      "type": "function"
    },
    {
      "constant": true,
      "inputs": [
        {
          "name": "_voter",
          "type": "address"
        }
      ],
      "name": "powerOf",
      "outputs": [
        {
          "name": "",
          "type": "uint256"
        }
      ],
      "payable": false,
      "stateMutability": "view",
      "type": "function"
    },
    {
      "constant": true,
      "inputs": [
        {
          "name": "_offset",
          "type": "uint256"
        },
        {
          "name": "_limit",
          "type": "uint256"
        }
      ],
      "name": "voters",
      "outputs": [
        {
          "name": "voters_",
          "type": "address[]"
        }
      ],
      "payable": false,
      "stateMutability": "view",
      "type": "function"
    },
    {
      "constant": true,
      "inputs": [],
      "name": "paused",
      "outputs": [
        {
          "name": "",
          "type": "bool"
        }
      ],
      "payable": false,
      "stateMutability": "view",
      "type": "function"
    },
    {
      "constant": false,
      "inputs": [],
      "name": "resume",
      "outputs": [],
      "payable": false,
      "stateMutability": "nonpayable",
      "type": "function"
    }
  ],
  "bytecode": "0x60806040523480156200001157600080fd5b5060405162001cdb38038062001cdb833981018060405281019080805190602001909291908051906020019092919080518201929190505050336000806101000a81548173ffffffffffffffffffffffffffffffffffffffff021916908373ffffffffffffffffffffffffffffffffffffffff16021790555082600560006101000a81548160ff021916908315150217905550600560009054906101000a900460ff161515620000f05781600560016101000a81548160ff021916908315150217905550620000ef81620000f9640100000000026401000000009004565b5b5050506200046b565b60006001600560026101000a81548160ff021916908315150217905550600090505b815181101562000467576002600083838151811015156200013857fe5b9060200190602002015173ffffffffffffffffffffffffffffffffffffffff1673ffffffffffffffffffffffffffffffffffffffff16815260200190815260200160002060000160019054906101000a900460ff161515620002df5760038282815181101515620001a557fe5b9060200190602002015190806001815401808255809150509060018203906000526020600020016000909192909190916101000a81548173ffffffffffffffffffffffffffffffffffffffff021916908373ffffffffffffffffffffffffffffffffffffffff160217905550506040805190810160405280600115158152602001600115158152506002600084848151811015156200024057fe5b9060200190602002015173ffffffffffffffffffffffffffffffffffffffff1673ffffffffffffffffffffffffffffffffffffffff16815260200190815260200160002060008201518160000160006101000a81548160ff02191690831515021790555060208201518160000160016101000a81548160ff021916908315150217905550905050600460008154809291906001019190505550620003d5565b600260008383815181101515620002f257fe5b9060200190602002015173ffffffffffffffffffffffffffffffffffffffff1673ffffffffffffffffffffffffffffffffffffffff16815260200190815260200160002060000160009054906101000a900460ff161515620003d45760016002600084848151811015156200036357fe5b9060200190602002015173ffffffffffffffffffffffffffffffffffffffff1673ffffffffffffffffffffffffffffffffffffffff16815260200190815260200160002060000160006101000a81548160ff0219169083151502179055506004600081548092919060010191905055505b5b7f048ebfbc43eddab7a7a576fb6a22551fb89c9fa0bb520948a32ec8b1546640d382828151811015156200040557fe5b906020019060200201516001604051808373ffffffffffffffffffffffffffffffffffffffff1673ffffffffffffffffffffffffffffffffffffffff1681526020018281526020019250505060405180910390a180806001019150506200011b565b5050565b611860806200047b6000396000f300608060405260043610610128576000357c0100000000000000000000000000000000000000000000000000000000900463ffffffff168063046f7da21461012d5780630edea195146101445780631831ccf21461016f5780631ac846901461019e57806324953eaa146101f5578063286dd3f5146102735780632900623f146102ce5780632f54bf6e146102fd57806356b16162146103585780635c1448b0146103c55780635c975abb146104005780637b9417c81461042f5780638da5cb5b1461048a5780639b19251a146104e1578063b57acdfa1461053c578063ce61b92b14610577578063db3ad22c146105a6578063e018f8a7146105d1578063e2ec6ec314610637578063f2fde38b146106b5578063fba00cbd146106f8578063ff82c4ca14610784575b600080fd5b34801561013957600080fd5b50610142610814565b005b34801561015057600080fd5b50610159610889565b6040518082815260200191505060405180910390f35b34801561017b57600080fd5b5061018461088f565b604051808215151515815260200191505060405180910390f35b3480156101aa57600080fd5b506101df600480360381019080803573ffffffffffffffffffffffffffffffffffffffff1690602001909291905050506108a2565b6040518082815260200191505060405180910390f35b34801561020157600080fd5b506102596004803603810190808035906020019082018035906020019080806020026020016040519081016040528093929190818152602001838360200280828437820191505050505050919291929050505061093f565b604051808215151515815260200191505060405180910390f35b34801561027f57600080fd5b506102b4600480360381019080803573ffffffffffffffffffffffffffffffffffffffff1690602001909291905050506109a1565b604051808215151515815260200191505060405180910390f35b3480156102da57600080fd5b506102e3610ace565b604051808215151515815260200191505060405180910390f35b34801561030957600080fd5b5061033e600480360381019080803573ffffffffffffffffffffffffffffffffffffffff169060200190929190505050610ae1565b604051808215151515815260200191505060405180910390f35b34801561036457600080fd5b5061038360048036038101908080359060200190929190505050610b3a565b604051808273ffffffffffffffffffffffffffffffffffffffff1673ffffffffffffffffffffffffffffffffffffffff16815260200191505060405180910390f35b3480156103d157600080fd5b506103fe600480360381019080803590602001908201803590602001919091929391929390505050610b78565b005b34801561040c57600080fd5b50610415610c40565b604051808215151515815260200191505060405180910390f35b34801561043b57600080fd5b50610470600480360381019080803573ffffffffffffffffffffffffffffffffffffffff169060200190929190505050610c57565b604051808215151515815260200191505060405180910390f35b34801561049657600080fd5b5061049f610d84565b604051808273ffffffffffffffffffffffffffffffffffffffff1673ffffffffffffffffffffffffffffffffffffffff16815260200191505060405180910390f35b3480156104ed57600080fd5b50610522600480360381019080803573ffffffffffffffffffffffffffffffffffffffff169060200190929190505050610da9565b604051808215151515815260200191505060405180910390f35b34801561054857600080fd5b50610575600480360381019080803590602001908201803590602001919091929391929390505050610dc9565b005b34801561058357600080fd5b5061058c6110c2565b604051808215151515815260200191505060405180910390f35b3480156105b257600080fd5b506105bb6110d5565b6040518082815260200191505060405180910390f35b3480156105dd57600080fd5b50610612600480360381019080803573ffffffffffffffffffffffffffffffffffffffff169060200190929190505050611139565b6040518083151515158152602001821515151581526020019250505060405180910390f35b34801561064357600080fd5b5061069b60048036038101908080359060200190820180359060200190808060200260200160405190810160405280939291908181526020018383602002808284378201915050505050509192919290505050611177565b604051808215151515815260200191505060405180910390f35b3480156106c157600080fd5b506106f6600480360381019080803573ffffffffffffffffffffffffffffffffffffffff1690602001909291905050506111d9565b005b34801561070457600080fd5b5061072d6004803603810190808035906020019092919080359060200190929190505050611230565b6040518080602001828103825283818151815260200191508051906020019060200280838360005b83811015610770578082015181840152602081019050610755565b505050509050019250505060405180910390f35b34801561079057600080fd5b506107bd60048036038101908080359060200190820180359060200191909192939192939050505061138a565b6040518080602001828103825283818151815260200191508051906020019060200280838360005b838110156108005780820151818401526020810190506107e5565b505050509050019250505060405180910390f35b600160003373ffffffffffffffffffffffffffffffffffffffff1673ffffffffffffffffffffffffffffffffffffffff16815260200190815260200160002060009054906101000a900460ff16151561086c57600080fd5b6000600560026101000a81548160ff021916908315150217905550565b60045481565b600560009054906101000a900460ff1681565b6000600560029054906101000a900460ff161515156108c057600080fd5b600560009054906101000a900460ff16806109275750600260008373ffffffffffffffffffffffffffffffffffffffff1673ffffffffffffffffffffffffffffffffffffffff16815260200190815260200160002060000160009054906101000a900460ff165b15610935576001905061093a565b600090505b919050565b60008061094b33610ae1565b151561095657600080fd5b600090505b825181101561099b57610984838281518110151561097557fe5b906020019060200201516109a1565b1561098e57600191505b808060010191505061095b565b50919050565b60006109ac33610ae1565b15156109b757600080fd5b600160008373ffffffffffffffffffffffffffffffffffffffff1673ffffffffffffffffffffffffffffffffffffffff16815260200190815260200160002060009054906101000a900460ff1615610ac9576000600160008473ffffffffffffffffffffffffffffffffffffffff1673ffffffffffffffffffffffffffffffffffffffff16815260200190815260200160002060006101000a81548160ff0219169083151502179055507ff1abf01a1043b7c244d128e8595cf0c1d10743b022b03a02dffd8ca3bf729f5a82604051808273ffffffffffffffffffffffffffffffffffffffff1673ffffffffffffffffffffffffffffffffffffffff16815260200191505060405180910390a1600190505b919050565b600560029054906101000a900460ff1681565b60008173ffffffffffffffffffffffffffffffffffffffff166000809054906101000a900473ffffffffffffffffffffffffffffffffffffffff1673ffffffffffffffffffffffffffffffffffffffff16149050919050565b600381815481101515610b4957fe5b906000526020600020016000915054906101000a900473ffffffffffffffffffffffffffffffffffffffff1681565b600160003373ffffffffffffffffffffffffffffffffffffffff1673ffffffffffffffffffffffffffffffffffffffff16815260200190815260200160002060009054906101000a900460ff161515610bd057600080fd5b600560009054906101000a900460ff16158015610bf95750600560019054906101000a900460ff165b1515610c0457600080fd5b610c3c8282808060200260200160405190810160405280939291908181526020018383602002808284378201915050505050506114cd565b5050565b6000600560029054906101000a900460ff16905090565b6000610c6233610ae1565b1515610c6d57600080fd5b600160008373ffffffffffffffffffffffffffffffffffffffff1673ffffffffffffffffffffffffffffffffffffffff16815260200190815260200160002060009054906101000a900460ff161515610d7f5760018060008473ffffffffffffffffffffffffffffffffffffffff1673ffffffffffffffffffffffffffffffffffffffff16815260200190815260200160002060006101000a81548160ff0219169083151502179055507fd1bba68c128cc3f427e5831b3c6f99f480b6efa6b9e80c757768f6124158cc3f82604051808273ffffffffffffffffffffffffffffffffffffffff1673ffffffffffffffffffffffffffffffffffffffff16815260200191505060405180910390a1600190505b919050565b6000809054906101000a900473ffffffffffffffffffffffffffffffffffffffff1681565b60016020528060005260406000206000915054906101000a900460ff1681565b6000600160003373ffffffffffffffffffffffffffffffffffffffff1673ffffffffffffffffffffffffffffffffffffffff16815260200190815260200160002060009054906101000a900460ff161515610e2357600080fd5b600560009054906101000a900460ff16158015610e4c5750600560019054906101000a900460ff165b1515610e5757600080fd5b6001600560026101000a81548160ff021916908315150217905550600090505b828290508110156110bd57600260008484848181101515610e9457fe5b9050602002013573ffffffffffffffffffffffffffffffffffffffff1673ffffffffffffffffffffffffffffffffffffffff1673ffffffffffffffffffffffffffffffffffffffff16815260200190815260200160002060000160019054906101000a900460ff161561101a57600260008484848181101515610f1357fe5b9050602002013573ffffffffffffffffffffffffffffffffffffffff1673ffffffffffffffffffffffffffffffffffffffff1673ffffffffffffffffffffffffffffffffffffffff16815260200190815260200160002060000160009054906101000a900460ff1615611019576000600260008585858181101515610f9457fe5b9050602002013573ffffffffffffffffffffffffffffffffffffffff1673ffffffffffffffffffffffffffffffffffffffff1673ffffffffffffffffffffffffffffffffffffffff16815260200190815260200160002060000160006101000a81548160ff021916908315150217905550600460008154809291906001900391905055505b5b7f048ebfbc43eddab7a7a576fb6a22551fb89c9fa0bb520948a32ec8b1546640d3838383818110151561104957fe5b9050602002013573ffffffffffffffffffffffffffffffffffffffff166000604051808373ffffffffffffffffffffffffffffffffffffffff1673ffffffffffffffffffffffffffffffffffffffff1681526020018281526020019250505060405180910390a18080600101915050610e77565b505050565b600560019054906101000a900460ff1681565b6000600560029054906101000a900460ff161515156110f357600080fd5b600560009054906101000a900460ff1615611130577fffffffffffffffffffffffffffffffffffffffffffffffffffffffffffffffff9050611136565b60045490505b90565b60026020528060005260406000206000915090508060000160009054906101000a900460ff16908060000160019054906101000a900460ff16905082565b60008061118333610ae1565b151561118e57600080fd5b600090505b82518110156111d3576111bc83828151811015156111ad57fe5b90602001906020020151610c57565b156111c657600191505b8080600101915050611193565b50919050565b6111e233610ae1565b15156111ed57600080fd5b806000806101000a81548173ffffffffffffffffffffffffffffffffffffffff021916908373ffffffffffffffffffffffffffffffffffffffff16021790555050565b6060600080600560029054906101000a900460ff1615151561125157600080fd5b60c8841115151561126157600080fd5b600084148061127557506003805490508510155b8061128c5750600560009054906101000a900460ff165b1561129957829250611382565b84600380549050039150838211156112af578391505b816040519080825280602002602001820160405280156112de5781602001602082028038833980820191505090505b509250600090505b818110156113815760038186018154811015156112ff57fe5b9060005260206000200160009054906101000a900473ffffffffffffffffffffffffffffffffffffffff16838281518110151561133857fe5b9060200190602002019073ffffffffffffffffffffffffffffffffffffffff16908173ffffffffffffffffffffffffffffffffffffffff168152505080806001019150506112e6565b5b505092915050565b60606000600560029054906101000a900460ff161515156113aa57600080fd5b60008484905014156113be578191506114c6565b838390506040519080825280602002602001820160405280156113f05781602001602082028038833980820191505090505b509150600090505b838390508110156114c557600560009054906101000a900460ff1680611494575060026000858584818110151561142b57fe5b9050602002013573ffffffffffffffffffffffffffffffffffffffff1673ffffffffffffffffffffffffffffffffffffffff1673ffffffffffffffffffffffffffffffffffffffff16815260200190815260200160002060000160009054906101000a900460ff165b156114b857600182828151811015156114a957fe5b90602001906020020181815250505b80806001019150506113f8565b5b5092915050565b60006001600560026101000a81548160ff021916908315150217905550600090505b81518110156118305760026000838381518110151561150a57fe5b9060200190602002015173ffffffffffffffffffffffffffffffffffffffff1673ffffffffffffffffffffffffffffffffffffffff16815260200190815260200160002060000160019054906101000a900460ff1615156116ad576003828281518110151561157557fe5b9060200190602002015190806001815401808255809150509060018203906000526020600020016000909192909190916101000a81548173ffffffffffffffffffffffffffffffffffffffff021916908373ffffffffffffffffffffffffffffffffffffffff1602179055505060408051908101604052806001151581526020016001151581525060026000848481518110151561160f57fe5b9060200190602002015173ffffffffffffffffffffffffffffffffffffffff1673ffffffffffffffffffffffffffffffffffffffff16815260200190815260200160002060008201518160000160006101000a81548160ff02191690831515021790555060208201518160000160016101000a81548160ff0219169083151502179055509050506004600081548092919060010191905055506117a0565b6002600083838151811015156116bf57fe5b9060200190602002015173ffffffffffffffffffffffffffffffffffffffff1673ffffffffffffffffffffffffffffffffffffffff16815260200190815260200160002060000160009054906101000a900460ff16151561179f57600160026000848481518110151561172e57fe5b9060200190602002015173ffffffffffffffffffffffffffffffffffffffff1673ffffffffffffffffffffffffffffffffffffffff16815260200190815260200160002060000160006101000a81548160ff0219169083151502179055506004600081548092919060010191905055505b5b7f048ebfbc43eddab7a7a576fb6a22551fb89c9fa0bb520948a32ec8b1546640d382828151811015156117cf57fe5b906020019060200201516001604051808373ffffffffffffffffffffffffffffffffffffffff1673ffffffffffffffffffffffffffffffffffffffff1681526020018281526020019250505060405180910390a180806001019150506114ef565b50505600a165627a7a72305820d15ee72ef56cf48b67ce341046fd9cc0cd735a6158debdb7331a73f85e2b945e0029",
  "source": "pragma solidity ^0.4.24;\n\n// This contract implements one strategy for voting power.\n// As long as one stakes N IOTX within an account, this account has 1 vote power.\n\nimport \"./library/VotingPowerSystem.sol\";\nimport \"./library/Whitelist.sol\";\n\ncontract EqualVPS is VotingPowerSystem, Whitelist {\n    struct Power {\n        bool eligible;\n        bool flag;\n    }\n    mapping(address => Power) public qualifiedVoters;\n    address[] public voterAddrs;\n    uint256 public numOfQualifiedVoters;\n    bool public openToPublic;\n    bool public canUpdateQualifiedVoters;\n    bool public updating;\n    modifier whenNotPaused() {\n        require(!updating);\n        _;\n    }\n\n    modifier qualifiedVotersUpdatable() {\n        require(!openToPublic && canUpdateQualifiedVoters);\n        _;\n    }\n\n    constructor(bool _openToPublic, bool _canUpdateQualifiedVoters, address[] _qualifiedVoters) public {\n        openToPublic = _openToPublic;\n        if (!openToPublic) {\n            canUpdateQualifiedVoters = _canUpdateQualifiedVoters;\n            addQualifiedVotersInternal(_qualifiedVoters);\n        }\n    }\n\n    function addQualifiedVotersInternal(address[] _voters) internal {\n        updating = true;\n        for (uint i = 0; i < _voters.length; i++) {\n            if (!qualifiedVoters[_voters[i]].flag) {\n                voterAddrs.push(_voters[i]);\n                qualifiedVoters[_voters[i]] = Power(true, true);\n                numOfQualifiedVoters++;\n            } else {\n                if (!qualifiedVoters[_voters[i]].eligible) {\n                    qualifiedVoters[_voters[i]].eligible = true;\n                    numOfQualifiedVoters++;\n                }\n            }\n            emit SetVotingPower(_voters[i], 1);\n        }\n    }\n\n    function addQualifiedVoters(address[] _voters) external onlyWhitelisted qualifiedVotersUpdatable {\n        addQualifiedVotersInternal(_voters);\n    }\n\n    function deleteQualifiedVoters(address[] _voters) external onlyWhitelisted qualifiedVotersUpdatable {\n        updating = true;\n        for (uint i = 0; i < _voters.length; i++) {\n            if (qualifiedVoters[_voters[i]].flag) {\n                if (qualifiedVoters[_voters[i]].eligible) {\n                    qualifiedVoters[_voters[i]].eligible = false;\n                    numOfQualifiedVoters--;\n                }\n            }\n            emit SetVotingPower(_voters[i], 0);\n        }\n    }\n\n    function totalPower() public whenNotPaused view returns (uint256) {\n        if (openToPublic) {\n            return 0xffffffffffffffffffffffffffffffffffffffffffffffffffffffffffffffff;\n        }\n        return numOfQualifiedVoters;\n    }\n\n    function powersOf(address[] _voters) external whenNotPaused view returns (uint256[] powers_) {\n        if (_voters.length == 0) {\n            return powers_;\n        }\n        powers_ = new uint256[](_voters.length);\n        for (uint i = 0; i < _voters.length; i++) {\n            if (openToPublic || qualifiedVoters[_voters[i]].eligible) {\n                powers_[i] = 1;\n            }\n        }\n    }\n\n    function powerOf(address _voter) external whenNotPaused view returns (uint256) {\n        if (openToPublic || qualifiedVoters[_voter].eligible) {\n            return 1;\n        }\n        return 0;\n    }\n\n    function voters(uint256 _offset, uint256 _limit) public whenNotPaused view returns (address[] voters_) {\n        require(_limit <= 200);\n        if (_limit == 0 || _offset >= voterAddrs.length || openToPublic) {\n            return voters_;\n        }\n        uint256 l = voterAddrs.length - _offset;\n        if (l > _limit) {\n            l = _limit;\n        }\n        voters_ = new address[](l);\n        for (uint i = 0; i < l; i++) {\n            voters_[i] = voterAddrs[_offset + i];\n        }\n    }\n\n    function paused() public view returns (bool) {\n        return updating;\n    }\n\n    function resume() external onlyWhitelisted {\n        updating = false;\n    }\n}\n",
  "sourcePath": "/Users/rc7/work/src/github.com/iotexproject/iotex-governance/contracts/EqualVPS.sol",
  "compiler": {
    "name": "solc",
    "version": "0.4.24+commit.e67f0147.Emscripten.clang"
  },
  "schemaVersion": "3.0.18",
  "updatedAt": "2020-11-07T17:26:47.581Z",
  "devdoc": {
    "methods": {
      "addAddressToWhitelist(address)": {
        "details": "add an address to the whitelist",
        "params": {
          "addr": "address"
        },
        "return": "true if the address was added to the whitelist, false if the address was already in the whitelist"
      },
      "addAddressesToWhitelist(address[])": {
        "details": "add addresses to the whitelist",
        "params": {
          "addrs": "addresses"
        },
        "return": "true if at least one address was added to the whitelist, false if all addresses were already in the whitelist"
      },
      "removeAddressFromWhitelist(address)": {
        "details": "remove an address from the whitelist",
        "params": {
          "addr": "address"
        },
        "return": "true if the address was removed from the whitelist, false if the address wasn't in the whitelist in the first place"
      },
      "removeAddressesFromWhitelist(address[])": {
        "details": "remove addresses from the whitelist",
        "params": {
          "addrs": "addresses"
        },
        "return": "true if at least one address was removed from the whitelist, false if all addresses weren't in the whitelist in the first place"
      }
    }
  },
  "userdoc": {
    "methods": {}
  }
}