{
  "contractName": "IssueBase",
  "abi": [
    {
      "constant": true,
      "inputs": [],
      "name": "duration",
      "outputs": [
        {
          "name": "",
          "type": "uint256"
        }
      ],
      "payable": false,
      "stateMutability": "view",
      "type": "function"
    },
    {
      "constant": true,
      "inputs": [],
      "name": "title",
      "outputs": [
        {
          "name": "",
          "type": "string"
        }
      ],
      "payable": false,
      "stateMutability": "view",
      "type": "function"
    },
    {
      "constant": true,
      "inputs": [],
      "name": "canRevote",
      "outputs": [
        {
          "name": "",
          "type": "bool"
        }
      ],
      "payable": false,
      "stateMutability": "view",
      "type": "function"
    },
    {
      "constant": true,
      "inputs": [],
      "name": "maxNumOfChoices",
      "outputs": [
        {
          "name": "",
          "type": "uint8"
        }
      ],
      "payable": false,
      "stateMutability": "view",
      "type": "function"
    },
    {
      "constant": true,
      "inputs": [],
      "name": "description",
      "outputs": [
        {
          "name": "",
          "type": "string"
        }
      ],
      "payable": false,
      "stateMutability": "view",
      "type": "function"
    }
  ],
  "bytecode": "0x608060405234801561001057600080fd5b506103b5806100206000396000f30060806040526004361061006d576000357c0100000000000000000000000000000000000000000000000000000000900463ffffffff1680630fb5a6b4146100725780634a79d50c1461009d5780637284e4161461012d57806392ae7b96146101bd578063ce050ac8146101ec575b600080fd5b34801561007e57600080fd5b5061008761021d565b6040518082815260200191505060405180910390f35b3480156100a957600080fd5b506100b2610223565b6040518080602001828103825283818151815260200191508051906020019080838360005b838110156100f25780820151818401526020810190506100d7565b50505050905090810190601f16801561011f5780820380516001836020036101000a031916815260200191505b509250505060405180910390f35b34801561013957600080fd5b506101426102c1565b6040518080602001828103825283818151815260200191508051906020019080838360005b83811015610182578082015181840152602081019050610167565b50505050905090810190601f1680156101af5780820380516001836020036101000a031916815260200191505b509250505060405180910390f35b3480156101c957600080fd5b506101d2610363565b604051808215151515815260200191505060405180910390f35b3480156101f857600080fd5b50610201610376565b604051808260ff1660ff16815260200191505060405180910390f35b60035481565b60008054600181600116156101000203166002900480601f0160208091040260200160405190810160405280929190818152602001828054600181600116156101000203166002900480156102b95780601f1061028e576101008083540402835291602001916102b9565b820191906000526020600020905b81548152906001019060200180831161029c57829003601f168201915b505050505081565b606060018054600181600116156101000203166002900480601f0160208091040260200160405190810160405280929190818152602001828054600181600116156101000203166002900480156103595780601f1061032e57610100808354040283529160200191610359565b820191906000526020600020905b81548152906001019060200180831161033c57829003601f168201915b5050505050905090565b600260009054906101000a900460ff1681565b600260019054906101000a900460ff16815600a165627a7a723058204cc61a5d79f0b0e1319c8a58ee05b1dcaf463ebdd9c2d1ade1a7dd4801c3f3140029",
  "source": "pragma solidity ^0.4.22;\n\ncontract IssueBase {\n    string public title;\n    string public description;\n    bool public canRevote;\n    uint8 public maxNumOfChoices;\n    uint256 public duration;\n\n    function description() external view returns (string) {\n        return description;\n    }\n}\n",
  "sourcePath": "/Users/rc7/work/src/github.com/iotexproject/iotex-governance/contracts/IssueBase.sol",
  "compiler": {
    "name": "solc",
    "version": "0.4.24+commit.e67f0147.Emscripten.clang"
  },
  "schemaVersion": "3.0.18",
  "updatedAt": "2020-11-07T17:26:47.586Z",
  "devdoc": {
    "methods": {}
  },
  "userdoc": {
    "methods": {}
  }
}