{
  "contractName": "IssueProposal",
  "abi": [
    {
      "constant": true,
      "inputs": [],
      "name": "duration",
      "outputs": [
        {
          "name": "",
          "type": "uint256"
        }
      ],
      "payable": false,
      "stateMutability": "view",
      "type": "function"
    },
    {
      "constant": true,
      "inputs": [],
      "name": "weighted",
      "outputs": [
        {
          "name": "",
          "type": "bool"
        }
      ],
      "payable": false,
      "stateMutability": "view",
      "type": "function"
    },
    {
      "constant": true,
      "inputs": [
        {
          "name": "_address",
          "type": "address"
        }
      ],
      "name": "isOwner",
      "outputs": [
        {
          "name": "",
          "type": "bool"
        }
      ],
      "payable": false,
      "stateMutability": "view",
      "type": "function"
    },
    {
      "constant": true,
      "inputs": [],
      "name": "title",
      "outputs": [
        {
          "name": "",
          "type": "string"
        }
      ],
      "payable": false,
      "stateMutability": "view",
      "type": "function"
    },
    {
      "constant": true,
      "inputs": [],
      "name": "description",
      "outputs": [
        {
          "name": "",
          "type": "string"
        }
      ],
      "payable": false,
      "stateMutability": "view",
      "type": "function"
    },
    {
      "constant": true,
      "inputs": [],
      "name": "owner",
      "outputs": [
        {
          "name": "",
          "type": "address"
        }
      ],
      "payable": false,
      "stateMutability": "view",
      "type": "function"
    },
    {
      "constant": true,
      "inputs": [],
      "name": "canRevote",
      "outputs": [
        {
          "name": "",
          "type": "bool"
        }
      ],
      "payable": false,
      "stateMutability": "view",
      "type": "function"
    },
    {
      "constant": true,
      "inputs": [],
      "name": "maxNumOfChoices",
      "outputs": [
        {
          "name": "",
          "type": "uint8"
        }
      ],
      "payable": false,
      "stateMutability": "view",
      "type": "function"
    },
    {
      "constant": false,
      "inputs": [
        {
          "name": "_newOwner",
          "type": "address"
        }
      ],
      "name": "transferOwnership",
      "outputs": [],
      "payable": false,
      "stateMutability": "nonpayable",
      "type": "function"
    },
    {
      "inputs": [
        {
          "name": "_title",
          "type": "string"
        },
        {
          "name": "_desc",
          "type": "string"
        },
        {
          "name": "_duration",
          "type": "uint256"
        },
        {
          "name": "_maxNumOfChoices",
          "type": "uint8"
        },
        {
          "name": "_weighted",
          "type": "bool"
        },
        {
          "name": "_canRevote",
          "type": "bool"
        }
      ],
      "payable": false,
      "stateMutability": "nonpayable",
      "type": "constructor"
    },
    {
      "constant": false,
      "inputs": [
        {
          "name": "_title",
          "type": "string"
        }
      ],
      "name": "setTitle",
      "outputs": [],
      "payable": false,
      "stateMutability": "nonpayable",
      "type": "function"
    },
    {
      "constant": false,
      "inputs": [
        {
          "name": "_description",
          "type": "string"
        }
      ],
      "name": "setDescription",
      "outputs": [],
      "payable": false,
      "stateMutability": "nonpayable",
      "type": "function"
    },
    {
      "constant": false,
      "inputs": [
        {
          "name": "_duration",
          "type": "uint256"
        }
      ],
      "name": "setDuration",
      "outputs": [],
      "payable": false,
      "stateMutability": "nonpayable",
      "type": "function"
    },
    {
      "constant": false,
      "inputs": [
        {
          "name": "_canRevote",
          "type": "bool"
        }
      ],
      "name": "setCanRevote",
      "outputs": [],
      "payable": false,
      "stateMutability": "nonpayable",
      "type": "function"
    },
    {
      "constant": false,
      "inputs": [
        {
          "name": "_maxNumOfChoices",
          "type": "uint8"
        }
      ],
      "name": "setMaxNumOfChoices",
      "outputs": [],
      "payable": false,
      "stateMutability": "nonpayable",
      "type": "function"
    },
    {
      "constant": false,
      "inputs": [
        {
          "name": "_weighted",
          "type": "bool"
        }
      ],
      "name": "setWeighted",
      "outputs": [],
      "payable": false,
      "stateMutability": "nonpayable",
      "type": "function"
    },
    {
      "constant": false,
      "inputs": [
        {
          "name": "_option",
          "type": "string"
        }
      ],
      "name": "addOption",
      "outputs": [
        {
          "name": "",
          "type": "uint256"
        }
      ],
      "payable": false,
      "stateMutability": "nonpayable",
      "type": "function"
    },
    {
      "constant": false,
      "inputs": [
        {
          "name": "_index",
          "type": "uint256"
        },
        {
          "name": "_option",
          "type": "string"
        }
      ],
      "name": "updateOption",
      "outputs": [],
      "payable": false,
      "stateMutability": "nonpayable",
      "type": "function"
    },
    {
      "constant": true,
      "inputs": [],
      "name": "optionCount",
      "outputs": [
        {
          "name": "",
          "type": "uint256"
        }
      ],
      "payable": false,
      "stateMutability": "view",
      "type": "function"
    },
    {
      "constant": true,
      "inputs": [
        {
          "name": "_index",
          "type": "uint256"
        }
      ],
      "name": "getOptionDescription",
      "outputs": [
        {
          "name": "",
          "type": "string"
        }
      ],
      "payable": false,
      "stateMutability": "view",
      "type": "function"
    }
  ],
  "bytecode": "0x60806040523480156200001157600080fd5b50604051620011b8380380620011b8833981018060405281019080805182019291906020018051820192919060200180519060200190929190805190602001909291908051906020019092919080519060200190929190505050336000806101000a81548173ffffffffffffffffffffffffffffffffffffffff021916908373ffffffffffffffffffffffffffffffffffffffff160217905550620000c58662000153640100000000026401000000009004565b620000df8562000195640100000000026401000000009004565b620000f981620001d7640100000000026401000000009004565b62000113836200021a640100000000026401000000009004565b6200012d846200025e640100000000026401000000009004565b81600560006101000a81548160ff02191690831515021790555050505050505062000396565b6200016d336200028e640100000000026401000000009004565b15156200017957600080fd5b806001908051906020019062000191929190620002e7565b5050565b620001af336200028e640100000000026401000000009004565b1515620001bb57600080fd5b8060029080519060200190620001d3929190620002e7565b5050565b620001f1336200028e640100000000026401000000009004565b1515620001fd57600080fd5b80600360006101000a81548160ff02191690831515021790555050565b62000234336200028e640100000000026401000000009004565b15156200024057600080fd5b80600360016101000a81548160ff021916908360ff16021790555050565b62000278336200028e640100000000026401000000009004565b15156200028457600080fd5b8060048190555050565b60008173ffffffffffffffffffffffffffffffffffffffff166000809054906101000a900473ffffffffffffffffffffffffffffffffffffffff1673ffffffffffffffffffffffffffffffffffffffff16149050919050565b828054600181600116156101000203166002900490600052602060002090601f016020900481019282601f106200032a57805160ff19168380011785556200035b565b828001600101855582156200035b579182015b828111156200035a5782518255916020019190600101906200033d565b5b5090506200036a91906200036e565b5090565b6200039391905b808211156200038f57600081600090555060010162000375565b5090565b90565b610e1280620003a66000396000f300608060405260043610610107576000357c0100000000000000000000000000000000000000000000000000000000900463ffffffff1680630fb5a6b41461010c57806316d127c0146101375780632f54bf6e146101665780633de2ffb4146101c157806341a37ba4146101f05780634a79d50c146102965780637284e4161461032657806372910be0146103b65780638da5cb5b1461041f57806390c3f38f1461047657806392ae7b96146104df578063b71472511461050e578063ce050ac81461053d578063e32fe90b1461056e578063e892def814610599578063edc550dc146105c9578063f2fde38b14610618578063f6be71d11461065b578063fdc52f6a14610688575b600080fd5b34801561011857600080fd5b506101216106fb565b6040518082815260200191505060405180910390f35b34801561014357600080fd5b5061014c610701565b604051808215151515815260200191505060405180910390f35b34801561017257600080fd5b506101a7600480360381019080803573ffffffffffffffffffffffffffffffffffffffff169060200190929190505050610714565b604051808215151515815260200191505060405180910390f35b3480156101cd57600080fd5b506101ee60048036038101908080351515906020019092919050505061076d565b005b3480156101fc57600080fd5b5061021b6004803603810190808035906020019092919050505061079e565b6040518080602001828103825283818151815260200191508051906020019080838360005b8381101561025b578082015181840152602081019050610240565b50505050905090810190601f1680156102885780820380516001836020036101000a031916815260200191505b509250505060405180910390f35b3480156102a257600080fd5b506102ab6108d5565b6040518080602001828103825283818151815260200191508051906020019080838360005b838110156102eb5780820151818401526020810190506102d0565b50505050905090810190601f1680156103185780820380516001836020036101000a031916815260200191505b509250505060405180910390f35b34801561033257600080fd5b5061033b610973565b6040518080602001828103825283818151815260200191508051906020019080838360005b8381101561037b578082015181840152602081019050610360565b50505050905090810190601f1680156103a85780820380516001836020036101000a031916815260200191505b509250505060405180910390f35b3480156103c257600080fd5b5061041d600480360381019080803590602001908201803590602001908080601f0160208091040260200160405190810160405280939291908181526020018383808284378201915050505050509192919290505050610a15565b005b34801561042b57600080fd5b50610434610a43565b604051808273ffffffffffffffffffffffffffffffffffffffff1673ffffffffffffffffffffffffffffffffffffffff16815260200191505060405180910390f35b34801561048257600080fd5b506104dd600480360381019080803590602001908201803590602001908080601f0160208091040260200160405190810160405280939291908181526020018383808284378201915050505050509192919290505050610a68565b005b3480156104eb57600080fd5b506104f4610a96565b604051808215151515815260200191505060405180910390f35b34801561051a57600080fd5b5061053b600480360381019080803515159060200190929190505050610aa9565b005b34801561054957600080fd5b50610552610ada565b604051808260ff1660ff16815260200191505060405180910390f35b34801561057a57600080fd5b50610583610aed565b6040518082815260200191505060405180910390f35b3480156105a557600080fd5b506105c7600480360381019080803560ff169060200190929190505050610afa565b005b3480156105d557600080fd5b50610602600480360381019080803590602001908201803590602001919091929391929390505050610b2c565b6040518082815260200191505060405180910390f35b34801561062457600080fd5b50610659600480360381019080803573ffffffffffffffffffffffffffffffffffffffff169060200190929190505050610b8a565b005b34801561066757600080fd5b5061068660048036038101908080359060200190929190505050610be1565b005b34801561069457600080fd5b506106f960048036038101908080359060200190929190803590602001908201803590602001908080601f0160208091040260200160405190810160405280939291908181526020018383808284378201915050505050509192919290505050610bff565b005b60045481565b600560009054906101000a900460ff1681565b60008173ffffffffffffffffffffffffffffffffffffffff166000809054906101000a900473ffffffffffffffffffffffffffffffffffffffff1673ffffffffffffffffffffffffffffffffffffffff16149050919050565b61077633610714565b151561078157600080fd5b80600360006101000a81548160ff02191690831515021790555050565b60606006805490508210151561081c576040517f08c379a000000000000000000000000000000000000000000000000000000000815260040180806020018281038252600c8152602001807f6f7574206f662072616e6765000000000000000000000000000000000000000081525060200191505060405180910390fd5b60068281548110151561082b57fe5b906000526020600020018054600181600116156101000203166002900480601f0160208091040260200160405190810160405280929190818152602001828054600181600116156101000203166002900480156108c95780601f1061089e576101008083540402835291602001916108c9565b820191906000526020600020905b8154815290600101906020018083116108ac57829003601f168201915b50505050509050919050565b60018054600181600116156101000203166002900480601f01602080910402602001604051908101604052809291908181526020018280546001816001161561010002031660029004801561096b5780601f106109405761010080835404028352916020019161096b565b820191906000526020600020905b81548152906001019060200180831161094e57829003601f168201915b505050505081565b606060028054600181600116156101000203166002900480601f016020809104026020016040519081016040528092919081815260200182805460018160011615610100020316600290048015610a0b5780601f106109e057610100808354040283529160200191610a0b565b820191906000526020600020905b8154815290600101906020018083116109ee57829003601f168201915b5050505050905090565b610a1e33610714565b1515610a2957600080fd5b8060019080519060200190610a3f929190610cc1565b5050565b6000809054906101000a900473ffffffffffffffffffffffffffffffffffffffff1681565b610a7133610714565b1515610a7c57600080fd5b8060029080519060200190610a92929190610cc1565b5050565b600360009054906101000a900460ff1681565b610ab233610714565b1515610abd57600080fd5b80600560006101000a81548160ff02191690831515021790555050565b600360019054906101000a900460ff1681565b6000600680549050905090565b610b0333610714565b1515610b0e57600080fd5b80600360016101000a81548160ff021916908360ff16021790555050565b6000610b3733610714565b1515610b4257600080fd5b6006838390918060018154018082558091505090600182039060005260206000200160009091929390919293909192909192509190610b82929190610d41565b505092915050565b610b9333610714565b1515610b9e57600080fd5b806000806101000a81548173ffffffffffffffffffffffffffffffffffffffff021916908373ffffffffffffffffffffffffffffffffffffffff16021790555050565b610bea33610714565b1515610bf557600080fd5b8060048190555050565b610c0833610714565b1515610c1357600080fd5b60068054905082101515610c8f576040517f08c379a000000000000000000000000000000000000000000000000000000000815260040180806020018281038252600c8152602001807f6f7574206f662072616e6765000000000000000000000000000000000000000081525060200191505060405180910390fd5b80600683815481101515610c9f57fe5b906000526020600020019080519060200190610cbc929190610cc1565b505050565b828054600181600116156101000203166002900490600052602060002090601f016020900481019282601f10610d0257805160ff1916838001178555610d30565b82800160010185558215610d30579182015b82811115610d2f578251825591602001919060010190610d14565b5b509050610d3d9190610dc1565b5090565b828054600181600116156101000203166002900490600052602060002090601f016020900481019282601f10610d8257803560ff1916838001178555610db0565b82800160010185558215610db0579182015b82811115610daf578235825591602001919060010190610d94565b5b509050610dbd9190610dc1565b5090565b610de391905b80821115610ddf576000816000905550600101610dc7565b5090565b905600a165627a7a7230582058e7ba6e18ad7aea6a4898c3d13ac69dfa11a20e2dfd85ec5a7ae62fa5f0850d0029",
  "source": "pragma solidity ^0.4.22;\n\nimport \"./library/Ownable.sol\";\nimport \"./IssueBase.sol\";\n\ncontract IssueProposal is Ownable, IssueBase {\n    bool public weighted;\n    string[] private options;\n\n    constructor(string _title, string _desc, uint256 _duration, uint8 _maxNumOfChoices, bool _weighted, bool _canRevote) public {\n        setTitle(_title);\n        setDescription(_desc);\n        setCanRevote(_canRevote);\n        setMaxNumOfChoices(_maxNumOfChoices);\n        setDuration(_duration);\n        weighted = _weighted;\n    }\n\n    function setTitle(string _title) public onlyOwner {\n        title = _title;\n    }\n\n    function setDescription(string _description) public onlyOwner {\n        description = _description;\n    }\n\n    function setDuration(uint256 _duration) public onlyOwner {\n        duration = _duration;\n    }\n\n    function setCanRevote(bool _canRevote) public onlyOwner {\n        canRevote = _canRevote;\n    }\n\n    function setMaxNumOfChoices(uint8 _maxNumOfChoices) public onlyOwner {\n        maxNumOfChoices = _maxNumOfChoices;\n    }\n\n    function setWeighted(bool _weighted) public onlyOwner {\n        weighted = _weighted;\n    }\n\n    function addOption(string _option) external onlyOwner returns (uint) {\n        options.push(_option);\n    }\n\n    function updateOption(uint _index, string _option) public onlyOwner {\n        require(_index < options.length, \"out of range\");\n        options[_index] = _option;\n    }\n\n    function optionCount() public view returns (uint) {\n        return options.length;\n    }\n\n    function getOptionDescription(uint _index) public view returns (string) {\n        require(_index < options.length, \"out of range\");\n        return options[_index];\n    }\n}\n",
  "sourcePath": "/Users/rc7/work/src/github.com/iotexproject/iotex-governance/contracts/IssueProposal.sol",
  "compiler": {
    "name": "solc",
    "version": "0.4.24+commit.e67f0147.Emscripten.clang"
  },
  "schemaVersion": "3.0.18",
  "updatedAt": "2020-11-07T17:26:47.587Z",
  "devdoc": {
    "methods": {}
  },
  "userdoc": {
    "methods": {}
  }
}