{
  "contractName": "OffchainIssue",
  "abi": [
    {
      "constant": true,
      "inputs": [],
      "name": "status",
      "outputs": [
        {
          "name": "",
          "type": "uint8"
        }
      ],
      "payable": false,
      "stateMutability": "view",
      "type": "function"
    },
    {
      "constant": true,
      "inputs": [],
      "name": "multiChoice",
      "outputs": [
        {
          "name": "",
          "type": "uint256"
        }
      ],
      "payable": false,
      "stateMutability": "view",
      "type": "function"
    },
    {
      "constant": true,
      "inputs": [
        {
          "name": "",
          "type": "address"
        }
      ],
      "name": "ballots",
      "outputs": [
        {
          "name": "flag",
          "type": "bool"
        }
      ],
      "payable": false,
      "stateMutability": "view",
      "type": "function"
    },
    {
      "constant": true,
      "inputs": [
        {
          "name": "_address",
          "type": "address"
        }
      ],
      "name": "isOwner",
      "outputs": [
        {
          "name": "",
          "type": "bool"
        }
      ],
      "payable": false,
      "stateMutability": "view",
      "type": "function"
    },
    {
      "constant": true,
      "inputs": [],
      "name": "vps",
      "outputs": [
        {
          "name": "",
          "type": "address"
        }
      ],
      "payable": false,
      "stateMutability": "view",
      "type": "function"
    },
    {
      "constant": true,
      "inputs": [],
      "name": "owner",
      "outputs": [
        {
          "name": "",
          "type": "address"
        }
      ],
      "payable": false,
      "stateMutability": "view",
      "type": "function"
    },
    {
      "constant": true,
      "inputs": [],
      "name": "canRevote",
      "outputs": [
        {
          "name": "",
          "type": "bool"
        }
      ],
      "payable": false,
      "stateMutability": "view",
      "type": "function"
    },
    {
      "constant": true,
      "inputs": [],
      "name": "optionCount",
      "outputs": [
        {
          "name": "",
          "type": "uint256"
        }
      ],
      "payable": false,
      "stateMutability": "view",
      "type": "function"
    },
    {
      "constant": false,
      "inputs": [
        {
          "name": "_newOwner",
          "type": "address"
        }
      ],
      "name": "transferOwnership",
      "outputs": [],
      "payable": false,
      "stateMutability": "nonpayable",
      "type": "function"
    },
    {
      "inputs": [
        {
          "name": "_uri",
          "type": "string"
        },
        {
          "name": "_hash",
          "type": "bytes32"
        },
        {
          "name": "_vpsAddress",
          "type": "address"
        },
        {
          "name": "_optionCount",
          "type": "uint256"
        },
        {
          "name": "_canRevote",
          "type": "bool"
        },
        {
          "name": "_multiChoice",
          "type": "uint8"
        }
      ],
      "payable": false,
      "stateMutability": "nonpayable",
      "type": "constructor"
    },
    {
      "anonymous": false,
      "inputs": [
        {
          "indexed": true,
          "name": "_from",
          "type": "address"
        },
        {
          "indexed": false,
          "name": "_value",
          "type": "uint256"
        }
      ],
      "name": "OnVote",
      "type": "event"
    },
    {
      "anonymous": false,
      "inputs": [
        {
          "indexed": false,
          "name": "newIsOpen",
          "type": "bool"
        }
      ],
      "name": "OnStatusChange",
      "type": "event"
    },
    {
      "constant": false,
      "inputs": [],
      "name": "pause",
      "outputs": [],
      "payable": false,
      "stateMutability": "nonpayable",
      "type": "function"
    },
    {
      "constant": false,
      "inputs": [],
      "name": "unpause",
      "outputs": [],
      "payable": false,
      "stateMutability": "nonpayable",
      "type": "function"
    },
    {
      "constant": false,
      "inputs": [],
      "name": "start",
      "outputs": [],
      "payable": false,
      "stateMutability": "nonpayable",
      "type": "function"
    },
    {
      "constant": false,
      "inputs": [],
      "name": "end",
      "outputs": [],
      "payable": false,
      "stateMutability": "nonpayable",
      "type": "function"
    },
    {
      "constant": true,
      "inputs": [],
      "name": "isNew",
      "outputs": [
        {
          "name": "",
          "type": "bool"
        }
      ],
      "payable": false,
      "stateMutability": "view",
      "type": "function"
    },
    {
      "constant": true,
      "inputs": [],
      "name": "isActive",
      "outputs": [
        {
          "name": "",
          "type": "bool"
        }
      ],
      "payable": false,
      "stateMutability": "view",
      "type": "function"
    },
    {
      "constant": true,
      "inputs": [],
      "name": "isPaused",
      "outputs": [
        {
          "name": "",
          "type": "bool"
        }
      ],
      "payable": false,
      "stateMutability": "view",
      "type": "function"
    },
    {
      "constant": true,
      "inputs": [],
      "name": "isEnded",
      "outputs": [
        {
          "name": "",
          "type": "bool"
        }
      ],
      "payable": false,
      "stateMutability": "view",
      "type": "function"
    },
    {
      "constant": false,
      "inputs": [
        {
          "name": "_opt",
          "type": "uint256"
        }
      ],
      "name": "vote",
      "outputs": [
        {
          "name": "",
          "type": "bool"
        }
      ],
      "payable": false,
      "stateMutability": "nonpayable",
      "type": "function"
    },
    {
      "constant": false,
      "inputs": [
        {
          "name": "_opts",
          "type": "uint256[]"
        }
      ],
      "name": "voteMultiple",
      "outputs": [
        {
          "name": "",
          "type": "bool"
        }
      ],
      "payable": false,
      "stateMutability": "nonpayable",
      "type": "function"
    },
    {
      "constant": true,
      "inputs": [],
      "name": "numOfVoters",
      "outputs": [
        {
          "name": "",
          "type": "uint256"
        }
      ],
      "payable": false,
      "stateMutability": "view",
      "type": "function"
    },
    {
      "constant": true,
      "inputs": [
        {
          "name": "_offset",
          "type": "uint256"
        },
        {
          "name": "_limit",
          "type": "uint256"
        }
      ],
      "name": "voters",
      "outputs": [
        {
          "name": "addrs_",
          "type": "address[]"
        }
      ],
      "payable": false,
      "stateMutability": "view",
      "type": "function"
    },
    {
      "constant": true,
      "inputs": [
        {
          "name": "_opt",
          "type": "uint256"
        },
        {
          "name": "_voters",
          "type": "address[]"
        }
      ],
      "name": "voted",
      "outputs": [
        {
          "name": "voted_",
          "type": "bool[]"
        }
      ],
      "payable": false,
      "stateMutability": "view",
      "type": "function"
    },
    {
      "constant": false,
      "inputs": [
        {
          "name": "_isOpen",
          "type": "bool"
        }
      ],
      "name": "setStatus",
      "outputs": [
        {
          "name": "success",
          "type": "bool"
        }
      ],
      "payable": false,
      "stateMutability": "nonpayable",
      "type": "function"
    },
    {
      "constant": true,
      "inputs": [
        {
          "name": "addr",
          "type": "address"
        }
      ],
      "name": "ballotOf",
      "outputs": [
        {
          "name": "",
          "type": "uint256"
        }
      ],
      "payable": false,
      "stateMutability": "view",
      "type": "function"
    },
    {
      "constant": true,
      "inputs": [
        {
          "name": "_addr",
          "type": "address"
        }
      ],
      "name": "ballotsOf",
      "outputs": [
        {
          "name": "ballots_",
          "type": "uint256[]"
        }
      ],
      "payable": false,
      "stateMutability": "view",
      "type": "function"
    },
    {
      "constant": true,
      "inputs": [
        {
          "name": "addr",
          "type": "address"
        }
      ],
      "name": "weightOf",
      "outputs": [
        {
          "name": "",
          "type": "uint256"
        }
      ],
      "payable": false,
      "stateMutability": "view",
      "type": "function"
    },
    {
      "constant": true,
      "inputs": [],
      "name": "getStatus",
      "outputs": [
        {
          "name": "",
          "type": "bool"
        }
      ],
      "payable": false,
      "stateMutability": "view",
      "type": "function"
    },
    {
      "constant": true,
      "inputs": [
        {
          "name": "_opt",
          "type": "uint256"
        }
      ],
      "name": "weightedVoteCountsOf",
      "outputs": [
        {
          "name": "count_",
          "type": "uint256"
        }
      ],
      "payable": false,
      "stateMutability": "view",
      "type": "function"
    },
    {
      "constant": true,
      "inputs": [],
      "name": "winningOption",
      "outputs": [
        {
          "name": "winningOption_",
          "type": "uint256"
        }
      ],
      "payable": false,
      "stateMutability": "view",
      "type": "function"
    },
    {
      "constant": true,
      "inputs": [],
      "name": "description",
      "outputs": [
        {
          "name": "",
          "type": "string"
        }
      ],
      "payable": false,
      "stateMutability": "view",
      "type": "function"
    },
    {
      "constant": true,
      "inputs": [
        {
          "name": "_opt",
          "type": "uint256"
        }
      ],
      "name": "optionDescription",
      "outputs": [
        {
          "name": "",
          "type": "string"
        }
      ],
      "payable": false,
      "stateMutability": "view",
      "type": "function"
    },
    {
      "constant": true,
      "inputs": [],
      "name": "availableOptions",
      "outputs": [
        {
          "name": "options_",
          "type": "uint256[]"
        }
      ],
      "payable": false,
      "stateMutability": "view",
      "type": "function"
    }
  ],
  "bytecode": "0x60806040523480156200001157600080fd5b506040516200242138038062002421833981018060405281019080805182019291906020018051906020019092919080519060200190929190805190602001909291908051906020019092919080519060200190929190505050336000806101000a81548173ffffffffffffffffffffffffffffffffffffffff021916908373ffffffffffffffffffffffffffffffffffffffff1602179055508560019080519060200190620000c392919062000188565b50846002816000191690555083600360006101000a81548173ffffffffffffffffffffffffffffffffffffffff021916908373ffffffffffffffffffffffffffffffffffffffff1602179055508260088190555081600660016101000a81548160ff02191690831515021790555060008160ff1614156200014c57600160078190555062000157565b8060ff166007819055505b6000600660006101000a81548160ff021916908360038111156200017757fe5b021790555050505050505062000237565b828054600181600116156101000203166002900490600052602060002090601f016020900481019282601f10620001cb57805160ff1916838001178555620001fc565b82800160010185558215620001fc579182015b82811115620001fb578251825591602001919060010190620001de565b5b5090506200020b91906200020f565b5090565b6200023491905b808211156200023057600081600090555060010162000216565b5090565b90565b6121da80620002476000396000f300608060405260043610610196576000357c0100000000000000000000000000000000000000000000000000000000900463ffffffff1680630121b93f1461019b578063200d2ed2146101e057806322f3e2d41461021957806325eac7941461024857806327cf3844146102735780632f54bf6e146102ce5780633f4ba83a146103295780634e69d5601461034057806356702d6e1461036f5780635c40f6f4146103c65780636db704281461040d5780637284e4161461048b57806379ed13a71461051b5780638456cb59146105875780638da5cb5b1461059e57806392ae7b96146105f557806398f0b34c146106245780639fde4ef81461064f578063a4fd6f561461067a578063b187bd26146106a9578063b54c71eb146106d8578063be9a655514610719578063d999f13214610730578063dc012626146107d6578063dd4bc1011461082d578063e0f6e29914610884578063e32fe90b1461091c578063efbe1c1c14610947578063f2fde38b1461095e578063f5ec242f146109a1578063fba00cbd14610a3b578063fe75154b14610ac7575b600080fd5b3480156101a757600080fd5b506101c660048036038101908080359060200190929190505050610af6565b604051808215151515815260200191505060405180910390f35b3480156101ec57600080fd5b506101f5610b64565b6040518082600381111561020557fe5b60ff16815260200191505060405180910390f35b34801561022557600080fd5b5061022e610b77565b604051808215151515815260200191505060405180910390f35b34801561025457600080fd5b5061025d610ba7565b6040518082815260200191505060405180910390f35b34801561027f57600080fd5b506102b4600480360381019080803573ffffffffffffffffffffffffffffffffffffffff169060200190929190505050610bad565b604051808215151515815260200191505060405180910390f35b3480156102da57600080fd5b5061030f600480360381019080803573ffffffffffffffffffffffffffffffffffffffff169060200190929190505050610bd8565b604051808215151515815260200191505060405180910390f35b34801561033557600080fd5b5061033e610c31565b005b34801561034c57600080fd5b50610355610c7e565b604051808215151515815260200191505060405180910390f35b34801561037b57600080fd5b50610384610c8d565b604051808273ffffffffffffffffffffffffffffffffffffffff1673ffffffffffffffffffffffffffffffffffffffff16815260200191505060405180910390f35b3480156103d257600080fd5b506103f3600480360381019080803515159060200190929190505050610cb3565b604051808215151515815260200191505060405180910390f35b34801561041957600080fd5b5061047160048036038101908080359060200190820180359060200190808060200260200160405190810160405280939291908181526020018383602002808284378201915050505050509192919290505050610dae565b604051808215151515815260200191505060405180910390f35b34801561049757600080fd5b506104a0610dc8565b6040518080602001828103825283818151815260200191508051906020019080838360005b838110156104e05780820151818401526020810190506104c5565b50505050905090810190601f16801561050d5780820380516001836020036101000a031916815260200191505b509250505060405180910390f35b34801561052757600080fd5b50610530610e05565b6040518080602001828103825283818151815260200191508051906020019060200280838360005b83811015610573578082015181840152602081019050610558565b505050509050019250505060405180910390f35b34801561059357600080fd5b5061059c610e80565b005b3480156105aa57600080fd5b506105b3610ecd565b604051808273ffffffffffffffffffffffffffffffffffffffff1673ffffffffffffffffffffffffffffffffffffffff16815260200191505060405180910390f35b34801561060157600080fd5b5061060a610ef2565b604051808215151515815260200191505060405180910390f35b34801561063057600080fd5b50610639610f05565b6040518082815260200191505060405180910390f35b34801561065b57600080fd5b50610664610f12565b6040518082815260200191505060405180910390f35b34801561068657600080fd5b5061068f611229565b604051808215151515815260200191505060405180910390f35b3480156106b557600080fd5b506106be611258565b604051808215151515815260200191505060405180910390f35b3480156106e457600080fd5b5061070360048036038101908080359060200190929190505050611288565b6040518082815260200191505060405180910390f35b34801561072557600080fd5b5061072e6114cf565b005b34801561073c57600080fd5b5061075b600480360381019080803590602001909291905050506114f0565b6040518080602001828103825283818151815260200191508051906020019080838360005b8381101561079b578082015181840152602081019050610780565b50505050905090810190601f1680156107c85780820380516001836020036101000a031916815260200191505b509250505060405180910390f35b3480156107e257600080fd5b50610817600480360381019080803573ffffffffffffffffffffffffffffffffffffffff16906020019092919050505061154c565b6040518082815260200191505060405180910390f35b34801561083957600080fd5b5061086e600480360381019080803573ffffffffffffffffffffffffffffffffffffffff16906020019092919050505061165d565b6040518082815260200191505060405180910390f35b34801561089057600080fd5b506108c5600480360381019080803573ffffffffffffffffffffffffffffffffffffffff16906020019092919050505061175e565b6040518080602001828103825283818151815260200191508051906020019060200280838360005b838110156109085780820151818401526020810190506108ed565b505050509050019250505060405180910390f35b34801561092857600080fd5b50610931611905565b6040518082815260200191505060405180910390f35b34801561095357600080fd5b5061095c61190b565b005b34801561096a57600080fd5b5061099f600480360381019080803573ffffffffffffffffffffffffffffffffffffffff16906020019092919050505061192c565b005b3480156109ad57600080fd5b506109e460048036038101908080359060200190929190803590602001908201803590602001919091929391929390505050611983565b6040518080602001828103825283818151815260200191508051906020019060200280838360005b83811015610a27578082015181840152602081019050610a0c565b505050509050019250505060405180910390f35b348015610a4757600080fd5b50610a706004803603810190808035906020019092919080359060200190929190505050611b4a565b6040518080602001828103825283818151815260200191508051906020019060200280838360005b83811015610ab3578082015181840152602081019050610a98565b505050509050019250505060405180910390f35b348015610ad357600080fd5b50610adc611c61565b604051808215151515815260200191505060405180910390f35b60006060610b02611c90565b6001604051908082528060200260200182016040528015610b325781602001602082028038833980820191505090505b50905082816000815181101515610b4557fe5b9060200190602002018181525050610b5c81611e17565b915050919050565b600660009054906101000a900460ff1681565b600060016003811115610b8657fe5b600660009054906101000a900460ff166003811115610ba157fe5b14905090565b60075481565b60046020528060005260406000206000915090508060010160009054906101000a900460ff16905081565b60008173ffffffffffffffffffffffffffffffffffffffff166000809054906101000a900473ffffffffffffffffffffffffffffffffffffffff1673ffffffffffffffffffffffffffffffffffffffff16149050919050565b610c3a33610bd8565b1515610c4557600080fd5b610c4d611258565b1515610c5857600080fd5b6001600660006101000a81548160ff02191690836003811115610c7757fe5b0217905550565b6000610c88610b77565b905090565b600360009054906101000a900473ffffffffffffffffffffffffffffffffffffffff1681565b6000610cbe33610bd8565b1515610cc957600080fd5b8115610d1c57610cd7611c61565b1580610ce557506000600854145b15610cf35760009050610da9565b6001600660006101000a81548160ff02191690836003811115610d1257fe5b0217905550610d69565b610d24610b77565b158015610d365750610d34611258565b155b15610d445760009050610da9565b6003600660006101000a81548160ff02191690836003811115610d6357fe5b02179055505b7fb32dd91638884ac1012ac9d4a0c8cce44d78ecd091818a79ef9210670f6647f782604051808215151515815260200191505060405180910390a1600190505b919050565b6000610db8611c90565b610dc182611e17565b9050919050565b60606040805190810160405280600e81526020017f4e6f74204170706c696361626c65000000000000000000000000000000000000815250905090565b60606000600854604051908082528060200260200182016040528015610e3a5781602001602082028038833980820191505090505b509150600090505b600854811015610e7957600181018282815181101515610e5e57fe5b90602001906020020181815250508080600101915050610e42565b8191505090565b610e8933610bd8565b1515610e9457600080fd5b610e9c610b77565b1515610ea757600080fd5b6002600660006101000a81548160ff02191690836003811115610ec657fe5b0217905550565b6000809054906101000a900473ffffffffffffffffffffffffffffffffffffffff1681565b600660019054906101000a900460ff1681565b6000600580549050905090565b60006060600080600080600854604051908082528060200260200182016040528015610f4d5781602001602082028038833980820191505090505b509450600093505b6005805490508410156111b757600360009054906101000a900473ffffffffffffffffffffffffffffffffffffffff1673ffffffffffffffffffffffffffffffffffffffff16631ac84690600586815481101515610faf57fe5b9060005260206000200160009054906101000a900473ffffffffffffffffffffffffffffffffffffffff166040518263ffffffff167c0100000000000000000000000000000000000000000000000000000000028152600401808273ffffffffffffffffffffffffffffffffffffffff1673ffffffffffffffffffffffffffffffffffffffff168152602001915050602060405180830381600087803b15801561105857600080fd5b505af115801561106c573d6000803e3d6000fd5b505050506040513d602081101561108257600080fd5b810190808051906020019092919050505092506000831415156111aa57600460006005868154811015156110b257fe5b9060005260206000200160009054906101000a900473ffffffffffffffffffffffffffffffffffffffff1673ffffffffffffffffffffffffffffffffffffffff1673ffffffffffffffffffffffffffffffffffffffff1681526020019081526020016000209150600090505b6008548110156111a957816000018181548110151561113957fe5b90600052602060002090602091828204019190069054906101000a900460ff161561119c5761117f858281518110151561116f57fe5b90602001906020020151846120ba565b858281518110151561118d57fe5b90602001906020020181815250505b808060010191505061111e565b5b8380600101945050610f55565b600093505b60085484101561121e576000861480611205575084848151811015156111de57fe5b9060200190602002015185600188038151811015156111f957fe5b90602001906020020151105b15611211576001840195505b83806001019450506111bc565b859550505050505090565b600060038081111561123757fe5b600660009054906101000a900460ff16600381111561125257fe5b14905090565b60006002600381111561126757fe5b600660009054906101000a900460ff16600381111561128257fe5b14905090565b6000806000808411801561129e57506008548411155b15156112a957600080fd5b600091505b6005805490508210156114c557600360009054906101000a900473ffffffffffffffffffffffffffffffffffffffff1673ffffffffffffffffffffffffffffffffffffffff16631ac8469060058481548110151561130857fe5b9060005260206000200160009054906101000a900473ffffffffffffffffffffffffffffffffffffffff166040518263ffffffff167c0100000000000000000000000000000000000000000000000000000000028152600401808273ffffffffffffffffffffffffffffffffffffffff1673ffffffffffffffffffffffffffffffffffffffff168152602001915050602060405180830381600087803b1580156113b157600080fd5b505af11580156113c5573d6000803e3d6000fd5b505050506040513d60208110156113db57600080fd5b81019080805190602001909291905050509050600081141580156114a657506004600060058481548110151561140d57fe5b9060005260206000200160009054906101000a900473ffffffffffffffffffffffffffffffffffffffff1673ffffffffffffffffffffffffffffffffffffffff1673ffffffffffffffffffffffffffffffffffffffff1681526020019081526020016000206000016001850381548110151561148557fe5b90600052602060002090602091828204019190069054906101000a900460ff165b156114b8576114b583826120ba565b92505b81806001019250506112ae565b8292505050919050565b6114d833610bd8565b15156114e357600080fd5b6114ed6001610cb3565b50565b606060008211801561150457506008548211155b151561150f57600080fd5b6040805190810160405280600e81526020017f4e6f74204170706c696361626c650000000000000000000000000000000000008152509050919050565b60008060016007541115151561156157600080fd5b600460008473ffffffffffffffffffffffffffffffffffffffff1673ffffffffffffffffffffffffffffffffffffffff16815260200190815260200160002060010160009054906101000a900460ff161561165257600090505b60085481101561165157600460008473ffffffffffffffffffffffffffffffffffffffff1673ffffffffffffffffffffffffffffffffffffffff1681526020019081526020016000206000018181548110151561161457fe5b90600052602060002090602091828204019190069054906101000a900460ff161561164457600181019150611657565b80806001019150506115bb565b5b600091505b50919050565b6000600360009054906101000a900473ffffffffffffffffffffffffffffffffffffffff1673ffffffffffffffffffffffffffffffffffffffff16631ac84690836040518263ffffffff167c0100000000000000000000000000000000000000000000000000000000028152600401808273ffffffffffffffffffffffffffffffffffffffff1673ffffffffffffffffffffffffffffffffffffffff168152602001915050602060405180830381600087803b15801561171c57600080fd5b505af1158015611730573d6000803e3d6000fd5b505050506040513d602081101561174657600080fd5b81019080805190602001909291905050509050919050565b6060600080600080925060009150600092505b60085483101561180557600460008673ffffffffffffffffffffffffffffffffffffffff1673ffffffffffffffffffffffffffffffffffffffff168152602001908152602001600020600001838154811015156117ca57fe5b90600052602060002090602091828204019190069054906101000a900460ff16156117f85781806001019250505b8280600101935050611771565b6000821415156118fd5760009050816040519080825280602002602001820160405280156118425781602001602082028038833980820191505090505b509350600092505b6008548310156118fc57600460008673ffffffffffffffffffffffffffffffffffffffff1673ffffffffffffffffffffffffffffffffffffffff168152602001908152602001600020600001838154811015156118a357fe5b90600052602060002090602091828204019190069054906101000a900460ff16156118ef576001830184828060010193508151811015156118e057fe5b90602001906020020181815250505b828060010193505061184a565b5b505050919050565b60085481565b61191433610bd8565b151561191f57600080fd5b6119296000610cb3565b50565b61193533610bd8565b151561194057600080fd5b806000806101000a81548173ffffffffffffffffffffffffffffffffffffffff021916908373ffffffffffffffffffffffffffffffffffffffff16021790555050565b60606000808511801561199857506008548511155b80156119a75750600084849050115b15156119b257600080fd5b838390506040519080825280602002602001820160405280156119e45781602001602082028038833980820191505090505b509150600090505b83839050811015611b4257600460008585848181101515611a0957fe5b9050602002013573ffffffffffffffffffffffffffffffffffffffff1673ffffffffffffffffffffffffffffffffffffffff1673ffffffffffffffffffffffffffffffffffffffff16815260200190815260200160002060010160009054906101000a900460ff1615611b3557600460008585848181101515611a8857fe5b9050602002013573ffffffffffffffffffffffffffffffffffffffff1673ffffffffffffffffffffffffffffffffffffffff1673ffffffffffffffffffffffffffffffffffffffff16815260200190815260200160002060000160018603815481101515611af257fe5b90600052602060002090602091828204019190069054906101000a900460ff168282815181101515611b2057fe5b90602001906020020190151590811515815250505b80806001019150506119ec565b509392505050565b606060008060058054905085101580611b635750600084145b15611b7057829250611c59565b8460058054905003915081841015611b86578391505b81604051908082528060200260200182016040528015611bb55781602001602082028038833980820191505090505b509250600090505b81811015611c58576005818601815481101515611bd657fe5b9060005260206000200160009054906101000a900473ffffffffffffffffffffffffffffffffffffffff168382815181101515611c0f57fe5b9060200190602002019073ffffffffffffffffffffffffffffffffffffffff16908173ffffffffffffffffffffffffffffffffffffffff16815250508080600101915050611bbd565b5b505092915050565b6000806003811115611c6f57fe5b600660009054906101000a900460ff166003811115611c8a57fe5b14905090565b600460003373ffffffffffffffffffffffffffffffffffffffff1673ffffffffffffffffffffffffffffffffffffffff16815260200190815260200160002060010160009054906101000a900460ff161515611e155760053390806001815401808255809150509060018203906000526020600020016000909192909190916101000a81548173ffffffffffffffffffffffffffffffffffffffff021916908373ffffffffffffffffffffffffffffffffffffffff160217905550506040805190810160405280600854604051908082528060200260200182016040528015611d885781602001602082028038833980820191505090505b50815260200160011515815250600460003373ffffffffffffffffffffffffffffffffffffffff1673ffffffffffffffffffffffffffffffffffffffff1681526020019081526020016000206000820151816000019080519060200190611df09291906120d8565b5060208201518160010160006101000a81548160ff0219169083151502179055509050505b565b600080600080611e25610b77565b1515611e3057600080fd5b600660019054906101000a900460ff1615611ee057600092505b600854831015611edb576000600460003373ffffffffffffffffffffffffffffffffffffffff1673ffffffffffffffffffffffffffffffffffffffff16815260200190815260200160002060000184815481101515611ea557fe5b90600052602060002090602091828204019190066101000a81548160ff0219169083151502179055508280600101935050611e4a565b611f90565b60009150600092505b600854831015611f7d57600460003373ffffffffffffffffffffffffffffffffffffffff1673ffffffffffffffffffffffffffffffffffffffff16815260200190815260200160002060000183815481101515611f4257fe5b90600052602060002090602091828204019190069054906101000a900460ff1615611f705781806001019250505b8280600101935050611ee9565b6000821115611f8f57600093506120b2565b5b600092505b84518310156120ad578483815181101515611fac57fe5b906020019060200201519050600081118015611fca57506008548111155b1515611fd557600080fd5b6001600460003373ffffffffffffffffffffffffffffffffffffffff1673ffffffffffffffffffffffffffffffffffffffff1681526020019081526020016000206000016001830381548110151561202957fe5b90600052602060002090602091828204019190066101000a81548160ff0219169083151502179055503373ffffffffffffffffffffffffffffffffffffffff167fa9851bf7c64060a1bb8c8c6e89a10c1fb3898337da61ecd2db3ca015ad32ebe0826040518082815260200191505060405180910390a28280600101935050611f95565b600193505b505050919050565b60008082840190508381101515156120ce57fe5b8091505092915050565b82805482825590600052602060002090601f0160209004810192821561216d5791602002820160005b8382111561213e57835183826101000a81548160ff0219169083151502179055509260200192600101602081600001049283019260010302612101565b801561216b5782816101000a81549060ff021916905560010160208160000104928301926001030261213e565b505b50905061217a919061217e565b5090565b6121ab91905b808211156121a757600081816101000a81549060ff021916905550600101612184565b5090565b905600a165627a7a72305820e7aa3e865c764d84a0ee143d79f617b7cdbca6cb118ccee1f27a2dcd53f4b0760029",
  "source": "pragma solidity ^0.4.22;\n\n// This contract implements the management of one proposals (known as issue) in an offchain manner,\n// indicating the proposal details actually are stored offchain, e.g., on IPFS, while the hash and _uri\n// of the details are stored in the contract.\n\nimport \"./library/ERC1202.sol\";\nimport \"./library/Ownable.sol\";\nimport \"./library/VotingPowerSystem.sol\";\nimport \"./library/SafeMath.sol\";\nimport \"./library/IssueSheet.sol\";\n\ncontract OffchainIssue is ERC1202, Ownable {\n    using SafeMath for uint;\n\n    struct Ballot {\n        bool[] values;\n        bool flag;\n    }\n\n    //title, desc, proposer, options\n    string metaURI;\n    bytes32 metaHash;\n\n    VotingPowerSystem public vps;\n    mapping(address => Ballot) public ballots;\n    address[] voterAddrs;\n\n    enum Status {\n        New,\n        Active,\n        Paused,\n        Ended\n    }\n    Status public status;\n\n    bool public canRevote;\n    uint public multiChoice;\n    uint public optionCount;\n\n    constructor(string _uri, bytes32 _hash, address _vpsAddress, uint _optionCount, bool _canRevote, uint8 _multiChoice) public {\n        metaURI = _uri;\n        metaHash = _hash;\n        vps = VotingPowerSystem(_vpsAddress);\n        optionCount = _optionCount;\n        canRevote = _canRevote;\n        if (_multiChoice == 0) {\n            multiChoice = 1;\n        } else {\n            multiChoice = _multiChoice;\n        }\n        status = Status.New;\n    }\n\n    function pause() public onlyOwner {\n        require(isActive());\n        status = Status.Paused;\n    }\n\n    function unpause() public onlyOwner {\n        require(isPaused());\n        status = Status.Active;\n    }\n\n    function start() public onlyOwner {\n        setStatus(true);\n    }\n\n    function end() public onlyOwner {\n        setStatus(false);\n    }\n\n    function isNew() public view returns (bool) {\n        return status == Status.New;\n    }\n\n    function isActive() public view returns (bool) {\n        return status == Status.Active;\n    }\n\n    function isPaused() public view returns (bool) {\n        return status == Status.Paused;\n    }\n\n    function isEnded() public view returns (bool) {\n        return status == Status.Ended;\n    }\n\n    function voteInternal(uint[] _opts) internal returns (bool) {\n        require(isActive());\n        uint i;\n        if (canRevote) {\n            for (i = 0; i < optionCount; i++) {\n                ballots[msg.sender].values[i] = false;\n            }\n        } else {\n            uint existingVotes = 0;\n            for (i = 0; i < optionCount; i++) {\n                if (ballots[msg.sender].values[i]) {\n                    existingVotes++;\n                }\n            }\n            if (existingVotes > 0) {\n                return false;\n            }\n        }\n        for (i = 0; i < _opts.length; i++) {\n            uint opt = _opts[i];\n            require(opt > 0 && opt <= optionCount);\n            ballots[msg.sender].values[opt - 1] = true;\n            emit OnVote(msg.sender, opt);\n        }\n        return true;\n    }\n\n    function createBallotIfNotExist() internal {\n        if (!ballots[msg.sender].flag) {\n            voterAddrs.push(msg.sender);\n            ballots[msg.sender] = Ballot(new bool[](optionCount), true);\n        }\n    }\n\n    function vote(uint _opt) external returns (bool) {\n        createBallotIfNotExist();\n        uint[] memory opts = new uint[](1);\n        opts[0] = _opt;\n        return voteInternal(opts);\n    }\n\n    function voteMultiple(uint[] _opts) public returns (bool) {\n        createBallotIfNotExist();\n        return voteInternal(_opts);\n    }\n\n    function numOfVoters() public view returns (uint) {\n        return voterAddrs.length;\n    }\n\n    function voters(uint _offset, uint _limit) public view returns (address[] addrs_) {\n        if (_offset >= voterAddrs.length || _limit == 0) {\n            return addrs_;\n        }\n        uint limit = voterAddrs.length - _offset;\n        if (_limit < limit) {\n            limit = _limit;\n        }\n        addrs_ = new address[](limit);\n        for (uint i = 0; i < limit; i++) {\n            addrs_[i] = voterAddrs[_offset + i];\n        }\n    }\n\n    function voted(uint _opt, address[] _voters) external view returns (bool[] voted_) {\n        require(_opt > 0 && _opt <= optionCount && _voters.length > 0);\n        voted_ = new bool[](_voters.length);\n        for (uint i = 0; i < _voters.length; i++) {\n            if (ballots[_voters[i]].flag) {\n                voted_[i] = ballots[_voters[i]].values[_opt - 1];\n            }\n        }\n    }\n\n    function setStatus(bool _isOpen) public onlyOwner returns (bool success) {\n        if (_isOpen) {\n            if (!isNew() || optionCount == 0) {\n                return false;\n            }\n            status = Status.Active;\n        } else {\n            if (!isActive() && !isPaused()) {\n                return false;\n            }\n            status = Status.Ended;\n        }\n        emit OnStatusChange(_isOpen);\n        return true;\n    }\n\n    function ballotOf(address addr) external view returns (uint) {\n        require(multiChoice <= 1);\n        if (ballots[addr].flag) {\n            for (uint i = 0; i < optionCount; i++) {\n                if (ballots[addr].values[i]) {\n                    return i + 1;\n                }\n            }\n        }\n        return 0;\n    }\n\n    function ballotsOf(address _addr) external view returns (uint[] ballots_) {\n        uint i = 0;\n        uint size = 0;\n        for (i = 0; i < optionCount; i++) {\n            if (ballots[_addr].values[i]) {\n                size++;\n            }\n        }\n        if (size != 0) {\n            uint idx = 0;\n            ballots_ = new uint[](size);\n            for (i = 0; i < optionCount; i++) {\n                if (ballots[_addr].values[i]) {\n                    ballots_[idx++] = i + 1;\n                }\n            }\n        }\n    }\n\n    function weightOf(address addr) external view returns (uint) {\n        return vps.powerOf(addr);\n    }\n\n    function getStatus() external view returns (bool) {\n        return isActive();\n    }\n\n    function weightedVoteCountsOf(uint _opt) external view returns (uint count_) {\n        require(_opt > 0 && _opt <= optionCount);\n        for (uint i = 0; i < voterAddrs.length; i++) {\n            uint power = vps.powerOf(voterAddrs[i]);\n            if (power != 0 && ballots[voterAddrs[i]].values[_opt - 1]) {\n                count_ = SafeMath.add(count_, power);\n            }\n        }\n        return count_;\n    }\n\n    function winningOption() external view returns (uint winningOption_) {\n        uint[] memory counts = new uint[](optionCount);\n        uint i;\n        for (i = 0; i < voterAddrs.length; i++) {\n            uint power = vps.powerOf(voterAddrs[i]);\n            if (power != 0) {\n                Ballot storage b = ballots[voterAddrs[i]];\n                for (uint j = 0; j < optionCount; j++) {\n                    if (b.values[j]) {\n                        counts[j] = SafeMath.add(counts[j], power);\n                    }\n                }\n            }\n        }\n        for (i = 0; i < optionCount; i++) {\n            if (winningOption_ == 0 || counts[winningOption_ - 1] < counts[i]) {\n                winningOption_ = i + 1;\n            }\n        }\n\n        return winningOption_;\n    }\n\n    function description() external view returns (string) {\n        return \"Not Applicable\";\n    }\n\n    function optionDescription(uint _opt) external view returns (string) {\n        require(_opt > 0 && _opt <= optionCount);\n        return \"Not Applicable\";\n    }\n\n    function availableOptions() external view returns (uint[] options_) {\n        options_ = new uint[](optionCount);\n        for (uint i = 0; i < optionCount; i++) {\n            options_[i] = i + 1;\n        }\n        return options_;\n    }\n\n}\n",
  "sourcePath": "/Users/rc7/work/src/github.com/iotexproject/iotex-governance/contracts/OffchainIssue.sol",
  "compiler": {
    "name": "solc",
    "version": "0.4.24+commit.e67f0147.Emscripten.clang"
  },
  "schemaVersion": "3.0.18",
  "updatedAt": "2020-11-07T17:26:47.592Z",
  "devdoc": {
    "methods": {}
  },
  "userdoc": {
    "methods": {}
  }
}