{
  "contractName": "OffChainIssueRegistration",
  "abi": [
    {
      "constant": true,
      "inputs": [],
      "name": "equalVPSAddress",
      "outputs": [
        {
          "name": "",
          "type": "address"
        }
      ],
      "payable": false,
      "stateMutability": "view",
      "type": "function"
    },
    {
      "constant": true,
      "inputs": [],
      "name": "registrationFee",
      "outputs": [
        {
          "name": "",
          "type": "uint256"
        }
      ],
      "payable": false,
      "stateMutability": "view",
      "type": "function"
    },
    {
      "constant": false,
      "inputs": [
        {
          "name": "addrs",
          "type": "address[]"
        }
      ],
      "name": "removeAddressesFromWhitelist",
      "outputs": [
        {
          "name": "success",
          "type": "bool"
        }
      ],
      "payable": false,
      "stateMutability": "nonpayable",
      "type": "function"
    },
    {
      "constant": false,
      "inputs": [
        {
          "name": "addr",
          "type": "address"
        }
      ],
      "name": "removeAddressFromWhitelist",
      "outputs": [
        {
          "name": "success",
          "type": "bool"
        }
      ],
      "payable": false,
      "stateMutability": "nonpayable",
      "type": "function"
    },
    {
      "constant": true,
      "inputs": [
        {
          "name": "_address",
          "type": "address"
        }
      ],
      "name": "isOwner",
      "outputs": [
        {
          "name": "",
          "type": "bool"
        }
      ],
      "payable": false,
      "stateMutability": "view",
      "type": "function"
    },
    {
      "constant": false,
      "inputs": [],
      "name": "unpause",
      "outputs": [],
      "payable": false,
      "stateMutability": "nonpayable",
      "type": "function"
    },
    {
      "constant": true,
      "inputs": [],
      "name": "paused",
      "outputs": [
        {
          "name": "",
          "type": "bool"
        }
      ],
      "payable": false,
      "stateMutability": "view",
      "type": "function"
    },
    {
      "constant": false,
      "inputs": [
        {
          "name": "addr",
          "type": "address"
        }
      ],
      "name": "addAddressToWhitelist",
      "outputs": [
        {
          "name": "success",
          "type": "bool"
        }
      ],
      "payable": false,
      "stateMutability": "nonpayable",
      "type": "function"
    },
    {
      "constant": false,
      "inputs": [],
      "name": "pause",
      "outputs": [],
      "payable": false,
      "stateMutability": "nonpayable",
      "type": "function"
    },
    {
      "constant": true,
      "inputs": [],
      "name": "owner",
      "outputs": [
        {
          "name": "",
          "type": "address"
        }
      ],
      "payable": false,
      "stateMutability": "view",
      "type": "function"
    },
    {
      "constant": true,
      "inputs": [
        {
          "name": "",
          "type": "address"
        }
      ],
      "name": "whitelist",
      "outputs": [
        {
          "name": "",
          "type": "bool"
        }
      ],
      "payable": false,
      "stateMutability": "view",
      "type": "function"
    },
    {
      "constant": false,
      "inputs": [
        {
          "name": "addrs",
          "type": "address[]"
        }
      ],
      "name": "addAddressesToWhitelist",
      "outputs": [
        {
          "name": "success",
          "type": "bool"
        }
      ],
      "payable": false,
      "stateMutability": "nonpayable",
      "type": "function"
    },
    {
      "constant": true,
      "inputs": [],
      "name": "weightedVPSAddress",
      "outputs": [
        {
          "name": "",
          "type": "address"
        }
      ],
      "payable": false,
      "stateMutability": "view",
      "type": "function"
    },
    {
      "constant": false,
      "inputs": [
        {
          "name": "_newOwner",
          "type": "address"
        }
      ],
      "name": "transferOwnership",
      "outputs": [],
      "payable": false,
      "stateMutability": "nonpayable",
      "type": "function"
    },
    {
      "inputs": [
        {
          "name": "_registrationFee",
          "type": "uint256"
        },
        {
          "name": "_issueSheetAddr",
          "type": "address"
        },
        {
          "name": "_weightedVPS",
          "type": "address"
        },
        {
          "name": "_equalVPS",
          "type": "address"
        }
      ],
      "payable": false,
      "stateMutability": "nonpayable",
      "type": "constructor"
    },
    {
      "anonymous": false,
      "inputs": [
        {
          "indexed": false,
          "name": "_owner",
          "type": "address"
        },
        {
          "indexed": false,
          "name": "_balance",
          "type": "uint256"
        }
      ],
      "name": "Withdraw",
      "type": "event"
    },
    {
      "anonymous": false,
      "inputs": [
        {
          "indexed": false,
          "name": "_issue",
          "type": "address"
        },
        {
          "indexed": false,
          "name": "_fee",
          "type": "uint256"
        }
      ],
      "name": "Register",
      "type": "event"
    },
    {
      "anonymous": false,
      "inputs": [],
      "name": "Pause",
      "type": "event"
    },
    {
      "anonymous": false,
      "inputs": [],
      "name": "Unpause",
      "type": "event"
    },
    {
      "anonymous": false,
      "inputs": [
        {
          "indexed": false,
          "name": "addr",
          "type": "address"
        }
      ],
      "name": "WhitelistedAddressAdded",
      "type": "event"
    },
    {
      "anonymous": false,
      "inputs": [
        {
          "indexed": false,
          "name": "addr",
          "type": "address"
        }
      ],
      "name": "WhitelistedAddressRemoved",
      "type": "event"
    },
    {
      "constant": false,
      "inputs": [
        {
          "name": "_addr",
          "type": "address"
        }
      ],
      "name": "setWeightedVPSAddress",
      "outputs": [],
      "payable": false,
      "stateMutability": "nonpayable",
      "type": "function"
    },
    {
      "constant": false,
      "inputs": [
        {
          "name": "_addr",
          "type": "address"
        }
      ],
      "name": "setEqualVPSAddress",
      "outputs": [],
      "payable": false,
      "stateMutability": "nonpayable",
      "type": "function"
    },
    {
      "constant": true,
      "inputs": [],
      "name": "issueSheet",
      "outputs": [
        {
          "name": "",
          "type": "address"
        }
      ],
      "payable": false,
      "stateMutability": "view",
      "type": "function"
    },
    {
      "constant": false,
      "inputs": [
        {
          "name": "_issueSheetAddr",
          "type": "address"
        }
      ],
      "name": "setIssueSheet",
      "outputs": [],
      "payable": false,
      "stateMutability": "nonpayable",
      "type": "function"
    },
    {
      "constant": false,
      "inputs": [
        {
          "name": "_fee",
          "type": "uint256"
        }
      ],
      "name": "setRegistrationFee",
      "outputs": [],
      "payable": false,
      "stateMutability": "nonpayable",
      "type": "function"
    },
    {
      "constant": false,
      "inputs": [
        {
          "name": "_metaURI",
          "type": "string"
        },
        {
          "name": "_metaHash",
          "type": "bytes32"
        },
        {
          "name": "_weighted",
          "type": "bool"
        },
        {
          "name": "_optionCount",
          "type": "uint256"
        },
        {
          "name": "_canRevote",
          "type": "bool"
        },
        {
          "name": "_maxNumOfChoices",
          "type": "uint8"
        }
      ],
      "name": "register",
      "outputs": [
        {
          "name": "",
          "type": "bool"
        }
      ],
      "payable": true,
      "stateMutability": "payable",
      "type": "function"
    },
    {
      "constant": false,
      "inputs": [],
      "name": "withdraw",
      "outputs": [],
      "payable": true,
      "stateMutability": "payable",
      "type": "function"
    }
  ],
  "bytecode": "0x60806040526000600260006101000a81548160ff02191690831515021790555034801561002b57600080fd5b50604051608080613a9f83398101806040528101908080519060200190929190805190602001909291908051906020019092919080519060200190929190505050336000806101000a81548173ffffffffffffffffffffffffffffffffffffffff021916908373ffffffffffffffffffffffffffffffffffffffff1602179055508360038190555082600460006101000a81548173ffffffffffffffffffffffffffffffffffffffff021916908373ffffffffffffffffffffffffffffffffffffffff16021790555081600560006101000a81548173ffffffffffffffffffffffffffffffffffffffff021916908373ffffffffffffffffffffffffffffffffffffffff16021790555080600660006101000a81548173ffffffffffffffffffffffffffffffffffffffff021916908373ffffffffffffffffffffffffffffffffffffffff16021790555050505050613916806101896000396000f30060806040526004361062000133576000357c0100000000000000000000000000000000000000000000000000000000900463ffffffff168063011042ae146200013857806314c44e09146200019257806324953eaa14620001c0578063286dd3f514620002415780632f54bf6e146200029f5780633ccfd60b14620002fd5780633f4ba83a14620003095780635c975abb14620003235780637b9417c814620003555780638456cb5914620003b35780638d8d8dab14620003cd5780638da5cb5b1462000413578063942daef0146200046d5780639b19251a14620004b3578063a7e978cc1462000511578063c320c7271462000557578063d89e17be1462000587578063e2ec6ec314620005e1578063e750e3f01462000662578063e7b3fa161462000715578063f2fde38b146200076f575b600080fd5b3480156200014557600080fd5b5062000150620007b5565b604051808273ffffffffffffffffffffffffffffffffffffffff1673ffffffffffffffffffffffffffffffffffffffff16815260200191505060405180910390f35b3480156200019f57600080fd5b50620001aa620007db565b6040518082815260200191505060405180910390f35b348015620001cd57600080fd5b506200022760048036038101908080359060200190820180359060200190808060200260200160405190810160405280939291908181526020018383602002808284378201915050505050509192919290505050620007e1565b604051808215151515815260200191505060405180910390f35b3480156200024e57600080fd5b5062000285600480360381019080803573ffffffffffffffffffffffffffffffffffffffff1690602001909291905050506200084c565b604051808215151515815260200191505060405180910390f35b348015620002ac57600080fd5b50620002e3600480360381019080803573ffffffffffffffffffffffffffffffffffffffff1690602001909291905050506200097d565b604051808215151515815260200191505060405180910390f35b62000307620009d6565b005b3480156200031657600080fd5b506200032162000b01565b005b3480156200033057600080fd5b506200033b62000b7d565b604051808215151515815260200191505060405180910390f35b3480156200036257600080fd5b5062000399600480360381019080803573ffffffffffffffffffffffffffffffffffffffff16906020019092919050505062000b90565b604051808215151515815260200191505060405180910390f35b348015620003c057600080fd5b50620003cb62000cc1565b005b348015620003da57600080fd5b5062000411600480360381019080803573ffffffffffffffffffffffffffffffffffffffff16906020019092919050505062000d3e565b005b3480156200042057600080fd5b506200042b62000ddb565b604051808273ffffffffffffffffffffffffffffffffffffffff1673ffffffffffffffffffffffffffffffffffffffff16815260200191505060405180910390f35b3480156200047a57600080fd5b50620004b1600480360381019080803573ffffffffffffffffffffffffffffffffffffffff16906020019092919050505062000e00565b005b348015620004c057600080fd5b50620004f7600480360381019080803573ffffffffffffffffffffffffffffffffffffffff16906020019092919050505062000e9d565b604051808215151515815260200191505060405180910390f35b3480156200051e57600080fd5b5062000555600480360381019080803573ffffffffffffffffffffffffffffffffffffffff16906020019092919050505062000ebd565b005b3480156200056457600080fd5b50620005856004803603810190808035906020019092919050505062000f5a565b005b3480156200059457600080fd5b506200059f62000fbd565b604051808273ffffffffffffffffffffffffffffffffffffffff1673ffffffffffffffffffffffffffffffffffffffff16815260200191505060405180910390f35b348015620005ee57600080fd5b50620006486004803603810190808035906020019082018035906020019080806020026020016040519081016040528093929190818152602001838360200280828437820191505050505050919291929050505062000fe7565b604051808215151515815260200191505060405180910390f35b620006fb600480360381019080803590602001908201803590602001908080601f0160208091040260200160405190810160405280939291908181526020018383808284378201915050505050509192919290803560001916906020019092919080351515906020019092919080359060200190929190803515159060200190929190803560ff16906020019092919050505062001052565b604051808215151515815260200191505060405180910390f35b3480156200072257600080fd5b506200072d62001438565b604051808273ffffffffffffffffffffffffffffffffffffffff1673ffffffffffffffffffffffffffffffffffffffff16815260200191505060405180910390f35b3480156200077c57600080fd5b50620007b3600480360381019080803573ffffffffffffffffffffffffffffffffffffffff1690602001909291905050506200145e565b005b600660009054906101000a900473ffffffffffffffffffffffffffffffffffffffff1681565b60035481565b600080620007ef336200097d565b1515620007fb57600080fd5b600090505b825181101562000846576200082d83828151811015156200081d57fe5b906020019060200201516200084c565b156200083857600191505b808060010191505062000800565b50919050565b600062000859336200097d565b15156200086557600080fd5b600160008373ffffffffffffffffffffffffffffffffffffffff1673ffffffffffffffffffffffffffffffffffffffff16815260200190815260200160002060009054906101000a900460ff161562000978576000600160008473ffffffffffffffffffffffffffffffffffffffff1673ffffffffffffffffffffffffffffffffffffffff16815260200190815260200160002060006101000a81548160ff0219169083151502179055507ff1abf01a1043b7c244d128e8595cf0c1d10743b022b03a02dffd8ca3bf729f5a82604051808273ffffffffffffffffffffffffffffffffffffffff1673ffffffffffffffffffffffffffffffffffffffff16815260200191505060405180910390a1600190505b919050565b60008173ffffffffffffffffffffffffffffffffffffffff166000809054906101000a900473ffffffffffffffffffffffffffffffffffffffff1673ffffffffffffffffffffffffffffffffffffffff16149050919050565b6000620009e3336200097d565b1515620009ef57600080fd5b3073ffffffffffffffffffffffffffffffffffffffff163190506000809054906101000a900473ffffffffffffffffffffffffffffffffffffffff1673ffffffffffffffffffffffffffffffffffffffff166108fc829081150290604051600060405180830381858888f1935050505015801562000a71573d6000803e3d6000fd5b507f884edad9ce6fa2440d8a54cc123490eb96d2768479d49ff9c7366125a94243646000809054906101000a900473ffffffffffffffffffffffffffffffffffffffff1682604051808373ffffffffffffffffffffffffffffffffffffffff1673ffffffffffffffffffffffffffffffffffffffff1681526020018281526020019250505060405180910390a150565b62000b0c336200097d565b151562000b1857600080fd5b600260009054906101000a900460ff16151562000b3457600080fd5b6000600260006101000a81548160ff0219169083151502179055507f7805862f689e2f13df9f062ff482ad3ad112aca9e0847911ed832e158c525b3360405160405180910390a1565b600260009054906101000a900460ff1681565b600062000b9d336200097d565b151562000ba957600080fd5b600160008373ffffffffffffffffffffffffffffffffffffffff1673ffffffffffffffffffffffffffffffffffffffff16815260200190815260200160002060009054906101000a900460ff16151562000cbc5760018060008473ffffffffffffffffffffffffffffffffffffffff1673ffffffffffffffffffffffffffffffffffffffff16815260200190815260200160002060006101000a81548160ff0219169083151502179055507fd1bba68c128cc3f427e5831b3c6f99f480b6efa6b9e80c757768f6124158cc3f82604051808273ffffffffffffffffffffffffffffffffffffffff1673ffffffffffffffffffffffffffffffffffffffff16815260200191505060405180910390a1600190505b919050565b62000ccc336200097d565b151562000cd857600080fd5b600260009054906101000a900460ff1615151562000cf557600080fd5b6001600260006101000a81548160ff0219169083151502179055507f6985a02210a168e66602d3235cb6db0e70f92b3ba4d376a33c0f3d9434bff62560405160405180910390a1565b600160003373ffffffffffffffffffffffffffffffffffffffff1673ffffffffffffffffffffffffffffffffffffffff16815260200190815260200160002060009054906101000a900460ff16151562000d9757600080fd5b80600560006101000a81548173ffffffffffffffffffffffffffffffffffffffff021916908373ffffffffffffffffffffffffffffffffffffffff16021790555050565b6000809054906101000a900473ffffffffffffffffffffffffffffffffffffffff1681565b600160003373ffffffffffffffffffffffffffffffffffffffff1673ffffffffffffffffffffffffffffffffffffffff16815260200190815260200160002060009054906101000a900460ff16151562000e5957600080fd5b80600660006101000a81548173ffffffffffffffffffffffffffffffffffffffff021916908373ffffffffffffffffffffffffffffffffffffffff16021790555050565b60016020528060005260406000206000915054906101000a900460ff1681565b600160003373ffffffffffffffffffffffffffffffffffffffff1673ffffffffffffffffffffffffffffffffffffffff16815260200190815260200160002060009054906101000a900460ff16151562000f1657600080fd5b80600460006101000a81548173ffffffffffffffffffffffffffffffffffffffff021916908373ffffffffffffffffffffffffffffffffffffffff16021790555050565b600160003373ffffffffffffffffffffffffffffffffffffffff1673ffffffffffffffffffffffffffffffffffffffff16815260200190815260200160002060009054906101000a900460ff16151562000fb357600080fd5b8060038190555050565b6000600460009054906101000a900473ffffffffffffffffffffffffffffffffffffffff16905090565b60008062000ff5336200097d565b15156200100157600080fd5b600090505b82518110156200104c576200103383828151811015156200102357fe5b9060200190602002015162000b90565b156200103e57600191505b808060010191505062001006565b50919050565b6000806000600260009054906101000a900460ff161515156200107457600080fd5b60035434101515156200108657600080fd5b600660009054906101000a900473ffffffffffffffffffffffffffffffffffffffff1691508615620010d857600560009054906101000a900473ffffffffffffffffffffffffffffffffffffffff1691505b888883888888620010e8620014b8565b808060200187600019166000191681526020018673ffffffffffffffffffffffffffffffffffffffff1673ffffffffffffffffffffffffffffffffffffffff168152602001858152602001841515151581526020018360ff1660ff168152602001828103825288818151815260200191508051906020019080838360005b838110156200118357808201518184015260208101905062001166565b50505050905090810190601f168015620011b15780820380516001836020036101000a031916815260200191505b50975050505050505050604051809103906000f080158015620011d8573d6000803e3d6000fd5b509050600460009054906101000a900473ffffffffffffffffffffffffffffffffffffffff1673ffffffffffffffffffffffffffffffffffffffff1663b2371b64826040518263ffffffff167c0100000000000000000000000000000000000000000000000000000000028152600401808273ffffffffffffffffffffffffffffffffffffffff1673ffffffffffffffffffffffffffffffffffffffff168152602001915050602060405180830381600087803b1580156200129957600080fd5b505af1158015620012ae573d6000803e3d6000fd5b505050506040513d6020811015620012c557600080fd5b81019080805190602001909291905050501562001427578073ffffffffffffffffffffffffffffffffffffffff1663f2fde38b600460009054906101000a900473ffffffffffffffffffffffffffffffffffffffff166040518263ffffffff167c0100000000000000000000000000000000000000000000000000000000028152600401808273ffffffffffffffffffffffffffffffffffffffff1673ffffffffffffffffffffffffffffffffffffffff168152602001915050600060405180830381600087803b1580156200139a57600080fd5b505af1158015620013af573d6000803e3d6000fd5b505050507e7dc6ab80cc84c043b7b8d4fcafc802187470087f7ea7fccd2e17aecd0256a18134604051808373ffffffffffffffffffffffffffffffffffffffff1673ffffffffffffffffffffffffffffffffffffffff1681526020018281526020019250505060405180910390a1600192506200142c565b600092505b50509695505050505050565b600560009054906101000a900473ffffffffffffffffffffffffffffffffffffffff1681565b62001469336200097d565b15156200147557600080fd5b806000806101000a81548173ffffffffffffffffffffffffffffffffffffffff021916908373ffffffffffffffffffffffffffffffffffffffff16021790555050565b60405161242180620014ca83390190560060806040523480156200001157600080fd5b506040516200242138038062002421833981018060405281019080805182019291906020018051906020019092919080519060200190929190805190602001909291908051906020019092919080519060200190929190505050336000806101000a81548173ffffffffffffffffffffffffffffffffffffffff021916908373ffffffffffffffffffffffffffffffffffffffff1602179055508560019080519060200190620000c392919062000188565b50846002816000191690555083600360006101000a81548173ffffffffffffffffffffffffffffffffffffffff021916908373ffffffffffffffffffffffffffffffffffffffff1602179055508260088190555081600660016101000a81548160ff02191690831515021790555060008160ff1614156200014c57600160078190555062000157565b8060ff166007819055505b6000600660006101000a81548160ff021916908360038111156200017757fe5b021790555050505050505062000237565b828054600181600116156101000203166002900490600052602060002090601f016020900481019282601f10620001cb57805160ff1916838001178555620001fc565b82800160010185558215620001fc579182015b82811115620001fb578251825591602001919060010190620001de565b5b5090506200020b91906200020f565b5090565b6200023491905b808211156200023057600081600090555060010162000216565b5090565b90565b6121da80620002476000396000f300608060405260043610610196576000357c0100000000000000000000000000000000000000000000000000000000900463ffffffff1680630121b93f1461019b578063200d2ed2146101e057806322f3e2d41461021957806325eac7941461024857806327cf3844146102735780632f54bf6e146102ce5780633f4ba83a146103295780634e69d5601461034057806356702d6e1461036f5780635c40f6f4146103c65780636db704281461040d5780637284e4161461048b57806379ed13a71461051b5780638456cb59146105875780638da5cb5b1461059e57806392ae7b96146105f557806398f0b34c146106245780639fde4ef81461064f578063a4fd6f561461067a578063b187bd26146106a9578063b54c71eb146106d8578063be9a655514610719578063d999f13214610730578063dc012626146107d6578063dd4bc1011461082d578063e0f6e29914610884578063e32fe90b1461091c578063efbe1c1c14610947578063f2fde38b1461095e578063f5ec242f146109a1578063fba00cbd14610a3b578063fe75154b14610ac7575b600080fd5b3480156101a757600080fd5b506101c660048036038101908080359060200190929190505050610af6565b604051808215151515815260200191505060405180910390f35b3480156101ec57600080fd5b506101f5610b64565b6040518082600381111561020557fe5b60ff16815260200191505060405180910390f35b34801561022557600080fd5b5061022e610b77565b604051808215151515815260200191505060405180910390f35b34801561025457600080fd5b5061025d610ba7565b6040518082815260200191505060405180910390f35b34801561027f57600080fd5b506102b4600480360381019080803573ffffffffffffffffffffffffffffffffffffffff169060200190929190505050610bad565b604051808215151515815260200191505060405180910390f35b3480156102da57600080fd5b5061030f600480360381019080803573ffffffffffffffffffffffffffffffffffffffff169060200190929190505050610bd8565b604051808215151515815260200191505060405180910390f35b34801561033557600080fd5b5061033e610c31565b005b34801561034c57600080fd5b50610355610c7e565b604051808215151515815260200191505060405180910390f35b34801561037b57600080fd5b50610384610c8d565b604051808273ffffffffffffffffffffffffffffffffffffffff1673ffffffffffffffffffffffffffffffffffffffff16815260200191505060405180910390f35b3480156103d257600080fd5b506103f3600480360381019080803515159060200190929190505050610cb3565b604051808215151515815260200191505060405180910390f35b34801561041957600080fd5b5061047160048036038101908080359060200190820180359060200190808060200260200160405190810160405280939291908181526020018383602002808284378201915050505050509192919290505050610dae565b604051808215151515815260200191505060405180910390f35b34801561049757600080fd5b506104a0610dc8565b6040518080602001828103825283818151815260200191508051906020019080838360005b838110156104e05780820151818401526020810190506104c5565b50505050905090810190601f16801561050d5780820380516001836020036101000a031916815260200191505b509250505060405180910390f35b34801561052757600080fd5b50610530610e05565b6040518080602001828103825283818151815260200191508051906020019060200280838360005b83811015610573578082015181840152602081019050610558565b505050509050019250505060405180910390f35b34801561059357600080fd5b5061059c610e80565b005b3480156105aa57600080fd5b506105b3610ecd565b604051808273ffffffffffffffffffffffffffffffffffffffff1673ffffffffffffffffffffffffffffffffffffffff16815260200191505060405180910390f35b34801561060157600080fd5b5061060a610ef2565b604051808215151515815260200191505060405180910390f35b34801561063057600080fd5b50610639610f05565b6040518082815260200191505060405180910390f35b34801561065b57600080fd5b50610664610f12565b6040518082815260200191505060405180910390f35b34801561068657600080fd5b5061068f611229565b604051808215151515815260200191505060405180910390f35b3480156106b557600080fd5b506106be611258565b604051808215151515815260200191505060405180910390f35b3480156106e457600080fd5b5061070360048036038101908080359060200190929190505050611288565b6040518082815260200191505060405180910390f35b34801561072557600080fd5b5061072e6114cf565b005b34801561073c57600080fd5b5061075b600480360381019080803590602001909291905050506114f0565b6040518080602001828103825283818151815260200191508051906020019080838360005b8381101561079b578082015181840152602081019050610780565b50505050905090810190601f1680156107c85780820380516001836020036101000a031916815260200191505b509250505060405180910390f35b3480156107e257600080fd5b50610817600480360381019080803573ffffffffffffffffffffffffffffffffffffffff16906020019092919050505061154c565b6040518082815260200191505060405180910390f35b34801561083957600080fd5b5061086e600480360381019080803573ffffffffffffffffffffffffffffffffffffffff16906020019092919050505061165d565b6040518082815260200191505060405180910390f35b34801561089057600080fd5b506108c5600480360381019080803573ffffffffffffffffffffffffffffffffffffffff16906020019092919050505061175e565b6040518080602001828103825283818151815260200191508051906020019060200280838360005b838110156109085780820151818401526020810190506108ed565b505050509050019250505060405180910390f35b34801561092857600080fd5b50610931611905565b6040518082815260200191505060405180910390f35b34801561095357600080fd5b5061095c61190b565b005b34801561096a57600080fd5b5061099f600480360381019080803573ffffffffffffffffffffffffffffffffffffffff16906020019092919050505061192c565b005b3480156109ad57600080fd5b506109e460048036038101908080359060200190929190803590602001908201803590602001919091929391929390505050611983565b6040518080602001828103825283818151815260200191508051906020019060200280838360005b83811015610a27578082015181840152602081019050610a0c565b505050509050019250505060405180910390f35b348015610a4757600080fd5b50610a706004803603810190808035906020019092919080359060200190929190505050611b4a565b6040518080602001828103825283818151815260200191508051906020019060200280838360005b83811015610ab3578082015181840152602081019050610a98565b505050509050019250505060405180910390f35b348015610ad357600080fd5b50610adc611c61565b604051808215151515815260200191505060405180910390f35b60006060610b02611c90565b6001604051908082528060200260200182016040528015610b325781602001602082028038833980820191505090505b50905082816000815181101515610b4557fe5b9060200190602002018181525050610b5c81611e17565b915050919050565b600660009054906101000a900460ff1681565b600060016003811115610b8657fe5b600660009054906101000a900460ff166003811115610ba157fe5b14905090565b60075481565b60046020528060005260406000206000915090508060010160009054906101000a900460ff16905081565b60008173ffffffffffffffffffffffffffffffffffffffff166000809054906101000a900473ffffffffffffffffffffffffffffffffffffffff1673ffffffffffffffffffffffffffffffffffffffff16149050919050565b610c3a33610bd8565b1515610c4557600080fd5b610c4d611258565b1515610c5857600080fd5b6001600660006101000a81548160ff02191690836003811115610c7757fe5b0217905550565b6000610c88610b77565b905090565b600360009054906101000a900473ffffffffffffffffffffffffffffffffffffffff1681565b6000610cbe33610bd8565b1515610cc957600080fd5b8115610d1c57610cd7611c61565b1580610ce557506000600854145b15610cf35760009050610da9565b6001600660006101000a81548160ff02191690836003811115610d1257fe5b0217905550610d69565b610d24610b77565b158015610d365750610d34611258565b155b15610d445760009050610da9565b6003600660006101000a81548160ff02191690836003811115610d6357fe5b02179055505b7fb32dd91638884ac1012ac9d4a0c8cce44d78ecd091818a79ef9210670f6647f782604051808215151515815260200191505060405180910390a1600190505b919050565b6000610db8611c90565b610dc182611e17565b9050919050565b60606040805190810160405280600e81526020017f4e6f74204170706c696361626c65000000000000000000000000000000000000815250905090565b60606000600854604051908082528060200260200182016040528015610e3a5781602001602082028038833980820191505090505b509150600090505b600854811015610e7957600181018282815181101515610e5e57fe5b90602001906020020181815250508080600101915050610e42565b8191505090565b610e8933610bd8565b1515610e9457600080fd5b610e9c610b77565b1515610ea757600080fd5b6002600660006101000a81548160ff02191690836003811115610ec657fe5b0217905550565b6000809054906101000a900473ffffffffffffffffffffffffffffffffffffffff1681565b600660019054906101000a900460ff1681565b6000600580549050905090565b60006060600080600080600854604051908082528060200260200182016040528015610f4d5781602001602082028038833980820191505090505b509450600093505b6005805490508410156111b757600360009054906101000a900473ffffffffffffffffffffffffffffffffffffffff1673ffffffffffffffffffffffffffffffffffffffff16631ac84690600586815481101515610faf57fe5b9060005260206000200160009054906101000a900473ffffffffffffffffffffffffffffffffffffffff166040518263ffffffff167c0100000000000000000000000000000000000000000000000000000000028152600401808273ffffffffffffffffffffffffffffffffffffffff1673ffffffffffffffffffffffffffffffffffffffff168152602001915050602060405180830381600087803b15801561105857600080fd5b505af115801561106c573d6000803e3d6000fd5b505050506040513d602081101561108257600080fd5b810190808051906020019092919050505092506000831415156111aa57600460006005868154811015156110b257fe5b9060005260206000200160009054906101000a900473ffffffffffffffffffffffffffffffffffffffff1673ffffffffffffffffffffffffffffffffffffffff1673ffffffffffffffffffffffffffffffffffffffff1681526020019081526020016000209150600090505b6008548110156111a957816000018181548110151561113957fe5b90600052602060002090602091828204019190069054906101000a900460ff161561119c5761117f858281518110151561116f57fe5b90602001906020020151846120ba565b858281518110151561118d57fe5b90602001906020020181815250505b808060010191505061111e565b5b8380600101945050610f55565b600093505b60085484101561121e576000861480611205575084848151811015156111de57fe5b9060200190602002015185600188038151811015156111f957fe5b90602001906020020151105b15611211576001840195505b83806001019450506111bc565b859550505050505090565b600060038081111561123757fe5b600660009054906101000a900460ff16600381111561125257fe5b14905090565b60006002600381111561126757fe5b600660009054906101000a900460ff16600381111561128257fe5b14905090565b6000806000808411801561129e57506008548411155b15156112a957600080fd5b600091505b6005805490508210156114c557600360009054906101000a900473ffffffffffffffffffffffffffffffffffffffff1673ffffffffffffffffffffffffffffffffffffffff16631ac8469060058481548110151561130857fe5b9060005260206000200160009054906101000a900473ffffffffffffffffffffffffffffffffffffffff166040518263ffffffff167c0100000000000000000000000000000000000000000000000000000000028152600401808273ffffffffffffffffffffffffffffffffffffffff1673ffffffffffffffffffffffffffffffffffffffff168152602001915050602060405180830381600087803b1580156113b157600080fd5b505af11580156113c5573d6000803e3d6000fd5b505050506040513d60208110156113db57600080fd5b81019080805190602001909291905050509050600081141580156114a657506004600060058481548110151561140d57fe5b9060005260206000200160009054906101000a900473ffffffffffffffffffffffffffffffffffffffff1673ffffffffffffffffffffffffffffffffffffffff1673ffffffffffffffffffffffffffffffffffffffff1681526020019081526020016000206000016001850381548110151561148557fe5b90600052602060002090602091828204019190069054906101000a900460ff165b156114b8576114b583826120ba565b92505b81806001019250506112ae565b8292505050919050565b6114d833610bd8565b15156114e357600080fd5b6114ed6001610cb3565b50565b606060008211801561150457506008548211155b151561150f57600080fd5b6040805190810160405280600e81526020017f4e6f74204170706c696361626c650000000000000000000000000000000000008152509050919050565b60008060016007541115151561156157600080fd5b600460008473ffffffffffffffffffffffffffffffffffffffff1673ffffffffffffffffffffffffffffffffffffffff16815260200190815260200160002060010160009054906101000a900460ff161561165257600090505b60085481101561165157600460008473ffffffffffffffffffffffffffffffffffffffff1673ffffffffffffffffffffffffffffffffffffffff1681526020019081526020016000206000018181548110151561161457fe5b90600052602060002090602091828204019190069054906101000a900460ff161561164457600181019150611657565b80806001019150506115bb565b5b600091505b50919050565b6000600360009054906101000a900473ffffffffffffffffffffffffffffffffffffffff1673ffffffffffffffffffffffffffffffffffffffff16631ac84690836040518263ffffffff167c0100000000000000000000000000000000000000000000000000000000028152600401808273ffffffffffffffffffffffffffffffffffffffff1673ffffffffffffffffffffffffffffffffffffffff168152602001915050602060405180830381600087803b15801561171c57600080fd5b505af1158015611730573d6000803e3d6000fd5b505050506040513d602081101561174657600080fd5b81019080805190602001909291905050509050919050565b6060600080600080925060009150600092505b60085483101561180557600460008673ffffffffffffffffffffffffffffffffffffffff1673ffffffffffffffffffffffffffffffffffffffff168152602001908152602001600020600001838154811015156117ca57fe5b90600052602060002090602091828204019190069054906101000a900460ff16156117f85781806001019250505b8280600101935050611771565b6000821415156118fd5760009050816040519080825280602002602001820160405280156118425781602001602082028038833980820191505090505b509350600092505b6008548310156118fc57600460008673ffffffffffffffffffffffffffffffffffffffff1673ffffffffffffffffffffffffffffffffffffffff168152602001908152602001600020600001838154811015156118a357fe5b90600052602060002090602091828204019190069054906101000a900460ff16156118ef576001830184828060010193508151811015156118e057fe5b90602001906020020181815250505b828060010193505061184a565b5b505050919050565b60085481565b61191433610bd8565b151561191f57600080fd5b6119296000610cb3565b50565b61193533610bd8565b151561194057600080fd5b806000806101000a81548173ffffffffffffffffffffffffffffffffffffffff021916908373ffffffffffffffffffffffffffffffffffffffff16021790555050565b60606000808511801561199857506008548511155b80156119a75750600084849050115b15156119b257600080fd5b838390506040519080825280602002602001820160405280156119e45781602001602082028038833980820191505090505b509150600090505b83839050811015611b4257600460008585848181101515611a0957fe5b9050602002013573ffffffffffffffffffffffffffffffffffffffff1673ffffffffffffffffffffffffffffffffffffffff1673ffffffffffffffffffffffffffffffffffffffff16815260200190815260200160002060010160009054906101000a900460ff1615611b3557600460008585848181101515611a8857fe5b9050602002013573ffffffffffffffffffffffffffffffffffffffff1673ffffffffffffffffffffffffffffffffffffffff1673ffffffffffffffffffffffffffffffffffffffff16815260200190815260200160002060000160018603815481101515611af257fe5b90600052602060002090602091828204019190069054906101000a900460ff168282815181101515611b2057fe5b90602001906020020190151590811515815250505b80806001019150506119ec565b509392505050565b606060008060058054905085101580611b635750600084145b15611b7057829250611c59565b8460058054905003915081841015611b86578391505b81604051908082528060200260200182016040528015611bb55781602001602082028038833980820191505090505b509250600090505b81811015611c58576005818601815481101515611bd657fe5b9060005260206000200160009054906101000a900473ffffffffffffffffffffffffffffffffffffffff168382815181101515611c0f57fe5b9060200190602002019073ffffffffffffffffffffffffffffffffffffffff16908173ffffffffffffffffffffffffffffffffffffffff16815250508080600101915050611bbd565b5b505092915050565b6000806003811115611c6f57fe5b600660009054906101000a900460ff166003811115611c8a57fe5b14905090565b600460003373ffffffffffffffffffffffffffffffffffffffff1673ffffffffffffffffffffffffffffffffffffffff16815260200190815260200160002060010160009054906101000a900460ff161515611e155760053390806001815401808255809150509060018203906000526020600020016000909192909190916101000a81548173ffffffffffffffffffffffffffffffffffffffff021916908373ffffffffffffffffffffffffffffffffffffffff160217905550506040805190810160405280600854604051908082528060200260200182016040528015611d885781602001602082028038833980820191505090505b50815260200160011515815250600460003373ffffffffffffffffffffffffffffffffffffffff1673ffffffffffffffffffffffffffffffffffffffff1681526020019081526020016000206000820151816000019080519060200190611df09291906120d8565b5060208201518160010160006101000a81548160ff0219169083151502179055509050505b565b600080600080611e25610b77565b1515611e3057600080fd5b600660019054906101000a900460ff1615611ee057600092505b600854831015611edb576000600460003373ffffffffffffffffffffffffffffffffffffffff1673ffffffffffffffffffffffffffffffffffffffff16815260200190815260200160002060000184815481101515611ea557fe5b90600052602060002090602091828204019190066101000a81548160ff0219169083151502179055508280600101935050611e4a565b611f90565b60009150600092505b600854831015611f7d57600460003373ffffffffffffffffffffffffffffffffffffffff1673ffffffffffffffffffffffffffffffffffffffff16815260200190815260200160002060000183815481101515611f4257fe5b90600052602060002090602091828204019190069054906101000a900460ff1615611f705781806001019250505b8280600101935050611ee9565b6000821115611f8f57600093506120b2565b5b600092505b84518310156120ad578483815181101515611fac57fe5b906020019060200201519050600081118015611fca57506008548111155b1515611fd557600080fd5b6001600460003373ffffffffffffffffffffffffffffffffffffffff1673ffffffffffffffffffffffffffffffffffffffff1681526020019081526020016000206000016001830381548110151561202957fe5b90600052602060002090602091828204019190066101000a81548160ff0219169083151502179055503373ffffffffffffffffffffffffffffffffffffffff167fa9851bf7c64060a1bb8c8c6e89a10c1fb3898337da61ecd2db3ca015ad32ebe0826040518082815260200191505060405180910390a28280600101935050611f95565b600193505b505050919050565b60008082840190508381101515156120ce57fe5b8091505092915050565b82805482825590600052602060002090601f0160209004810192821561216d5791602002820160005b8382111561213e57835183826101000a81548160ff0219169083151502179055509260200192600101602081600001049283019260010302612101565b801561216b5782816101000a81549060ff021916905560010160208160000104928301926001030261213e565b505b50905061217a919061217e565b5090565b6121ab91905b808211156121a757600081816101000a81549060ff021916905550600101612184565b5090565b905600a165627a7a72305820e7aa3e865c764d84a0ee143d79f617b7cdbca6cb118ccee1f27a2dcd53f4b0760029a165627a7a72305820336150a5a5fcfa2b1d96e32e080dbb5e9cbb258b438ebe1e9bfbc0a495e05e690029",
  "source": "pragma solidity ^0.4.24;\n\n// This contract is the main entrance for IoTeX's governance framework. By invoking\n// `register`, anyone can make a proposal which will be approved by the commitee before\n// it becomes available to voters.\n\nimport \"./library/IssueSheet.sol\";\nimport \"./library/Ownable.sol\";\nimport \"./library/Pausable.sol\";\nimport \"./library/Whitelist.sol\";\nimport \"./IssueProposal.sol\";\nimport \"./SingleIssue.sol\";\nimport \"./OffchainIssue.sol\";\n\ncontract OffChainIssueRegistration is Ownable, Whitelist, Pausable  {\n    event Withdraw(address _owner, uint256 _balance);\n    event Register(address _issue, uint256 _fee);\n\n    uint256 public registrationFee;\n    IssueSheet sheet;\n\n    address public weightedVPSAddress;\n    address public equalVPSAddress;\n\n    constructor(uint256 _registrationFee, address _issueSheetAddr, address _weightedVPS, address _equalVPS) public {\n        registrationFee = _registrationFee;\n        sheet = IssueSheet(_issueSheetAddr);\n        weightedVPSAddress = _weightedVPS;\n        equalVPSAddress = _equalVPS;\n    }\n\n    function setWeightedVPSAddress(address _addr) public onlyWhitelisted {\n        weightedVPSAddress = _addr;\n    }\n\n    function setEqualVPSAddress(address _addr) public onlyWhitelisted {\n        equalVPSAddress = _addr;\n    }\n\n    function issueSheet() public view returns(address) {\n        return sheet;\n    }\n\n    function setIssueSheet(address _issueSheetAddr) public onlyWhitelisted {\n        sheet = IssueSheet(_issueSheetAddr);\n    }\n\n    function setRegistrationFee(uint256 _fee) public onlyWhitelisted {\n        registrationFee = _fee;\n    }\n\n    function register(\n        string _metaURI,\n        bytes32 _metaHash,\n        bool _weighted,\n        uint _optionCount,\n        bool _canRevote,\n        uint8 _maxNumOfChoices) public whenNotPaused payable returns (bool) {\n        require(msg.value >= registrationFee);\n        address vpsAddress = equalVPSAddress;\n        if (_weighted) {\n            vpsAddress = weightedVPSAddress;\n        }\n        OffchainIssue issue = new OffchainIssue (\n            _metaURI,\n            _metaHash,\n            vpsAddress,\n            _optionCount,\n            _canRevote,\n            _maxNumOfChoices);\n        if (sheet.addIssue(address(issue))) {\n            issue.transferOwnership(address(sheet));\n            emit Register(address(issue), msg.value);\n            return true;\n        }\n        return false;\n    }\n\n    function withdraw() public onlyOwner payable {\n        uint256 balance = address(this).balance;\n        owner.transfer(balance);\n        emit Withdraw(owner, balance);\n    }\n}\n",
  "sourcePath": "/Users/rc7/work/src/github.com/iotexproject/iotex-governance/contracts/OffChainIssueRegistration.sol",
  "compiler": {
    "name": "solc",
    "version": "0.4.24+commit.e67f0147.Emscripten.clang"
  },
  "schemaVersion": "3.0.18",
  "updatedAt": "2020-11-07T17:26:47.590Z",
  "devdoc": {
    "methods": {
      "addAddressToWhitelist(address)": {
        "details": "add an address to the whitelist",
        "params": {
          "addr": "address"
        },
        "return": "true if the address was added to the whitelist, false if the address was already in the whitelist"
      },
      "addAddressesToWhitelist(address[])": {
        "details": "add addresses to the whitelist",
        "params": {
          "addrs": "addresses"
        },
        "return": "true if at least one address was added to the whitelist, false if all addresses were already in the whitelist"
      },
      "pause()": {
        "details": "called by the owner to pause, triggers stopped state"
      },
      "removeAddressFromWhitelist(address)": {
        "details": "remove an address from the whitelist",
        "params": {
          "addr": "address"
        },
        "return": "true if the address was removed from the whitelist, false if the address wasn't in the whitelist in the first place"
      },
      "removeAddressesFromWhitelist(address[])": {
        "details": "remove addresses from the whitelist",
        "params": {
          "addrs": "addresses"
        },
        "return": "true if at least one address was removed from the whitelist, false if all addresses weren't in the whitelist in the first place"
      },
      "unpause()": {
        "details": "called by the owner to unpause, returns to normal state"
      }
    }
  },
  "userdoc": {
    "methods": {}
  }
}