{
  "contractName": "Ownable",
  "abi": [
    {
      "constant": true,
      "inputs": [],
      "name": "owner",
      "outputs": [
        {
          "name": "",
          "type": "address"
        }
      ],
      "payable": false,
      "stateMutability": "view",
      "type": "function"
    },
    {
      "inputs": [],
      "payable": false,
      "stateMutability": "nonpayable",
      "type": "constructor"
    },
    {
      "constant": false,
      "inputs": [
        {
          "name": "_newOwner",
          "type": "address"
        }
      ],
      "name": "transferOwnership",
      "outputs": [],
      "payable": false,
      "stateMutability": "nonpayable",
      "type": "function"
    },
    {
      "constant": true,
      "inputs": [
        {
          "name": "_address",
          "type": "address"
        }
      ],
      "name": "isOwner",
      "outputs": [
        {
          "name": "",
          "type": "bool"
        }
      ],
      "payable": false,
      "stateMutability": "view",
      "type": "function"
    }
  ],
  "bytecode": "0x608060405234801561001057600080fd5b50336000806101000a81548173ffffffffffffffffffffffffffffffffffffffff021916908373ffffffffffffffffffffffffffffffffffffffff160217905550610252806100606000396000f300608060405260043610610057576000357c0100000000000000000000000000000000000000000000000000000000900463ffffffff1680632f54bf6e1461005c5780638da5cb5b146100b7578063f2fde38b1461010e575b600080fd5b34801561006857600080fd5b5061009d600480360381019080803573ffffffffffffffffffffffffffffffffffffffff169060200190929190505050610151565b604051808215151515815260200191505060405180910390f35b3480156100c357600080fd5b506100cc6101aa565b604051808273ffffffffffffffffffffffffffffffffffffffff1673ffffffffffffffffffffffffffffffffffffffff16815260200191505060405180910390f35b34801561011a57600080fd5b5061014f600480360381019080803573ffffffffffffffffffffffffffffffffffffffff1690602001909291905050506101cf565b005b60008173ffffffffffffffffffffffffffffffffffffffff166000809054906101000a900473ffffffffffffffffffffffffffffffffffffffff1673ffffffffffffffffffffffffffffffffffffffff16149050919050565b6000809054906101000a900473ffffffffffffffffffffffffffffffffffffffff1681565b6101d833610151565b15156101e357600080fd5b806000806101000a81548173ffffffffffffffffffffffffffffffffffffffff021916908373ffffffffffffffffffffffffffffffffffffffff160217905550505600a165627a7a7230582025b07a80f88c5cf6f1e90443224e0c958687332dfc3661b4b4fc54fae6b327ea0029",
  "source": "pragma solidity ^0.4.24;\n\ncontract Ownable {\n\n    address public owner;\n\n    modifier onlyOwner {\n        require(isOwner(msg.sender));\n        _;\n    }\n\n    constructor() public {\n        owner = msg.sender;\n    }\n\n    function transferOwnership(address _newOwner) public onlyOwner {\n        owner = _newOwner;\n    }\n\n    function isOwner(address _address) public view returns (bool) {\n        return owner == _address;\n    }\n}",
  "sourcePath": "/Users/rc7/work/src/github.com/iotexproject/iotex-governance/contracts/library/Ownable.sol",
  "compiler": {
    "name": "solc",
    "version": "0.4.24+commit.e67f0147.Emscripten.clang"
  },
  "schemaVersion": "3.0.18",
  "updatedAt": "2020-11-07T17:26:47.627Z",
  "devdoc": {
    "methods": {}
  },
  "userdoc": {
    "methods": {}
  }
}