{
  "contractName": "RotatableWeightedVPS",
  "abi": [
    {
      "constant": false,
      "inputs": [
        {
          "name": "addrs",
          "type": "address[]"
        }
      ],
      "name": "removeAddressesFromWhitelist",
      "outputs": [
        {
          "name": "success",
          "type": "bool"
        }
      ],
      "payable": false,
      "stateMutability": "nonpayable",
      "type": "function"
    },
    {
      "constant": false,
      "inputs": [
        {
          "name": "addr",
          "type": "address"
        }
      ],
      "name": "removeAddressFromWhitelist",
      "outputs": [
        {
          "name": "success",
          "type": "bool"
        }
      ],
      "payable": false,
      "stateMutability": "nonpayable",
      "type": "function"
    },
    {
      "constant": true,
      "inputs": [
        {
          "name": "_address",
          "type": "address"
        }
      ],
      "name": "isOwner",
      "outputs": [
        {
          "name": "",
          "type": "bool"
        }
      ],
      "payable": false,
      "stateMutability": "view",
      "type": "function"
    },
    {
      "constant": false,
      "inputs": [
        {
          "name": "addr",
          "type": "address"
        }
      ],
      "name": "addAddressToWhitelist",
      "outputs": [
        {
          "name": "success",
          "type": "bool"
        }
      ],
      "payable": false,
      "stateMutability": "nonpayable",
      "type": "function"
    },
    {
      "constant": true,
      "inputs": [],
      "name": "owner",
      "outputs": [
        {
          "name": "",
          "type": "address"
        }
      ],
      "payable": false,
      "stateMutability": "view",
      "type": "function"
    },
    {
      "constant": true,
      "inputs": [
        {
          "name": "",
          "type": "address"
        }
      ],
      "name": "whitelist",
      "outputs": [
        {
          "name": "",
          "type": "bool"
        }
      ],
      "payable": false,
      "stateMutability": "view",
      "type": "function"
    },
    {
      "constant": true,
      "inputs": [],
      "name": "activeVPSIndex",
      "outputs": [
        {
          "name": "",
          "type": "uint256"
        }
      ],
      "payable": false,
      "stateMutability": "view",
      "type": "function"
    },
    {
      "constant": false,
      "inputs": [
        {
          "name": "addrs",
          "type": "address[]"
        }
      ],
      "name": "addAddressesToWhitelist",
      "outputs": [
        {
          "name": "success",
          "type": "bool"
        }
      ],
      "payable": false,
      "stateMutability": "nonpayable",
      "type": "function"
    },
    {
      "constant": false,
      "inputs": [
        {
          "name": "_newOwner",
          "type": "address"
        }
      ],
      "name": "transferOwnership",
      "outputs": [],
      "payable": false,
      "stateMutability": "nonpayable",
      "type": "function"
    },
    {
      "inputs": [
        {
          "name": "_addrs",
          "type": "address[]"
        },
        {
          "name": "_viewIDs",
          "type": "uint256[]"
        }
      ],
      "payable": false,
      "stateMutability": "nonpayable",
      "type": "constructor"
    },
    {
      "anonymous": false,
      "inputs": [
        {
          "indexed": false,
          "name": "addr",
          "type": "address"
        }
      ],
      "name": "WhitelistedAddressAdded",
      "type": "event"
    },
    {
      "anonymous": false,
      "inputs": [
        {
          "indexed": false,
          "name": "addr",
          "type": "address"
        }
      ],
      "name": "WhitelistedAddressRemoved",
      "type": "event"
    },
    {
      "anonymous": false,
      "inputs": [
        {
          "indexed": false,
          "name": "voter",
          "type": "address"
        },
        {
          "indexed": false,
          "name": "power",
          "type": "uint256"
        }
      ],
      "name": "SetVotingPower",
      "type": "event"
    },
    {
      "constant": true,
      "inputs": [],
      "name": "activeVPS",
      "outputs": [
        {
          "name": "",
          "type": "address"
        }
      ],
      "payable": false,
      "stateMutability": "view",
      "type": "function"
    },
    {
      "constant": true,
      "inputs": [],
      "name": "inactiveVPS",
      "outputs": [
        {
          "name": "",
          "type": "address"
        }
      ],
      "payable": false,
      "stateMutability": "view",
      "type": "function"
    },
    {
      "constant": false,
      "inputs": [
        {
          "name": "newViewID",
          "type": "uint256"
        }
      ],
      "name": "rotate",
      "outputs": [],
      "payable": false,
      "stateMutability": "nonpayable",
      "type": "function"
    },
    {
      "constant": false,
      "inputs": [
        {
          "name": "_voters",
          "type": "address[]"
        },
        {
          "name": "_powers",
          "type": "uint256[]"
        }
      ],
      "name": "updateVotingPowers",
      "outputs": [],
      "payable": false,
      "stateMutability": "nonpayable",
      "type": "function"
    },
    {
      "constant": true,
      "inputs": [],
      "name": "totalPower",
      "outputs": [
        {
          "name": "",
          "type": "uint256"
        }
      ],
      "payable": false,
      "stateMutability": "view",
      "type": "function"
    },
    {
      "constant": true,
      "inputs": [
        {
          "name": "_voters",
          "type": "address[]"
        }
      ],
      "name": "powersOf",
      "outputs": [
        {
          "name": "",
          "type": "uint256[]"
        }
      ],
      "payable": false,
      "stateMutability": "view",
      "type": "function"
    },
    {
      "constant": true,
      "inputs": [
        {
          "name": "_voter",
          "type": "address"
        }
      ],
      "name": "powerOf",
      "outputs": [
        {
          "name": "",
          "type": "uint256"
        }
      ],
      "payable": false,
      "stateMutability": "view",
      "type": "function"
    },
    {
      "constant": true,
      "inputs": [
        {
          "name": "_offset",
          "type": "uint256"
        },
        {
          "name": "_limit",
          "type": "uint256"
        }
      ],
      "name": "voters",
      "outputs": [
        {
          "name": "voters_",
          "type": "address[]"
        }
      ],
      "payable": false,
      "stateMutability": "view",
      "type": "function"
    },
    {
      "constant": true,
      "inputs": [],
      "name": "paused",
      "outputs": [
        {
          "name": "",
          "type": "bool"
        }
      ],
      "payable": false,
      "stateMutability": "view",
      "type": "function"
    },
    {
      "constant": true,
      "inputs": [],
      "name": "viewID",
      "outputs": [
        {
          "name": "",
          "type": "uint256"
        }
      ],
      "payable": false,
      "stateMutability": "view",
      "type": "function"
    },
    {
      "constant": true,
      "inputs": [],
      "name": "inactiveViewID",
      "outputs": [
        {
          "name": "",
          "type": "uint256"
        }
      ],
      "payable": false,
      "stateMutability": "view",
      "type": "function"
    }
  ],
  "bytecode": "0x608060405234801561001057600080fd5b5060405161167f38038061167f8339810180604052810190808051820192919060200180518201929190505050336000806101000a81548173ffffffffffffffffffffffffffffffffffffffff021916908373ffffffffffffffffffffffffffffffffffffffff1602179055506002825114801561008f575060028151145b151561009a57600080fd5b600260408051908101604052808460008151811015156100b657fe5b9060200190602002015173ffffffffffffffffffffffffffffffffffffffff1681526020018360008151811015156100ea57fe5b906020019060200201518152509080600181540180825580915050906001820390600052602060002090600202016000909192909190915060008201518160000160006101000a81548173ffffffffffffffffffffffffffffffffffffffff021916908373ffffffffffffffffffffffffffffffffffffffff160217905550602082015181600101555050506002604080519081016040528084600181518110151561019257fe5b9060200190602002015173ffffffffffffffffffffffffffffffffffffffff1681526020018360018151811015156101c657fe5b906020019060200201518152509080600181540180825580915050906001820390600052602060002090600202016000909192909190915060008201518160000160006101000a81548173ffffffffffffffffffffffffffffffffffffffff021916908373ffffffffffffffffffffffffffffffffffffffff16021790555060208201518160010155505050600160038190555050506114148061026b6000396000f300608060405260043610610112576000357c0100000000000000000000000000000000000000000000000000000000900463ffffffff16806303083dcf146101175780631ac846901461016a57806324953eaa146101c1578063286dd3f51461023f5780632f54bf6e1461029a5780633852f4b0146102f55780635c975abb1461032257806363aedb0a146103515780637b9417c81461037c5780638280264b146103d75780638da5cb5b1461040257806390332e4d146104595780639b19251a146104b0578063cec455c71461050b578063d5a86bf214610536578063db3ad22c1461058d578063e2ec6ec3146105b8578063f2fde38b14610636578063fba00cbd14610679578063ff82c4ca14610705575b600080fd5b34801561012357600080fd5b50610168600480360381019080803590602001908201803590602001919091929391929390803590602001908201803590602001919091929391929390505050610795565b005b34801561017657600080fd5b506101ab600480360381019080803573ffffffffffffffffffffffffffffffffffffffff16906020019092919050505061090c565b6040518082815260200191505060405180910390f35b3480156101cd57600080fd5b50610225600480360381019080803590602001908201803590602001908080602002602001604051908101604052809392919081815260200183836020028082843782019150505050505091929192905050506109f2565b604051808215151515815260200191505060405180910390f35b34801561024b57600080fd5b50610280600480360381019080803573ffffffffffffffffffffffffffffffffffffffff169060200190929190505050610a54565b604051808215151515815260200191505060405180910390f35b3480156102a657600080fd5b506102db600480360381019080803573ffffffffffffffffffffffffffffffffffffffff169060200190929190505050610b81565b604051808215151515815260200191505060405180910390f35b34801561030157600080fd5b5061032060048036038101908080359060200190929190505050610bda565b005b34801561032e57600080fd5b50610337610d12565b604051808215151515815260200191505060405180910390f35b34801561035d57600080fd5b50610366610dbf565b6040518082815260200191505060405180910390f35b34801561038857600080fd5b506103bd600480360381019080803573ffffffffffffffffffffffffffffffffffffffff169060200190929190505050610df7565b604051808215151515815260200191505060405180910390f35b3480156103e357600080fd5b506103ec610f24565b6040518082815260200191505060405180910390f35b34801561040e57600080fd5b50610417610f4e565b604051808273ffffffffffffffffffffffffffffffffffffffff1673ffffffffffffffffffffffffffffffffffffffff16815260200191505060405180910390f35b34801561046557600080fd5b5061046e610f73565b604051808273ffffffffffffffffffffffffffffffffffffffff1673ffffffffffffffffffffffffffffffffffffffff16815260200191505060405180910390f35b3480156104bc57600080fd5b506104f1600480360381019080803573ffffffffffffffffffffffffffffffffffffffff169060200190929190505050610fbd565b604051808215151515815260200191505060405180910390f35b34801561051757600080fd5b50610520610fdd565b6040518082815260200191505060405180910390f35b34801561054257600080fd5b5061054b610fe3565b604051808273ffffffffffffffffffffffffffffffffffffffff1673ffffffffffffffffffffffffffffffffffffffff16815260200191505060405180910390f35b34801561059957600080fd5b506105a261103b565b6040518082815260200191505060405180910390f35b3480156105c457600080fd5b5061061c600480360381019080803590602001908201803590602001908080602002602001604051908101604052809392919081815260200183836020028082843782019150505050505091929192905050506110e8565b604051808215151515815260200191505060405180910390f35b34801561064257600080fd5b50610677600480360381019080803573ffffffffffffffffffffffffffffffffffffffff16906020019092919050505061114a565b005b34801561068557600080fd5b506106ae60048036038101908080359060200190929190803590602001909291905050506111a1565b6040518080602001828103825283818151815260200191508051906020019060200280838360005b838110156106f15780820151818401526020810190506106d6565b505050509050019250505060405180910390f35b34801561071157600080fd5b5061073e6004803603810190808035906020019082018035906020019190919293919293905050506112ba565b6040518080602001828103825283818151815260200191508051906020019060200280838360005b83811015610781578082015181840152602081019050610766565b505050509050019250505060405180910390f35b600160003373ffffffffffffffffffffffffffffffffffffffff1673ffffffffffffffffffffffffffffffffffffffff16815260200190815260200160002060009054906101000a900460ff1615156107ed57600080fd5b6002806001600354018115156107ff57fe5b0681548110151561080c57fe5b906000526020600020906002020160000160009054906101000a900473ffffffffffffffffffffffffffffffffffffffff1673ffffffffffffffffffffffffffffffffffffffff166303083dcf858585856040518563ffffffff167c010000000000000000000000000000000000000000000000000000000002815260040180806020018060200183810383528787828181526020019250602002808284378201915050838103825285858281815260200192506020028082843782019150509650505050505050600060405180830381600087803b1580156108ee57600080fd5b505af1158015610902573d6000803e3d6000fd5b5050505050505050565b6000610916610f73565b73ffffffffffffffffffffffffffffffffffffffff16631ac84690836040518263ffffffff167c0100000000000000000000000000000000000000000000000000000000028152600401808273ffffffffffffffffffffffffffffffffffffffff1673ffffffffffffffffffffffffffffffffffffffff168152602001915050602060405180830381600087803b1580156109b057600080fd5b505af11580156109c4573d6000803e3d6000fd5b505050506040513d60208110156109da57600080fd5b81019080805190602001909291905050509050919050565b6000806109fe33610b81565b1515610a0957600080fd5b600090505b8251811015610a4e57610a378382815181101515610a2857fe5b90602001906020020151610a54565b15610a4157600191505b8080600101915050610a0e565b50919050565b6000610a5f33610b81565b1515610a6a57600080fd5b600160008373ffffffffffffffffffffffffffffffffffffffff1673ffffffffffffffffffffffffffffffffffffffff16815260200190815260200160002060009054906101000a900460ff1615610b7c576000600160008473ffffffffffffffffffffffffffffffffffffffff1673ffffffffffffffffffffffffffffffffffffffff16815260200190815260200160002060006101000a81548160ff0219169083151502179055507ff1abf01a1043b7c244d128e8595cf0c1d10743b022b03a02dffd8ca3bf729f5a82604051808273ffffffffffffffffffffffffffffffffffffffff1673ffffffffffffffffffffffffffffffffffffffff16815260200191505060405180910390a1600190505b919050565b60008173ffffffffffffffffffffffffffffffffffffffff166000809054906101000a900473ffffffffffffffffffffffffffffffffffffffff1673ffffffffffffffffffffffffffffffffffffffff16149050919050565b6000600160003373ffffffffffffffffffffffffffffffffffffffff1673ffffffffffffffffffffffffffffffffffffffff16815260200190815260200160002060009054906101000a900460ff161515610c3457600080fd5b610c3c610f24565b90506002600160035401811515610c4f57fe5b066003819055508181101515610c6457600080fd5b816002600354815481101515610c7657fe5b906000526020600020906002020160010181905550610c93610f73565b73ffffffffffffffffffffffffffffffffffffffff16633f4ba83a6040518163ffffffff167c0100000000000000000000000000000000000000000000000000000000028152600401600060405180830381600087803b158015610cf657600080fd5b505af1158015610d0a573d6000803e3d6000fd5b505050505050565b6000610d1c610f73565b73ffffffffffffffffffffffffffffffffffffffff16635c975abb6040518163ffffffff167c0100000000000000000000000000000000000000000000000000000000028152600401602060405180830381600087803b158015610d7f57600080fd5b505af1158015610d93573d6000803e3d6000fd5b505050506040513d6020811015610da957600080fd5b8101908080519060200190929190505050905090565b6000600280600160035401811515610dd357fe5b06815481101515610de057fe5b906000526020600020906002020160010154905090565b6000610e0233610b81565b1515610e0d57600080fd5b600160008373ffffffffffffffffffffffffffffffffffffffff1673ffffffffffffffffffffffffffffffffffffffff16815260200190815260200160002060009054906101000a900460ff161515610f1f5760018060008473ffffffffffffffffffffffffffffffffffffffff1673ffffffffffffffffffffffffffffffffffffffff16815260200190815260200160002060006101000a81548160ff0219169083151502179055507fd1bba68c128cc3f427e5831b3c6f99f480b6efa6b9e80c757768f6124158cc3f82604051808273ffffffffffffffffffffffffffffffffffffffff1673ffffffffffffffffffffffffffffffffffffffff16815260200191505060405180910390a1600190505b919050565b60006002600354815481101515610f3757fe5b906000526020600020906002020160010154905090565b6000809054906101000a900473ffffffffffffffffffffffffffffffffffffffff1681565b60006002600354815481101515610f8657fe5b906000526020600020906002020160000160009054906101000a900473ffffffffffffffffffffffffffffffffffffffff16905090565b60016020528060005260406000206000915054906101000a900460ff1681565b60035481565b6000600280600160035401811515610ff757fe5b0681548110151561100457fe5b906000526020600020906002020160000160009054906101000a900473ffffffffffffffffffffffffffffffffffffffff16905090565b6000611045610f73565b73ffffffffffffffffffffffffffffffffffffffff1663db3ad22c6040518163ffffffff167c0100000000000000000000000000000000000000000000000000000000028152600401602060405180830381600087803b1580156110a857600080fd5b505af11580156110bc573d6000803e3d6000fd5b505050506040513d60208110156110d257600080fd5b8101908080519060200190929190505050905090565b6000806110f433610b81565b15156110ff57600080fd5b600090505b82518110156111445761112d838281518110151561111e57fe5b90602001906020020151610df7565b1561113757600191505b8080600101915050611104565b50919050565b61115333610b81565b151561115e57600080fd5b806000806101000a81548173ffffffffffffffffffffffffffffffffffffffff021916908373ffffffffffffffffffffffffffffffffffffffff16021790555050565b60606111ab610f73565b73ffffffffffffffffffffffffffffffffffffffff1663fba00cbd84846040518363ffffffff167c01000000000000000000000000000000000000000000000000000000000281526004018083815260200182815260200192505050600060405180830381600087803b15801561122157600080fd5b505af1158015611235573d6000803e3d6000fd5b505050506040513d6000823e3d601f19601f82011682018060405250602081101561125f57600080fd5b81019080805164010000000081111561127757600080fd5b8281019050602081018481111561128d57600080fd5b81518560208202830111640100000000821117156112aa57600080fd5b5050929190505050905092915050565b60606112c4610f73565b73ffffffffffffffffffffffffffffffffffffffff1663ff82c4ca84846040518363ffffffff167c01000000000000000000000000000000000000000000000000000000000281526004018080602001828103825284848281815260200192506020028082843782019150509350505050600060405180830381600087803b15801561134f57600080fd5b505af1158015611363573d6000803e3d6000fd5b505050506040513d6000823e3d601f19601f82011682018060405250602081101561138d57600080fd5b8101908080516401000000008111156113a557600080fd5b828101905060208101848111156113bb57600080fd5b81518560208202830111640100000000821117156113d857600080fd5b50509291905050509050929150505600a165627a7a723058203e4001d84fa14773e9b3c562c9f0de7da6d0d87a7e2d97784bf6fe8c3b9c32700029",
  "source": "pragma solidity ^0.4.24;\n\nimport \"./WeightedVPS.sol\";\nimport \"./ViewBasedVPS.sol\";\nimport \"../library/Whitelist.sol\";\n\ncontract RotatableWeightedVPS is ViewBasedVPS, Whitelist {\n    struct WVPS {\n        WeightedVPS vps;\n        uint256 viewID;\n    }\n\n    WVPS[] private vpss;\n    uint256 public activeVPSIndex;\n\n    constructor(address[] _addrs, uint256[] _viewIDs) public {\n        require(_addrs.length == 2 && _viewIDs.length == 2);\n        vpss.push(WVPS(WeightedVPS(_addrs[0]), _viewIDs[0]));\n        vpss.push(WVPS(WeightedVPS(_addrs[1]), _viewIDs[1]));\n        activeVPSIndex = 1;\n    }\n\n    function activeVPS() public view returns (WeightedVPS) {\n        return vpss[activeVPSIndex].vps;\n    }\n\n    function inactiveVPS() public view returns (WeightedVPS) {\n        return vpss[(activeVPSIndex + 1) % 2].vps;\n    }\n\n    // rotate to the other wvps and set its view ID\n    function rotate(uint256 newViewID) external onlyWhitelisted {\n        uint256 currentViewID = viewID();\n        activeVPSIndex = (activeVPSIndex + 1) % 2;\n        require(currentViewID < newViewID);\n        vpss[activeVPSIndex].viewID = newViewID;\n        activeVPS().unpause();\n    }\n\n    function updateVotingPowers(address[] _voters, uint256[] _powers) external onlyWhitelisted {\n        vpss[(activeVPSIndex + 1) % 2].vps.updateVotingPowers(_voters, _powers);\n    }\n\n    function totalPower() external view returns (uint256) {\n        return activeVPS().totalPower();\n    }\n\n    function powersOf(address[] _voters) external view returns (uint256[]) {\n        return activeVPS().powersOf(_voters);\n    }\n\n    function powerOf(address _voter) external view returns (uint256) {\n        return activeVPS().powerOf(_voter);\n    }\n\n    function voters(uint256 _offset, uint256 _limit) public view returns (address[] voters_) {\n        return activeVPS().voters(_offset, _limit);\n    }\n\n    function paused() external view returns (bool) {\n        return activeVPS().paused();\n    }\n\n    function viewID() public view returns (uint256) {\n        return vpss[activeVPSIndex].viewID;\n    }\n\n    function inactiveViewID() public view returns (uint256) {\n        return vpss[(activeVPSIndex + 1) % 2].viewID;\n    }\n}\n",
  "sourcePath": "/Users/rc7/work/src/github.com/iotexproject/iotex-governance/contracts/VPS/RotatableWeightedVPS.sol",
  "compiler": {
    "name": "solc",
    "version": "0.4.24+commit.e67f0147.Emscripten.clang"
  },
  "schemaVersion": "3.0.18",
  "updatedAt": "2020-11-07T17:26:47.614Z",
  "devdoc": {
    "methods": {
      "addAddressToWhitelist(address)": {
        "details": "add an address to the whitelist",
        "params": {
          "addr": "address"
        },
        "return": "true if the address was added to the whitelist, false if the address was already in the whitelist"
      },
      "addAddressesToWhitelist(address[])": {
        "details": "add addresses to the whitelist",
        "params": {
          "addrs": "addresses"
        },
        "return": "true if at least one address was added to the whitelist, false if all addresses were already in the whitelist"
      },
      "removeAddressFromWhitelist(address)": {
        "details": "remove an address from the whitelist",
        "params": {
          "addr": "address"
        },
        "return": "true if the address was removed from the whitelist, false if the address wasn't in the whitelist in the first place"
      },
      "removeAddressesFromWhitelist(address[])": {
        "details": "remove addresses from the whitelist",
        "params": {
          "addrs": "addresses"
        },
        "return": "true if at least one address was removed from the whitelist, false if all addresses weren't in the whitelist in the first place"
      }
    }
  },
  "userdoc": {
    "methods": {}
  }
}