{
  "contractName": "SingleIssue",
  "abi": [
    {
      "constant": true,
      "inputs": [],
      "name": "duration",
      "outputs": [
        {
          "name": "",
          "type": "uint256"
        }
      ],
      "payable": false,
      "stateMutability": "view",
      "type": "function"
    },
    {
      "constant": true,
      "inputs": [],
      "name": "status",
      "outputs": [
        {
          "name": "",
          "type": "uint256"
        }
      ],
      "payable": false,
      "stateMutability": "view",
      "type": "function"
    },
    {
      "constant": true,
      "inputs": [
        {
          "name": "",
          "type": "address"
        }
      ],
      "name": "ballots",
      "outputs": [
        {
          "name": "flag",
          "type": "bool"
        }
      ],
      "payable": false,
      "stateMutability": "view",
      "type": "function"
    },
    {
      "constant": true,
      "inputs": [
        {
          "name": "_address",
          "type": "address"
        }
      ],
      "name": "isOwner",
      "outputs": [
        {
          "name": "",
          "type": "bool"
        }
      ],
      "payable": false,
      "stateMutability": "view",
      "type": "function"
    },
    {
      "constant": true,
      "inputs": [],
      "name": "title",
      "outputs": [
        {
          "name": "",
          "type": "string"
        }
      ],
      "payable": false,
      "stateMutability": "view",
      "type": "function"
    },
    {
      "constant": true,
      "inputs": [],
      "name": "vps",
      "outputs": [
        {
          "name": "",
          "type": "address"
        }
      ],
      "payable": false,
      "stateMutability": "view",
      "type": "function"
    },
    {
      "constant": true,
      "inputs": [],
      "name": "description",
      "outputs": [
        {
          "name": "",
          "type": "string"
        }
      ],
      "payable": false,
      "stateMutability": "view",
      "type": "function"
    },
    {
      "constant": true,
      "inputs": [],
      "name": "owner",
      "outputs": [
        {
          "name": "",
          "type": "address"
        }
      ],
      "payable": false,
      "stateMutability": "view",
      "type": "function"
    },
    {
      "constant": true,
      "inputs": [],
      "name": "canRevote",
      "outputs": [
        {
          "name": "",
          "type": "bool"
        }
      ],
      "payable": false,
      "stateMutability": "view",
      "type": "function"
    },
    {
      "constant": true,
      "inputs": [],
      "name": "proposer",
      "outputs": [
        {
          "name": "",
          "type": "address"
        }
      ],
      "payable": false,
      "stateMutability": "view",
      "type": "function"
    },
    {
      "constant": true,
      "inputs": [],
      "name": "maxNumOfChoices",
      "outputs": [
        {
          "name": "",
          "type": "uint8"
        }
      ],
      "payable": false,
      "stateMutability": "view",
      "type": "function"
    },
    {
      "constant": true,
      "inputs": [],
      "name": "endHeight",
      "outputs": [
        {
          "name": "",
          "type": "uint256"
        }
      ],
      "payable": false,
      "stateMutability": "view",
      "type": "function"
    },
    {
      "constant": false,
      "inputs": [
        {
          "name": "_newOwner",
          "type": "address"
        }
      ],
      "name": "transferOwnership",
      "outputs": [],
      "payable": false,
      "stateMutability": "nonpayable",
      "type": "function"
    },
    {
      "inputs": [
        {
          "name": "_proposal",
          "type": "address"
        },
        {
          "name": "_vpsAddress",
          "type": "address"
        }
      ],
      "payable": false,
      "stateMutability": "nonpayable",
      "type": "constructor"
    },
    {
      "anonymous": false,
      "inputs": [
        {
          "indexed": false,
          "name": "index",
          "type": "uint256"
        },
        {
          "indexed": false,
          "name": "description",
          "type": "string"
        }
      ],
      "name": "NewOption",
      "type": "event"
    },
    {
      "anonymous": false,
      "inputs": [
        {
          "indexed": true,
          "name": "_from",
          "type": "address"
        },
        {
          "indexed": false,
          "name": "_value",
          "type": "uint256"
        }
      ],
      "name": "OnVote",
      "type": "event"
    },
    {
      "anonymous": false,
      "inputs": [
        {
          "indexed": false,
          "name": "newIsOpen",
          "type": "bool"
        }
      ],
      "name": "OnStatusChange",
      "type": "event"
    },
    {
      "constant": true,
      "inputs": [],
      "name": "availableOptions",
      "outputs": [
        {
          "name": "options_",
          "type": "uint256[]"
        }
      ],
      "payable": false,
      "stateMutability": "view",
      "type": "function"
    },
    {
      "constant": true,
      "inputs": [
        {
          "name": "_opt",
          "type": "uint256"
        }
      ],
      "name": "optionDescription",
      "outputs": [
        {
          "name": "",
          "type": "string"
        }
      ],
      "payable": false,
      "stateMutability": "view",
      "type": "function"
    },
    {
      "constant": true,
      "inputs": [],
      "name": "optionCount",
      "outputs": [
        {
          "name": "",
          "type": "uint256"
        }
      ],
      "payable": false,
      "stateMutability": "view",
      "type": "function"
    },
    {
      "constant": false,
      "inputs": [],
      "name": "pause",
      "outputs": [],
      "payable": false,
      "stateMutability": "nonpayable",
      "type": "function"
    },
    {
      "constant": false,
      "inputs": [],
      "name": "unpause",
      "outputs": [],
      "payable": false,
      "stateMutability": "nonpayable",
      "type": "function"
    },
    {
      "constant": false,
      "inputs": [],
      "name": "start",
      "outputs": [],
      "payable": false,
      "stateMutability": "nonpayable",
      "type": "function"
    },
    {
      "constant": false,
      "inputs": [],
      "name": "end",
      "outputs": [],
      "payable": false,
      "stateMutability": "nonpayable",
      "type": "function"
    },
    {
      "constant": true,
      "inputs": [],
      "name": "isNew",
      "outputs": [
        {
          "name": "",
          "type": "bool"
        }
      ],
      "payable": false,
      "stateMutability": "view",
      "type": "function"
    },
    {
      "constant": true,
      "inputs": [],
      "name": "isActive",
      "outputs": [
        {
          "name": "",
          "type": "bool"
        }
      ],
      "payable": false,
      "stateMutability": "view",
      "type": "function"
    },
    {
      "constant": true,
      "inputs": [],
      "name": "isPaused",
      "outputs": [
        {
          "name": "",
          "type": "bool"
        }
      ],
      "payable": false,
      "stateMutability": "view",
      "type": "function"
    },
    {
      "constant": true,
      "inputs": [],
      "name": "isEnded",
      "outputs": [
        {
          "name": "",
          "type": "bool"
        }
      ],
      "payable": false,
      "stateMutability": "view",
      "type": "function"
    },
    {
      "constant": false,
      "inputs": [
        {
          "name": "_opt",
          "type": "uint256"
        }
      ],
      "name": "vote",
      "outputs": [
        {
          "name": "",
          "type": "bool"
        }
      ],
      "payable": false,
      "stateMutability": "nonpayable",
      "type": "function"
    },
    {
      "constant": false,
      "inputs": [
        {
          "name": "_opts",
          "type": "uint256[]"
        }
      ],
      "name": "voteMultiple",
      "outputs": [
        {
          "name": "",
          "type": "bool"
        }
      ],
      "payable": false,
      "stateMutability": "nonpayable",
      "type": "function"
    },
    {
      "constant": true,
      "inputs": [],
      "name": "numOfVoters",
      "outputs": [
        {
          "name": "",
          "type": "uint256"
        }
      ],
      "payable": false,
      "stateMutability": "view",
      "type": "function"
    },
    {
      "constant": true,
      "inputs": [
        {
          "name": "_offset",
          "type": "uint256"
        },
        {
          "name": "_limit",
          "type": "uint256"
        }
      ],
      "name": "voters",
      "outputs": [
        {
          "name": "addrs_",
          "type": "address[]"
        }
      ],
      "payable": false,
      "stateMutability": "view",
      "type": "function"
    },
    {
      "constant": true,
      "inputs": [
        {
          "name": "_opt",
          "type": "uint256"
        },
        {
          "name": "_voters",
          "type": "address[]"
        }
      ],
      "name": "voted",
      "outputs": [
        {
          "name": "voted_",
          "type": "uint256[]"
        }
      ],
      "payable": false,
      "stateMutability": "view",
      "type": "function"
    },
    {
      "constant": false,
      "inputs": [
        {
          "name": "_isOpen",
          "type": "bool"
        }
      ],
      "name": "setStatus",
      "outputs": [
        {
          "name": "success",
          "type": "bool"
        }
      ],
      "payable": false,
      "stateMutability": "nonpayable",
      "type": "function"
    },
    {
      "constant": true,
      "inputs": [
        {
          "name": "addr",
          "type": "address"
        }
      ],
      "name": "ballotOf",
      "outputs": [
        {
          "name": "",
          "type": "uint256"
        }
      ],
      "payable": false,
      "stateMutability": "view",
      "type": "function"
    },
    {
      "constant": true,
      "inputs": [
        {
          "name": "_addr",
          "type": "address"
        }
      ],
      "name": "ballotsOf",
      "outputs": [
        {
          "name": "ballots_",
          "type": "uint256[]"
        }
      ],
      "payable": false,
      "stateMutability": "view",
      "type": "function"
    },
    {
      "constant": true,
      "inputs": [
        {
          "name": "addr",
          "type": "address"
        }
      ],
      "name": "weightOf",
      "outputs": [
        {
          "name": "",
          "type": "uint256"
        }
      ],
      "payable": false,
      "stateMutability": "view",
      "type": "function"
    },
    {
      "constant": true,
      "inputs": [],
      "name": "getStatus",
      "outputs": [
        {
          "name": "",
          "type": "bool"
        }
      ],
      "payable": false,
      "stateMutability": "view",
      "type": "function"
    },
    {
      "constant": true,
      "inputs": [
        {
          "name": "_opt",
          "type": "uint256"
        }
      ],
      "name": "weightedVoteCountsOf",
      "outputs": [
        {
          "name": "count_",
          "type": "uint256"
        }
      ],
      "payable": false,
      "stateMutability": "view",
      "type": "function"
    },
    {
      "constant": true,
      "inputs": [],
      "name": "winningOption",
      "outputs": [
        {
          "name": "winningOption_",
          "type": "uint256"
        }
      ],
      "payable": false,
      "stateMutability": "view",
      "type": "function"
    }
  ],
  "bytecode": "0x60806040523480156200001157600080fd5b5060405160408062002fca833981018060405281019080805190602001909291908051906020019092919050505060008033600460006101000a81548173ffffffffffffffffffffffffffffffffffffffff021916908373ffffffffffffffffffffffffffffffffffffffff16021790555083915082600760006101000a81548173ffffffffffffffffffffffffffffffffffffffff021916908373ffffffffffffffffffffffffffffffffffffffff1602179055508173ffffffffffffffffffffffffffffffffffffffff16634a79d50c6040518163ffffffff167c0100000000000000000000000000000000000000000000000000000000028152600401600060405180830381600087803b1580156200012c57600080fd5b505af115801562000141573d6000803e3d6000fd5b505050506040513d6000823e3d601f19601f8201168201806040525060208110156200016c57600080fd5b8101908080516401000000008111156200018557600080fd5b828101905060208101848111156200019c57600080fd5b8151856001820283011164010000000082111715620001ba57600080fd5b505092919050505060009080519060200190620001d9929190620006f3565b508173ffffffffffffffffffffffffffffffffffffffff16637284e4166040518163ffffffff167c0100000000000000000000000000000000000000000000000000000000028152600401600060405180830381600087803b1580156200023f57600080fd5b505af115801562000254573d6000803e3d6000fd5b505050506040513d6000823e3d601f19601f8201168201806040525060208110156200027f57600080fd5b8101908080516401000000008111156200029857600080fd5b82810190506020810184811115620002af57600080fd5b8151856001820283011164010000000082111715620002cd57600080fd5b505092919050505060019080519060200190620002ec929190620006f3565b508173ffffffffffffffffffffffffffffffffffffffff166392ae7b966040518163ffffffff167c0100000000000000000000000000000000000000000000000000000000028152600401602060405180830381600087803b1580156200035257600080fd5b505af115801562000367573d6000803e3d6000fd5b505050506040513d60208110156200037e57600080fd5b8101908080519060200190929190505050600260006101000a81548160ff0219169083151502179055508173ffffffffffffffffffffffffffffffffffffffff1663ce050ac86040518163ffffffff167c0100000000000000000000000000000000000000000000000000000000028152600401602060405180830381600087803b1580156200040d57600080fd5b505af115801562000422573d6000803e3d6000fd5b505050506040513d60208110156200043957600080fd5b8101908080519060200190929190505050600260016101000a81548160ff021916908360ff1602179055506000600260019054906101000a900460ff1660ff1614156200049d576001600260016101000a81548160ff021916908360ff1602179055505b33600a60006101000a81548173ffffffffffffffffffffffffffffffffffffffff021916908373ffffffffffffffffffffffffffffffffffffffff1602179055506000600b81905550600090505b8173ffffffffffffffffffffffffffffffffffffffff1663e32fe90b6040518163ffffffff167c0100000000000000000000000000000000000000000000000000000000028152600401602060405180830381600087803b1580156200055057600080fd5b505af115801562000565573d6000803e3d6000fd5b505050506040513d60208110156200057c57600080fd5b8101908080519060200190929190505050811015620006e95760088273ffffffffffffffffffffffffffffffffffffffff166341a37ba4836040518263ffffffff167c010000000000000000000000000000000000000000000000000000000002815260040180828152602001915050600060405180830381600087803b1580156200060757600080fd5b505af11580156200061c573d6000803e3d6000fd5b505050506040513d6000823e3d601f19601f8201168201806040525060208110156200064757600080fd5b8101908080516401000000008111156200066057600080fd5b828101905060208101848111156200067757600080fd5b81518560018202830111640100000000821117156200069557600080fd5b50509291905050509080600181540180825580915050906001820390600052602060002001600090919290919091509080519060200190620006d9929190620006f3565b50508080600101915050620004eb565b50505050620007a2565b828054600181600116156101000203166002900490600052602060002090601f016020900481019282601f106200073657805160ff191683800117855562000767565b8280016001018555821562000767579182015b828111156200076657825182559160200191906001019062000749565b5b5090506200077691906200077a565b5090565b6200079f91905b808211156200079b57600081600090555060010162000781565b5090565b90565b61281880620007b26000396000f3006080604052600436106101c2576000357c0100000000000000000000000000000000000000000000000000000000900463ffffffff1680630121b93f146101c75780630fb5a6b41461020c578063200d2ed21461023757806322f3e2d41461026257806327cf3844146102915780632f54bf6e146102ec5780633f4ba83a146103475780634a79d50c1461035e5780634e69d560146103ee57806356702d6e1461041d5780635c40f6f4146104745780636db70428146104bb5780637284e4161461053957806379ed13a7146105c95780638456cb59146106355780638da5cb5b1461064c57806392ae7b96146106a357806398f0b34c146106d25780639fde4ef8146106fd578063a4fd6f5614610728578063a8e4fb9014610757578063b187bd26146107ae578063b54c71eb146107dd578063be9a65551461081e578063ce050ac814610835578063d985ce7814610866578063d999f13214610891578063dc01262614610937578063dd4bc1011461098e578063e0f6e299146109e5578063e32fe90b14610a7d578063efbe1c1c14610aa8578063f2fde38b14610abf578063f5ec242f14610b02578063fba00cbd14610b9c578063fe75154b14610c28575b600080fd5b3480156101d357600080fd5b506101f260048036038101908080359060200190929190505050610c57565b604051808215151515815260200191505060405180910390f35b34801561021857600080fd5b50610221610cbd565b6040518082815260200191505060405180910390f35b34801561024357600080fd5b5061024c610cc3565b6040518082815260200191505060405180910390f35b34801561026e57600080fd5b50610277610cc9565b604051808215151515815260200191505060405180910390f35b34801561029d57600080fd5b506102d2600480360381019080803573ffffffffffffffffffffffffffffffffffffffff169060200190929190505050610cf1565b604051808215151515815260200191505060405180910390f35b3480156102f857600080fd5b5061032d600480360381019080803573ffffffffffffffffffffffffffffffffffffffff169060200190929190505050610d1c565b604051808215151515815260200191505060405180910390f35b34801561035357600080fd5b5061035c610d76565b005b34801561036a57600080fd5b50610373610da7565b6040518080602001828103825283818151815260200191508051906020019080838360005b838110156103b3578082015181840152602081019050610398565b50505050905090810190601f1680156103e05780820380516001836020036101000a031916815260200191505b509250505060405180910390f35b3480156103fa57600080fd5b50610403610e45565b604051808215151515815260200191505060405180910390f35b34801561042957600080fd5b50610432610e54565b604051808273ffffffffffffffffffffffffffffffffffffffff1673ffffffffffffffffffffffffffffffffffffffff16815260200191505060405180910390f35b34801561048057600080fd5b506104a1600480360381019080803515159060200190929190505050610e7a565b604051808215151515815260200191505060405180910390f35b3480156104c757600080fd5b5061051f60048036038101908080359060200190820180359060200190808060200260200160405190810160405280939291908181526020018383602002808284378201915050505050509192919290505050610f59565b604051808215151515815260200191505060405180910390f35b34801561054557600080fd5b5061054e610f6b565b6040518080602001828103825283818151815260200191508051906020019080838360005b8381101561058e578082015181840152602081019050610573565b50505050905090810190601f1680156105bb5780820380516001836020036101000a031916815260200191505b509250505060405180910390f35b3480156105d557600080fd5b506105de61100d565b6040518080602001828103825283818151815260200191508051906020019060200280838360005b83811015610621578082015181840152602081019050610606565b505050509050019250505060405180910390f35b34801561064157600080fd5b5061064a61109c565b005b34801561065857600080fd5b506106616110cd565b604051808273ffffffffffffffffffffffffffffffffffffffff1673ffffffffffffffffffffffffffffffffffffffff16815260200191505060405180910390f35b3480156106af57600080fd5b506106b86110f3565b604051808215151515815260200191505060405180910390f35b3480156106de57600080fd5b506106e7611106565b6040518082815260200191505060405180910390f35b34801561070957600080fd5b50610712611113565b6040518082815260200191505060405180910390f35b34801561073457600080fd5b5061073d611430565b604051808215151515815260200191505060405180910390f35b34801561076357600080fd5b5061076c61143d565b604051808273ffffffffffffffffffffffffffffffffffffffff1673ffffffffffffffffffffffffffffffffffffffff16815260200191505060405180910390f35b3480156107ba57600080fd5b506107c3611463565b604051808215151515815260200191505060405180910390f35b3480156107e957600080fd5b5061080860048036038101908080359060200190929190505050611470565b6040518082815260200191505060405180910390f35b34801561082a57600080fd5b50610833611792565b005b34801561084157600080fd5b5061084a6117b3565b604051808260ff1660ff16815260200191505060405180910390f35b34801561087257600080fd5b5061087b6117c6565b6040518082815260200191505060405180910390f35b34801561089d57600080fd5b506108bc600480360381019080803590602001909291905050506117cc565b6040518080602001828103825283818151815260200191508051906020019080838360005b838110156108fc5780820151818401526020810190506108e1565b50505050905090810190601f1680156109295780820380516001836020036101000a031916815260200191505b509250505060405180910390f35b34801561094357600080fd5b50610978600480360381019080803573ffffffffffffffffffffffffffffffffffffffff169060200190929190505050611887565b6040518082815260200191505060405180910390f35b34801561099a57600080fd5b506109cf600480360381019080803573ffffffffffffffffffffffffffffffffffffffff169060200190929190505050611a78565b6040518082815260200191505060405180910390f35b3480156109f157600080fd5b50610a26600480360381019080803573ffffffffffffffffffffffffffffffffffffffff169060200190929190505050611b79565b6040518080602001828103825283818151815260200191508051906020019060200280838360005b83811015610a69578082015181840152602081019050610a4e565b505050509050019250505060405180910390f35b348015610a8957600080fd5b50610a92611d63565b6040518082815260200191505060405180910390f35b348015610ab457600080fd5b50610abd611d70565b005b348015610acb57600080fd5b50610b00600480360381019080803573ffffffffffffffffffffffffffffffffffffffff169060200190929190505050611d91565b005b348015610b0e57600080fd5b50610b4560048036038101908080359060200190929190803590602001908201803590602001919091929391929390505050611de9565b6040518080602001828103825283818151815260200191508051906020019060200280838360005b83811015610b88578082015181840152602081019050610b6d565b505050509050019250505060405180910390f35b348015610ba857600080fd5b50610bd16004803603810190808035906020019092919080359060200190929190505050611ff4565b6040518080602001828103825283818151815260200191508051906020019060200280838360005b83811015610c14578082015181840152602081019050610bf9565b505050509050019250505060405180910390f35b348015610c3457600080fd5b50610c3d612175565b604051808215151515815260200191505060405180910390f35b600060606001604051908082528060200260200182016040528015610c8b5781602001602082028038833980820191505090505b50905082816000815181101515610c9e57fe5b9060200190602002018181525050610cb581612181565b915050919050565b60035481565b600b5481565b60006001600b54148015610cec575060006009541480610ceb57506009544311155b5b905090565b60056020528060005260406000206000915090508060010160009054906101000a900460ff16905081565b60008173ffffffffffffffffffffffffffffffffffffffff16600460009054906101000a900473ffffffffffffffffffffffffffffffffffffffff1673ffffffffffffffffffffffffffffffffffffffff16149050919050565b610d7f33610d1c565b1515610d8a57600080fd5b610d92611463565b1515610d9d57600080fd5b6001600b81905550565b60008054600181600116156101000203166002900480601f016020809104026020016040519081016040528092919081815260200182805460018160011615610100020316600290048015610e3d5780601f10610e1257610100808354040283529160200191610e3d565b820191906000526020600020905b815481529060010190602001808311610e2057829003601f168201915b505050505081565b6000610e4f610cc9565b905090565b600760009054906101000a900473ffffffffffffffffffffffffffffffffffffffff1681565b6000610e8533610d1c565b1515610e9057600080fd5b8115610ee357610e9e612175565b1580610eb157506000610eaf611d63565b145b15610ebf5760009050610f54565b60006003541115610ed65760035443016009819055505b6001600b81905550610f14565b610eeb610cc9565b158015610efd5750610efb611463565b155b15610f0b5760009050610f54565b6003600b819055505b7fb32dd91638884ac1012ac9d4a0c8cce44d78ecd091818a79ef9210670f6647f782604051808215151515815260200191505060405180910390a1600190505b919050565b6000610f6482612181565b9050919050565b606060018054600181600116156101000203166002900480601f0160208091040260200160405190810160405280929190818152602001828054600181600116156101000203166002900480156110035780601f10610fd857610100808354040283529160200191611003565b820191906000526020600020905b815481529060010190602001808311610fe657829003601f168201915b5050505050905090565b606060008061101a611d63565b9150600082141561102d57829250611097565b8160405190808252806020026020018201604052801561105c5781602001602082028038833980820191505090505b509250600090505b818110156110965780838281518110151561107b57fe5b90602001906020020181815250508080600101915050611064565b5b505090565b6110a533610d1c565b15156110b057600080fd5b6110b8610cc9565b15156110c357600080fd5b6002600b81905550565b600460009054906101000a900473ffffffffffffffffffffffffffffffffffffffff1681565b600260009054906101000a900460ff1681565b6000600680549050905090565b6000806060600080600080611126611d63565b9550856040519080825280602002602001820160405280156111575781602001602082028038833980820191505090505b509450600093505b6006805490508410156113c657600760009054906101000a900473ffffffffffffffffffffffffffffffffffffffff1673ffffffffffffffffffffffffffffffffffffffff16631ac846906006868154811015156111b957fe5b9060005260206000200160009054906101000a900473ffffffffffffffffffffffffffffffffffffffff166040518263ffffffff167c0100000000000000000000000000000000000000000000000000000000028152600401808273ffffffffffffffffffffffffffffffffffffffff1673ffffffffffffffffffffffffffffffffffffffff168152602001915050602060405180830381600087803b15801561126257600080fd5b505af1158015611276573d6000803e3d6000fd5b505050506040513d602081101561128c57600080fd5b81019080805190602001909291905050509250600560006006868154811015156112b257fe5b9060005260206000200160009054906101000a900473ffffffffffffffffffffffffffffffffffffffff1673ffffffffffffffffffffffffffffffffffffffff1673ffffffffffffffffffffffffffffffffffffffff16815260200190815260200160002091506000831415801561133857508160010160009054906101000a900460ff165b156113b957600090505b858110156113b85761138f858281518110151561135b57fe5b9060200190602002015161138a85856000018581548110151561137a57fe5b9060005260206000200154612729565b61275c565b858281518110151561139d57fe5b90602001906020020181815250508080600101915050611342565b5b838060010194505061115f565b859650600093505b858410156114275785871480611411575084848151811015156113ed57fe5b90602001906020020151858881518110151561140557fe5b90602001906020020151105b1561141a578396505b83806001019450506113ce565b50505050505090565b60006003600b5414905090565b600a60009054906101000a900473ffffffffffffffffffffffffffffffffffffffff1681565b60006002600b5414905090565b600080600061147d611d63565b841015156114f3576040517f08c379a000000000000000000000000000000000000000000000000000000000815260040180806020018281038252600c8152602001807f6f7574206f662072616e6765000000000000000000000000000000000000000081525060200191505060405180910390fd5b600091505b60068054905082101561178857600760009054906101000a900473ffffffffffffffffffffffffffffffffffffffff1673ffffffffffffffffffffffffffffffffffffffff16631ac8469060068481548110151561155257fe5b9060005260206000200160009054906101000a900473ffffffffffffffffffffffffffffffffffffffff166040518263ffffffff167c0100000000000000000000000000000000000000000000000000000000028152600401808273ffffffffffffffffffffffffffffffffffffffff1673ffffffffffffffffffffffffffffffffffffffff168152602001915050602060405180830381600087803b1580156115fb57600080fd5b505af115801561160f573d6000803e3d6000fd5b505050506040513d602081101561162557600080fd5b81019080805190602001909291905050509050600081141580156116ce57506005600060068481548110151561165757fe5b9060005260206000200160009054906101000a900473ffffffffffffffffffffffffffffffffffffffff1673ffffffffffffffffffffffffffffffffffffffff1673ffffffffffffffffffffffffffffffffffffffff16815260200190815260200160002060010160009054906101000a900460ff165b1561177b576117788361177383600560006006888154811015156116ee57fe5b9060005260206000200160009054906101000a900473ffffffffffffffffffffffffffffffffffffffff1673ffffffffffffffffffffffffffffffffffffffff1673ffffffffffffffffffffffffffffffffffffffff1681526020019081526020016000206000018881548110151561176357fe5b9060005260206000200154612729565b61275c565b92505b81806001019250506114f8565b8292505050919050565b61179b33610d1c565b15156117a657600080fd5b6117b06001610e7a565b50565b600260019054906101000a900460ff1681565b60095481565b60606008828154811015156117dd57fe5b906000526020600020018054600181600116156101000203166002900480601f01602080910402602001604051908101604052809291908181526020018280546001816001161561010002031660029004801561187b5780601f106118505761010080835404028352916020019161187b565b820191906000526020600020905b81548152906001019060200180831161185e57829003601f168201915b50505050509050919050565b6000806001600260019054906101000a900460ff1660ff16141515611914576040517f08c379a00000000000000000000000000000000000000000000000000000000081526004018080602001828103825260198152602001807f6e6f7420612073696e676c652063686f6963652069737375650000000000000081525060200191505060405180910390fd5b600560008473ffffffffffffffffffffffffffffffffffffffff1673ffffffffffffffffffffffffffffffffffffffff16815260200190815260200160002060010160009054906101000a900460ff16151561197957611972611d63565b9150611a72565b600090505b611986611d63565b811015611a04576000600560008573ffffffffffffffffffffffffffffffffffffffff1673ffffffffffffffffffffffffffffffffffffffff168152602001908152602001600020600001828154811015156119de57fe5b906000526020600020015411156119f757809150611a72565b808060010191505061197e565b6040517f08c379a000000000000000000000000000000000000000000000000000000000815260040180806020018281038252600e8152602001807f696e76616c69642062616c6c6f7400000000000000000000000000000000000081525060200191505060405180910390fd5b50919050565b6000600760009054906101000a900473ffffffffffffffffffffffffffffffffffffffff1673ffffffffffffffffffffffffffffffffffffffff16631ac84690836040518263ffffffff167c0100000000000000000000000000000000000000000000000000000000028152600401808273ffffffffffffffffffffffffffffffffffffffff1673ffffffffffffffffffffffffffffffffffffffff168152602001915050602060405180830381600087803b158015611b3757600080fd5b505af1158015611b4b573d6000803e3d6000fd5b505050506040513d6020811015611b6157600080fd5b81019080805190602001909291905050509050919050565b60606000806000600560008673ffffffffffffffffffffffffffffffffffffffff1673ffffffffffffffffffffffffffffffffffffffff16815260200190815260200160002060010160009054906101000a900460ff161515611bde57839350611d5b565b6000925060009150600092505b611bf3611d63565b831015611c72576000600560008773ffffffffffffffffffffffffffffffffffffffff1673ffffffffffffffffffffffffffffffffffffffff16815260200190815260200160002060000184815481101515611c4b57fe5b90600052602060002001541115611c655781806001019250505b8280600101935050611beb565b600082141515611d5a576000905081604051908082528060200260200182016040528015611caf5781602001602082028038833980820191505090505b509350600092505b611cbf611d63565b831015611d59576000600560008773ffffffffffffffffffffffffffffffffffffffff1673ffffffffffffffffffffffffffffffffffffffff16815260200190815260200160002060000184815481101515611d1757fe5b90600052602060002001541115611d4c57828482806001019350815181101515611d3d57fe5b90602001906020020181815250505b8280600101935050611cb7565b5b5b505050919050565b6000600880549050905090565b611d7933610d1c565b1515611d8457600080fd5b611d8e6000610e7a565b50565b611d9a33610d1c565b1515611da557600080fd5b80600460006101000a81548173ffffffffffffffffffffffffffffffffffffffff021916908373ffffffffffffffffffffffffffffffffffffffff16021790555050565b60606000611df5611d63565b85108015611e065750600084849050115b1515611e7a576040517f08c379a00000000000000000000000000000000000000000000000000000000081526004018080602001828103825260128152602001807f696e76616c696420706172616d6574657273000000000000000000000000000081525060200191505060405180910390fd5b83839050604051908082528060200260200182016040528015611eac5781602001602082028038833980820191505090505b509150600090505b83839050811015611fec57600560008585848181101515611ed157fe5b9050602002013573ffffffffffffffffffffffffffffffffffffffff1673ffffffffffffffffffffffffffffffffffffffff1673ffffffffffffffffffffffffffffffffffffffff16815260200190815260200160002060010160009054906101000a900460ff1615611fdf57600560008585848181101515611f5057fe5b9050602002013573ffffffffffffffffffffffffffffffffffffffff1673ffffffffffffffffffffffffffffffffffffffff1673ffffffffffffffffffffffffffffffffffffffff16815260200190815260200160002060000185815481101515611fb757fe5b90600052602060002001548282815181101515611fd057fe5b90602001906020020181815250505b8080600101915050611eb4565b509392505050565b6060600080612001611106565b8510801561200f5750600084115b1515612083576040517f08c379a00000000000000000000000000000000000000000000000000000000081526004018080602001828103825260128152602001807f696e76616c696420706172616d6574657273000000000000000000000000000081525060200191505060405180910390fd5b8461208c611106565b0391508184101561209b578391505b816040519080825280602002602001820160405280156120ca5781602001602082028038833980820191505090505b509250600090505b8181101561216d5760068186018154811015156120eb57fe5b9060005260206000200160009054906101000a900473ffffffffffffffffffffffffffffffffffffffff16838281518110151561212457fe5b9060200190602002019073ffffffffffffffffffffffffffffffffffffffff16908173ffffffffffffffffffffffffffffffffffffffff168152505080806001019150506120d2565b505092915050565b600080600b5414905090565b6000806000806000612191610cc9565b801561219e575060008651115b1515612212576040517f08c379a000000000000000000000000000000000000000000000000000000000815260040180806020018281038252600e8152602001807f696e76616c69642073746174757300000000000000000000000000000000000081525060200191505060405180910390fd5b600560003373ffffffffffffffffffffffffffffffffffffffff1673ffffffffffffffffffffffffffffffffffffffff16815260200190815260200160002060010160009054906101000a900460ff16151561239c5760063390806001815401808255809150509060018203906000526020600020016000909192909190916101000a81548173ffffffffffffffffffffffffffffffffffffffff021916908373ffffffffffffffffffffffffffffffffffffffff1602179055505060408051908101604052806122e1611d63565b60405190808252806020026020018201604052801561230f5781602001602082028038833980820191505090505b50815260200160011515815250600560003373ffffffffffffffffffffffffffffffffffffffff1673ffffffffffffffffffffffffffffffffffffffff168152602001908152602001600020600082015181600001908051906020019061237792919061277a565b5060208201518160010160006101000a81548160ff0219169083151502179055509050505b6123a4611d63565b9350600260009054906101000a900460ff161561243957600092505b83831015612434576000600560003373ffffffffffffffffffffffffffffffffffffffff1673ffffffffffffffffffffffffffffffffffffffff1681526020019081526020016000206000018481548110151561241957fe5b906000526020600020018190555082806001019350506123c0565b6124bf565b600092505b838310156124be576000600560003373ffffffffffffffffffffffffffffffffffffffff1673ffffffffffffffffffffffffffffffffffffffff1681526020019081526020016000206000018481548110151561249757fe5b906000526020600020015411156124b15760009450612720565b828060010193505061243e565b5b60009150600092505b85518310156126915785838151811015156124df57fe5b9060200190602002015190508381101515612562576040517f08c379a000000000000000000000000000000000000000000000000000000000815260040180806020018281038252600c8152602001807f6f7574206f662072616e6765000000000000000000000000000000000000000081525060200191505060405180910390fd5b6000600560003373ffffffffffffffffffffffffffffffffffffffff1673ffffffffffffffffffffffffffffffffffffffff168152602001908152602001600020600001828154811015156125b357fe5b906000526020600020015414156125cd5781806001019250505b600560003373ffffffffffffffffffffffffffffffffffffffff1673ffffffffffffffffffffffffffffffffffffffff1681526020019081526020016000206000018181548110151561261c57fe5b90600052602060002001600081548092919060010191905055503373ffffffffffffffffffffffffffffffffffffffff167fa9851bf7c64060a1bb8c8c6e89a10c1fb3898337da61ecd2db3ca015ad32ebe0826040518082815260200191505060405180910390a282806001019350506124c8565b600260019054906101000a900460ff1660ff16821115151561271b576040517f08c379a00000000000000000000000000000000000000000000000000000000081526004018080602001828103825260108152602001807f74776f206d616e792063686f696365730000000000000000000000000000000081525060200191505060405180910390fd5b600194505b50505050919050565b6000808284029050600084148061274a575082848281151561274757fe5b04145b151561275257fe5b8091505092915050565b600080828401905083811015151561277057fe5b8091505092915050565b8280548282559060005260206000209081019282156127b6579160200282015b828111156127b557825182559160200191906001019061279a565b5b5090506127c391906127c7565b5090565b6127e991905b808211156127e55760008160009055506001016127cd565b5090565b905600a165627a7a7230582024b78e27b9c1b6c50183ee571a70eaf3ab8a015bf91a5fba0d3077a64cf7bd690029",
  "source": "pragma solidity ^0.4.22;\n\n// This contract implements the storage and management of a single proposal (known as issue).\n\nimport \"./library/ERC1202.sol\";\nimport \"./library/Ownable.sol\";\nimport \"./library/VotingPowerSystem.sol\";\nimport \"./library/SafeMath.sol\";\nimport \"./IssueProposal.sol\";\nimport \"./library/IssueSheet.sol\";\n\ncontract SingleIssue is ERC1202, IssueBase, Ownable {\n    using SafeMath for uint;\n    event NewOption(uint256 index, string description);\n    struct Ballot {\n        uint[] counts;\n        bool flag;\n    }\n\n    mapping(address => Ballot) public ballots;\n    address[] voterAddrs;\n    VotingPowerSystem public vps;\n    string[] private optionDescriptions;\n    uint256 public endHeight;\n\n    address public proposer;\n    uint public status; // 0: new; 1: started; 2: paused; 3: ended\n\n    constructor(address _proposal, address _vpsAddress) public {\n        IssueProposal proposal = IssueProposal(_proposal);\n        vps = VotingPowerSystem(_vpsAddress);\n        title = proposal.title();\n        description = proposal.description();\n        canRevote = proposal.canRevote();\n        maxNumOfChoices = proposal.maxNumOfChoices();\n        if (maxNumOfChoices == 0) {\n            maxNumOfChoices = 1;\n        }\n        proposer = msg.sender;\n        status = 0;\n\n        for(uint i = 0; i < proposal.optionCount(); i++) {\n            optionDescriptions.push(proposal.getOptionDescription(i));\n        }\n    }\n\n    function availableOptions() external view returns (uint[] options_) {\n        uint l = optionCount();\n        if (l == 0) {\n            return options_;\n        }\n        options_ = new uint[](l);\n        for (uint i = 0; i < l; i++) {\n            options_[i] = i;\n        }\n    }\n\n    function optionDescription(uint _opt) external view returns (string) {\n        return optionDescriptions[_opt];\n    }\n\n    function optionCount() public view returns (uint) {\n        return optionDescriptions.length;\n    }\n\n    function pause() public onlyOwner {\n        require(isActive());\n        status = 2;\n    }\n\n    function unpause() public onlyOwner {\n        require(isPaused());\n        status = 1;\n    }\n\n    function start() public onlyOwner {\n        setStatus(true);\n    }\n\n    function end() public onlyOwner {\n        setStatus(false);\n    }\n\n    function isNew() public view returns (bool) {\n        return status == 0;\n    }\n\n    function isActive() public view returns (bool) {\n        return status == 1 && (endHeight == 0 || block.number <= endHeight);\n    }\n\n    function isPaused() public view returns (bool) {\n        return status == 2;\n    }\n\n    function isEnded() public view returns (bool) {\n        return status == 3;\n    }\n\n    function voteInternal(uint[] _opts) internal returns (bool) {\n        require(isActive() && _opts.length > 0, \"invalid status\");\n        if (!ballots[msg.sender].flag) {\n            voterAddrs.push(msg.sender);\n            ballots[msg.sender] = Ballot(new uint[](optionCount()), true);\n        }\n        uint l = optionCount();\n        uint i;\n        if (canRevote) {\n            for (i = 0; i < l; i++) {\n                ballots[msg.sender].counts[i] = 0;\n            }\n        } else {\n            for (i = 0; i < l; i++) {\n                if (ballots[msg.sender].counts[i] > 0) {\n                    return false;\n                }\n            }\n        }\n        uint unique = 0;\n        for (i = 0; i < _opts.length; i++) {\n            uint opt = _opts[i];\n            require(opt < l, \"out of range\");\n            if (ballots[msg.sender].counts[opt] == 0) {\n                unique++;\n            }\n            ballots[msg.sender].counts[opt]++;\n            emit OnVote(msg.sender, opt);\n        }\n        require(unique <= maxNumOfChoices, \"two many choices\");\n        return true;\n    }\n\n    function vote(uint _opt) external returns (bool) {\n        uint[] memory opts = new uint[](1);\n        opts[0] = _opt;\n        return voteInternal(opts);\n    }\n\n    function voteMultiple(uint[] _opts) public returns (bool) {\n        return voteInternal(_opts);\n    }\n\n    function numOfVoters() public view returns (uint) {\n        return voterAddrs.length;\n    }\n\n    function voters(uint _offset, uint _limit) public view returns (address[] addrs_) {\n        require(_offset < numOfVoters() && _limit > 0, \"invalid parameters\");\n        uint limit = numOfVoters() - _offset;\n        if (_limit < limit) {\n            limit = _limit;\n        }\n        addrs_ = new address[](limit);\n        for (uint i = 0; i < limit; i++) {\n            addrs_[i] = voterAddrs[_offset + i];\n        }\n    }\n\n    function voted(uint _opt, address[] _voters) external view returns (uint[] voted_) {\n        require(_opt < optionCount() && _voters.length > 0, \"invalid parameters\");\n        voted_ = new uint[](_voters.length);\n        for (uint i = 0; i < _voters.length; i++) {\n            if (ballots[_voters[i]].flag) {\n                voted_[i] = ballots[_voters[i]].counts[_opt];\n            }\n        }\n    }\n\n    function setStatus(bool _isOpen) public onlyOwner returns (bool success) {\n        if (_isOpen) {\n            if (!isNew() || optionCount() == 0) {\n                return false;\n            }\n            if (duration > 0) {\n                endHeight = block.number + duration;\n            }\n            status = 1;\n        } else {\n            if (!isActive() && !isPaused()) {\n                return false;\n            }\n            status = 3;\n        }\n        emit OnStatusChange(_isOpen);\n        return true;\n    }\n\n    function ballotOf(address addr) external view returns (uint) {\n        require(maxNumOfChoices == 1, \"not a single choice issue\");\n        if (!ballots[addr].flag) {\n            return optionCount();\n        }\n        for (uint i = 0; i < optionCount(); i++) {\n            if (ballots[addr].counts[i] > 0) {\n                return i;\n            }\n        }\n        revert(\"invalid ballot\");\n    }\n\n    function ballotsOf(address _addr) external view returns (uint[] ballots_) {\n        if (!ballots[_addr].flag) {\n            return ballots_;\n        }\n        uint i = 0;\n        uint size = 0;\n        for (i = 0; i < optionCount(); i++) {\n            if (ballots[_addr].counts[i] > 0) {\n                size++;\n            }\n        }\n        if (size != 0) {\n            uint idx = 0;\n            ballots_ = new uint[](size);\n            for (i = 0; i < optionCount(); i++) {\n                if (ballots[_addr].counts[i] > 0) {\n                    ballots_[idx++] = i;\n                }\n            }\n        }\n    }\n\n    function weightOf(address addr) external view returns (uint) {\n        return vps.powerOf(addr);\n    }\n\n    function getStatus() external view returns (bool) {\n        return isActive();\n    }\n\n    function weightedVoteCountsOf(uint _opt) external view returns (uint count_) {\n        require(_opt < optionCount(), \"out of range\");\n        for (uint i = 0; i < voterAddrs.length; i++) {\n            uint power = vps.powerOf(voterAddrs[i]);\n            if (power != 0 && ballots[voterAddrs[i]].flag) {\n                count_ = SafeMath.add(count_, SafeMath.mul(power, ballots[voterAddrs[i]].counts[_opt]));\n            }\n        }\n        return count_;\n    }\n\n    function winningOption() external view returns (uint winningOption_) {\n        uint l = optionCount();\n        uint[] memory counts = new uint[](l);\n        uint i;\n        for (i = 0; i < voterAddrs.length; i++) {\n            uint power = vps.powerOf(voterAddrs[i]);\n            Ballot storage b = ballots[voterAddrs[i]];\n            if (power != 0 && b.flag) {\n                for (uint j = 0; j < l; j++) {\n                    counts[j] = SafeMath.add(counts[j], SafeMath.mul(power, b.counts[j]));\n                }\n            }\n        }\n        winningOption_ = l;\n        for (i = 0; i < l; i++) {\n            if (winningOption_ == l || counts[winningOption_] < counts[i]) {\n                winningOption_ = i;\n            }\n        }\n    }\n}\n",
  "sourcePath": "/Users/rc7/work/src/github.com/iotexproject/iotex-governance/contracts/SingleIssue.sol",
  "compiler": {
    "name": "solc",
    "version": "0.4.24+commit.e67f0147.Emscripten.clang"
  },
  "schemaVersion": "3.0.18",
  "updatedAt": "2020-11-07T17:26:47.604Z",
  "devdoc": {
    "methods": {}
  },
  "userdoc": {
    "methods": {}
  }
}