{
  "contractName": "WeightedVPS",
  "abi": [
    {
      "constant": false,
      "inputs": [
        {
          "name": "addrs",
          "type": "address[]"
        }
      ],
      "name": "removeAddressesFromWhitelist",
      "outputs": [
        {
          "name": "success",
          "type": "bool"
        }
      ],
      "payable": false,
      "stateMutability": "nonpayable",
      "type": "function"
    },
    {
      "constant": false,
      "inputs": [
        {
          "name": "addr",
          "type": "address"
        }
      ],
      "name": "removeAddressFromWhitelist",
      "outputs": [
        {
          "name": "success",
          "type": "bool"
        }
      ],
      "payable": false,
      "stateMutability": "nonpayable",
      "type": "function"
    },
    {
      "constant": true,
      "inputs": [
        {
          "name": "_address",
          "type": "address"
        }
      ],
      "name": "isOwner",
      "outputs": [
        {
          "name": "",
          "type": "bool"
        }
      ],
      "payable": false,
      "stateMutability": "view",
      "type": "function"
    },
    {
      "constant": true,
      "inputs": [
        {
          "name": "",
          "type": "uint256"
        }
      ],
      "name": "voterAddrs",
      "outputs": [
        {
          "name": "",
          "type": "address"
        }
      ],
      "payable": false,
      "stateMutability": "view",
      "type": "function"
    },
    {
      "constant": true,
      "inputs": [],
      "name": "paused",
      "outputs": [
        {
          "name": "",
          "type": "bool"
        }
      ],
      "payable": false,
      "stateMutability": "view",
      "type": "function"
    },
    {
      "constant": true,
      "inputs": [
        {
          "name": "",
          "type": "address"
        }
      ],
      "name": "votingPowers",
      "outputs": [
        {
          "name": "value",
          "type": "uint256"
        },
        {
          "name": "flag",
          "type": "bool"
        }
      ],
      "payable": false,
      "stateMutability": "view",
      "type": "function"
    },
    {
      "constant": true,
      "inputs": [],
      "name": "canUpdateVotingPower",
      "outputs": [
        {
          "name": "",
          "type": "bool"
        }
      ],
      "payable": false,
      "stateMutability": "view",
      "type": "function"
    },
    {
      "constant": true,
      "inputs": [],
      "name": "powerInTotal",
      "outputs": [
        {
          "name": "",
          "type": "uint256"
        }
      ],
      "payable": false,
      "stateMutability": "view",
      "type": "function"
    },
    {
      "constant": false,
      "inputs": [
        {
          "name": "addr",
          "type": "address"
        }
      ],
      "name": "addAddressToWhitelist",
      "outputs": [
        {
          "name": "success",
          "type": "bool"
        }
      ],
      "payable": false,
      "stateMutability": "nonpayable",
      "type": "function"
    },
    {
      "constant": true,
      "inputs": [],
      "name": "owner",
      "outputs": [
        {
          "name": "",
          "type": "address"
        }
      ],
      "payable": false,
      "stateMutability": "view",
      "type": "function"
    },
    {
      "constant": true,
      "inputs": [
        {
          "name": "",
          "type": "address"
        }
      ],
      "name": "whitelist",
      "outputs": [
        {
          "name": "",
          "type": "bool"
        }
      ],
      "payable": false,
      "stateMutability": "view",
      "type": "function"
    },
    {
      "constant": false,
      "inputs": [
        {
          "name": "addrs",
          "type": "address[]"
        }
      ],
      "name": "addAddressesToWhitelist",
      "outputs": [
        {
          "name": "success",
          "type": "bool"
        }
      ],
      "payable": false,
      "stateMutability": "nonpayable",
      "type": "function"
    },
    {
      "constant": false,
      "inputs": [
        {
          "name": "_newOwner",
          "type": "address"
        }
      ],
      "name": "transferOwnership",
      "outputs": [],
      "payable": false,
      "stateMutability": "nonpayable",
      "type": "function"
    },
    {
      "inputs": [
        {
          "name": "_canUpdateVotingPower",
          "type": "bool"
        },
        {
          "name": "_voters",
          "type": "address[]"
        },
        {
          "name": "_powers",
          "type": "uint256[]"
        }
      ],
      "payable": false,
      "stateMutability": "nonpayable",
      "type": "constructor"
    },
    {
      "anonymous": false,
      "inputs": [],
      "name": "Pause",
      "type": "event"
    },
    {
      "anonymous": false,
      "inputs": [],
      "name": "Unpause",
      "type": "event"
    },
    {
      "anonymous": false,
      "inputs": [
        {
          "indexed": false,
          "name": "addr",
          "type": "address"
        }
      ],
      "name": "WhitelistedAddressAdded",
      "type": "event"
    },
    {
      "anonymous": false,
      "inputs": [
        {
          "indexed": false,
          "name": "addr",
          "type": "address"
        }
      ],
      "name": "WhitelistedAddressRemoved",
      "type": "event"
    },
    {
      "anonymous": false,
      "inputs": [
        {
          "indexed": false,
          "name": "voter",
          "type": "address"
        },
        {
          "indexed": false,
          "name": "power",
          "type": "uint256"
        }
      ],
      "name": "SetVotingPower",
      "type": "event"
    },
    {
      "constant": true,
      "inputs": [],
      "name": "totalPower",
      "outputs": [
        {
          "name": "",
          "type": "uint256"
        }
      ],
      "payable": false,
      "stateMutability": "view",
      "type": "function"
    },
    {
      "constant": false,
      "inputs": [
        {
          "name": "_voters",
          "type": "address[]"
        },
        {
          "name": "_powers",
          "type": "uint256[]"
        }
      ],
      "name": "updateVotingPowers",
      "outputs": [],
      "payable": false,
      "stateMutability": "nonpayable",
      "type": "function"
    },
    {
      "constant": true,
      "inputs": [
        {
          "name": "_voters",
          "type": "address[]"
        }
      ],
      "name": "powersOf",
      "outputs": [
        {
          "name": "powers_",
          "type": "uint256[]"
        }
      ],
      "payable": false,
      "stateMutability": "view",
      "type": "function"
    },
    {
      "constant": true,
      "inputs": [
        {
          "name": "_voter",
          "type": "address"
        }
      ],
      "name": "powerOf",
      "outputs": [
        {
          "name": "",
          "type": "uint256"
        }
      ],
      "payable": false,
      "stateMutability": "view",
      "type": "function"
    },
    {
      "constant": true,
      "inputs": [
        {
          "name": "_offset",
          "type": "uint256"
        },
        {
          "name": "_limit",
          "type": "uint256"
        }
      ],
      "name": "voters",
      "outputs": [
        {
          "name": "voters_",
          "type": "address[]"
        }
      ],
      "payable": false,
      "stateMutability": "view",
      "type": "function"
    },
    {
      "constant": false,
      "inputs": [],
      "name": "pause",
      "outputs": [],
      "payable": false,
      "stateMutability": "nonpayable",
      "type": "function"
    },
    {
      "constant": false,
      "inputs": [],
      "name": "unpause",
      "outputs": [],
      "payable": false,
      "stateMutability": "nonpayable",
      "type": "function"
    }
  ],
  "bytecode": "0x60806040526000600260006101000a81548160ff0219169083151502179055503480156200002c57600080fd5b5060405162001aaa38038062001aaa833981018060405281019080805190602001909291908051820192919060200180518201929190505050336000806101000a81548173ffffffffffffffffffffffffffffffffffffffff021916908373ffffffffffffffffffffffffffffffffffffffff16021790555082600560006101000a81548160ff021916908315150217905550620000da8282620000e3640100000000026401000000009004565b50505062000503565b600081518351141515620000f657600080fd5b600090505b8251811015620004c5576003600084838151811015156200011857fe5b9060200190602002015173ffffffffffffffffffffffffffffffffffffffff1673ffffffffffffffffffffffffffffffffffffffff16815260200190815260200160002060010160009054906101000a900460ff1615620002a95762000226620001f36006546003600087868151811015156200019157fe5b9060200190602002015173ffffffffffffffffffffffffffffffffffffffff1673ffffffffffffffffffffffffffffffffffffffff16815260200190815260200160002060000154620004ca6401000000000262001534176401000000009004565b83838151811015156200020257fe5b90602001906020020151620004e4640100000000026200154d176401000000009004565b60068190555081818151811015156200023b57fe5b906020019060200201516003600085848151811015156200025857fe5b9060200190602002015173ffffffffffffffffffffffffffffffffffffffff1673ffffffffffffffffffffffffffffffffffffffff168152602001908152602001600020600001819055506200041c565b620002e36006548383815181101515620002bf57fe5b90602001906020020151620004e4640100000000026200154d176401000000009004565b600681905550604080519081016040528083838151811015156200030357fe5b906020019060200201518152602001600115158152506003600085848151811015156200032c57fe5b9060200190602002015173ffffffffffffffffffffffffffffffffffffffff1673ffffffffffffffffffffffffffffffffffffffff1681526020019081526020016000206000820151816000015560208201518160010160006101000a81548160ff02191690831515021790555090505060048382815181101515620003ae57fe5b9060200190602002015190806001815401808255809150509060018203906000526020600020016000909192909190916101000a81548173ffffffffffffffffffffffffffffffffffffffff021916908373ffffffffffffffffffffffffffffffffffffffff160217905550505b7f048ebfbc43eddab7a7a576fb6a22551fb89c9fa0bb520948a32ec8b1546640d383828151811015156200044c57fe5b9060200190602002015183838151811015156200046557fe5b90602001906020020151604051808373ffffffffffffffffffffffffffffffffffffffff1673ffffffffffffffffffffffffffffffffffffffff1681526020018281526020019250505060405180910390a18080600101915050620000fb565b505050565b6000828211151515620004d957fe5b818303905092915050565b6000808284019050838110151515620004f957fe5b8091505092915050565b61159780620005136000396000f300608060405260043610610112576000357c0100000000000000000000000000000000000000000000000000000000900463ffffffff16806303083dcf146101175780631ac846901461016a57806324953eaa146101c1578063286dd3f51461023f5780632f54bf6e1461029a5780633f4ba83a146102f557806356b161621461030c5780635c975abb1461037957806365652d8b146103a85780636d37c1d71461040a5780637b5d7036146104395780637b9417c8146104645780638456cb59146104bf5780638da5cb5b146104d65780639b19251a1461052d578063db3ad22c14610588578063e2ec6ec3146105b3578063f2fde38b14610631578063fba00cbd14610674578063ff82c4ca14610700575b600080fd5b34801561012357600080fd5b50610168600480360381019080803590602001908201803590602001919091929391929390803590602001908201803590602001919091929391929390505050610790565b005b34801561017657600080fd5b506101ab600480360381019080803573ffffffffffffffffffffffffffffffffffffffff169060200190929190505050610890565b6040518082815260200191505060405180910390f35b3480156101cd57600080fd5b50610225600480360381019080803590602001908201803590602001908080602002602001604051908101604052809392919081815260200183836020028082843782019150505050505091929192905050506108f8565b604051808215151515815260200191505060405180910390f35b34801561024b57600080fd5b50610280600480360381019080803573ffffffffffffffffffffffffffffffffffffffff16906020019092919050505061095a565b604051808215151515815260200191505060405180910390f35b3480156102a657600080fd5b506102db600480360381019080803573ffffffffffffffffffffffffffffffffffffffff169060200190929190505050610a87565b604051808215151515815260200191505060405180910390f35b34801561030157600080fd5b5061030a610ae0565b005b34801561031857600080fd5b5061033760048036038101908080359060200190929190505050610b9c565b604051808273ffffffffffffffffffffffffffffffffffffffff1673ffffffffffffffffffffffffffffffffffffffff16815260200191505060405180910390f35b34801561038557600080fd5b5061038e610bda565b604051808215151515815260200191505060405180910390f35b3480156103b457600080fd5b506103e9600480360381019080803573ffffffffffffffffffffffffffffffffffffffff169060200190929190505050610bed565b60405180838152602001821515151581526020019250505060405180910390f35b34801561041657600080fd5b5061041f610c1e565b604051808215151515815260200191505060405180910390f35b34801561044557600080fd5b5061044e610c31565b6040518082815260200191505060405180910390f35b34801561047057600080fd5b506104a5600480360381019080803573ffffffffffffffffffffffffffffffffffffffff169060200190929190505050610c37565b604051808215151515815260200191505060405180910390f35b3480156104cb57600080fd5b506104d4610d64565b005b3480156104e257600080fd5b506104eb610e21565b604051808273ffffffffffffffffffffffffffffffffffffffff1673ffffffffffffffffffffffffffffffffffffffff16815260200191505060405180910390f35b34801561053957600080fd5b5061056e600480360381019080803573ffffffffffffffffffffffffffffffffffffffff169060200190929190505050610e46565b604051808215151515815260200191505060405180910390f35b34801561059457600080fd5b5061059d610e66565b6040518082815260200191505060405180910390f35b3480156105bf57600080fd5b5061061760048036038101908080359060200190820180359060200190808060200260200160405190810160405280939291908181526020018383602002808284378201915050505050509192919290505050610e8c565b604051808215151515815260200191505060405180910390f35b34801561063d57600080fd5b50610672600480360381019080803573ffffffffffffffffffffffffffffffffffffffff169060200190929190505050610eee565b005b34801561068057600080fd5b506106a96004803603810190808035906020019092919080359060200190929190505050610f45565b6040518080602001828103825283818151815260200191508051906020019060200280838360005b838110156106ec5780820151818401526020810190506106d1565b505050509050019250505060405180910390f35b34801561070c57600080fd5b50610739600480360381019080803590602001908201803590602001919091929391929390505050611088565b6040518080602001828103825283818151815260200191508051906020019060200280838360005b8381101561077c578082015181840152602081019050610761565b505050509050019250505060405180910390f35b600560009054906101000a900460ff1615156107ab57600080fd5b600160003373ffffffffffffffffffffffffffffffffffffffff1673ffffffffffffffffffffffffffffffffffffffff16815260200190815260200160002060009054906101000a900460ff16151561080357600080fd5b600260009054906101000a900460ff16151561082257610821610d64565b5b61088a84848080602002602001604051908101604052809392919081815260200183836020028082843782019150505050505083838080602002602001604051908101604052809392919081815260200183836020028082843782019150505050505061119f565b50505050565b6000600260009054906101000a900460ff161515156108ae57600080fd5b600360008373ffffffffffffffffffffffffffffffffffffffff1673ffffffffffffffffffffffffffffffffffffffff168152602001908152602001600020600001549050919050565b60008061090433610a87565b151561090f57600080fd5b600090505b82518110156109545761093d838281518110151561092e57fe5b9060200190602002015161095a565b1561094757600191505b8080600101915050610914565b50919050565b600061096533610a87565b151561097057600080fd5b600160008373ffffffffffffffffffffffffffffffffffffffff1673ffffffffffffffffffffffffffffffffffffffff16815260200190815260200160002060009054906101000a900460ff1615610a82576000600160008473ffffffffffffffffffffffffffffffffffffffff1673ffffffffffffffffffffffffffffffffffffffff16815260200190815260200160002060006101000a81548160ff0219169083151502179055507ff1abf01a1043b7c244d128e8595cf0c1d10743b022b03a02dffd8ca3bf729f5a82604051808273ffffffffffffffffffffffffffffffffffffffff1673ffffffffffffffffffffffffffffffffffffffff16815260200191505060405180910390a1600190505b919050565b60008173ffffffffffffffffffffffffffffffffffffffff166000809054906101000a900473ffffffffffffffffffffffffffffffffffffffff1673ffffffffffffffffffffffffffffffffffffffff16149050919050565b600160003373ffffffffffffffffffffffffffffffffffffffff1673ffffffffffffffffffffffffffffffffffffffff16815260200190815260200160002060009054906101000a900460ff161515610b3857600080fd5b600260009054906101000a900460ff161515610b5357600080fd5b6000600260006101000a81548160ff0219169083151502179055507f7805862f689e2f13df9f062ff482ad3ad112aca9e0847911ed832e158c525b3360405160405180910390a1565b600481815481101515610bab57fe5b906000526020600020016000915054906101000a900473ffffffffffffffffffffffffffffffffffffffff1681565b600260009054906101000a900460ff1681565b60036020528060005260406000206000915090508060000154908060010160009054906101000a900460ff16905082565b600560009054906101000a900460ff1681565b60065481565b6000610c4233610a87565b1515610c4d57600080fd5b600160008373ffffffffffffffffffffffffffffffffffffffff1673ffffffffffffffffffffffffffffffffffffffff16815260200190815260200160002060009054906101000a900460ff161515610d5f5760018060008473ffffffffffffffffffffffffffffffffffffffff1673ffffffffffffffffffffffffffffffffffffffff16815260200190815260200160002060006101000a81548160ff0219169083151502179055507fd1bba68c128cc3f427e5831b3c6f99f480b6efa6b9e80c757768f6124158cc3f82604051808273ffffffffffffffffffffffffffffffffffffffff1673ffffffffffffffffffffffffffffffffffffffff16815260200191505060405180910390a1600190505b919050565b600160003373ffffffffffffffffffffffffffffffffffffffff1673ffffffffffffffffffffffffffffffffffffffff16815260200190815260200160002060009054906101000a900460ff161515610dbc57600080fd5b600260009054906101000a900460ff16151515610dd857600080fd5b6001600260006101000a81548160ff0219169083151502179055507f6985a02210a168e66602d3235cb6db0e70f92b3ba4d376a33c0f3d9434bff62560405160405180910390a1565b6000809054906101000a900473ffffffffffffffffffffffffffffffffffffffff1681565b60016020528060005260406000206000915054906101000a900460ff1681565b6000600260009054906101000a900460ff16151515610e8457600080fd5b600654905090565b600080610e9833610a87565b1515610ea357600080fd5b600090505b8251811015610ee857610ed18382815181101515610ec257fe5b90602001906020020151610c37565b15610edb57600191505b8080600101915050610ea8565b50919050565b610ef733610a87565b1515610f0257600080fd5b806000806101000a81548173ffffffffffffffffffffffffffffffffffffffff021916908373ffffffffffffffffffffffffffffffffffffffff16021790555050565b6060600080600260009054906101000a900460ff16151515610f6657600080fd5b60c88411151515610f7657600080fd5b6000841480610f8a57506004805490508510155b15610f9757829250611080565b8460048054905003915083821115610fad578391505b81604051908082528060200260200182016040528015610fdc5781602001602082028038833980820191505090505b509250600090505b8181101561107f576004818601815481101515610ffd57fe5b9060005260206000200160009054906101000a900473ffffffffffffffffffffffffffffffffffffffff16838281518110151561103657fe5b9060200190602002019073ffffffffffffffffffffffffffffffffffffffff16908173ffffffffffffffffffffffffffffffffffffffff16815250508080600101915050610fe4565b5b505092915050565b60606000600260009054906101000a900460ff161515156110a857600080fd5b60008484905014156110bc57819150611198565b838390506040519080825280602002602001820160405280156110ee5781602001602082028038833980820191505090505b509150600090505b838390508110156111975760036000858584818110151561111357fe5b9050602002013573ffffffffffffffffffffffffffffffffffffffff1673ffffffffffffffffffffffffffffffffffffffff1673ffffffffffffffffffffffffffffffffffffffff16815260200190815260200160002060000154828281518110151561117c57fe5b906020019060200201818152505080806001019150506110f6565b5b5092915050565b6000815183511415156111b157600080fd5b600090505b825181101561152f576003600084838151811015156111d157fe5b9060200190602002015173ffffffffffffffffffffffffffffffffffffffff1673ffffffffffffffffffffffffffffffffffffffff16815260200190815260200160002060010160009054906101000a900460ff1615611330576112b061129360065460036000878681518110151561124657fe5b9060200190602002015173ffffffffffffffffffffffffffffffffffffffff1673ffffffffffffffffffffffffffffffffffffffff16815260200190815260200160002060000154611534565b83838151811015156112a157fe5b9060200190602002015161154d565b60068190555081818151811015156112c457fe5b906020019060200201516003600085848151811015156112e057fe5b9060200190602002015173ffffffffffffffffffffffffffffffffffffffff1673ffffffffffffffffffffffffffffffffffffffff16815260200190815260200160002060000181905550611489565b611353600654838381518110151561134457fe5b9060200190602002015161154d565b6006819055506040805190810160405280838381518110151561137257fe5b9060200190602002015181526020016001151581525060036000858481518110151561139a57fe5b9060200190602002015173ffffffffffffffffffffffffffffffffffffffff1673ffffffffffffffffffffffffffffffffffffffff1681526020019081526020016000206000820151816000015560208201518160010160006101000a81548160ff0219169083151502179055509050506004838281518110151561141b57fe5b9060200190602002015190806001815401808255809150509060018203906000526020600020016000909192909190916101000a81548173ffffffffffffffffffffffffffffffffffffffff021916908373ffffffffffffffffffffffffffffffffffffffff160217905550505b7f048ebfbc43eddab7a7a576fb6a22551fb89c9fa0bb520948a32ec8b1546640d383828151811015156114b857fe5b9060200190602002015183838151811015156114d057fe5b90602001906020020151604051808373ffffffffffffffffffffffffffffffffffffffff1673ffffffffffffffffffffffffffffffffffffffff1681526020018281526020019250505060405180910390a180806001019150506111b6565b505050565b600082821115151561154257fe5b818303905092915050565b600080828401905083811015151561156157fe5b80915050929150505600a165627a7a723058203b2c429b8c9964acaceaaf31519f7511a90db40cf79b85811e297bc8a8ad64f90029",
  "source": "pragma solidity ^0.4.24;\n\nimport \"../library/SafeMath.sol\";\nimport \"../library/VotingPowerSystem.sol\";\nimport \"../library/Whitelist.sol\";\nimport \"../library/Pausable.sol\";\n\ncontract WeightedVPS is VotingPowerSystem, Whitelist, Pausable {\n    using SafeMath for uint256;\n    struct Power {\n        uint256 value;\n        bool flag;\n    }\n\n    mapping(address => Power) public votingPowers;\n    address[] public voterAddrs;\n    bool public canUpdateVotingPower;\n    uint256 public powerInTotal;\n\n    modifier votingPowerUpdatable() {\n        require(canUpdateVotingPower);\n        _;\n    }\n\n    constructor(bool _canUpdateVotingPower, address[] _voters, uint256[] _powers) public {\n        canUpdateVotingPower = _canUpdateVotingPower;\n        updateVotingPowersInternal(_voters, _powers);\n    }\n\n    function totalPower() external whenNotPaused view returns (uint256) {\n        return powerInTotal;\n    }\n\n    function updateVotingPowersInternal(address[] _voters, uint256[] _powers) internal {\n        require(_voters.length == _powers.length);\n        for (uint i = 0; i < _voters.length; i++) {\n            if (votingPowers[_voters[i]].flag) {\n                powerInTotal = SafeMath.add(SafeMath.sub(powerInTotal, votingPowers[_voters[i]].value), _powers[i]);\n                votingPowers[_voters[i]].value = _powers[i];\n            } else {\n                powerInTotal = SafeMath.add(powerInTotal, _powers[i]);\n                votingPowers[_voters[i]] = Power(_powers[i], true);\n                voterAddrs.push(_voters[i]);\n            }\n            emit SetVotingPower(_voters[i], _powers[i]);\n        }\n    }\n\n    function updateVotingPowers(address[] _voters, uint256[] _powers) external votingPowerUpdatable onlyWhitelisted {\n        if (!paused) {\n            pause();\n        }\n        updateVotingPowersInternal(_voters, _powers);\n    }\n\n    function powersOf(address[] _voters) external whenNotPaused view returns (uint256[] powers_) {\n        if (_voters.length == 0) {\n            return powers_;\n        }\n        powers_ = new uint256[](_voters.length);\n        for (uint i = 0; i < _voters.length; i++) {\n            powers_[i] = votingPowers[_voters[i]].value;\n        }\n    }\n\n    function powerOf(address _voter) external whenNotPaused view returns (uint256) {\n        return votingPowers[_voter].value;\n    }\n\n    function voters(uint256 _offset, uint256 _limit) public whenNotPaused view returns (address[] voters_) {\n        require(_limit <= 200);\n        if (_limit == 0 || _offset >= voterAddrs.length) {\n            return voters_;\n        }\n        uint256 l = voterAddrs.length - _offset;\n        if (l > _limit) {\n            l = _limit;\n        }\n        voters_ = new address[](l);\n        for (uint i = 0; i < l; i++) {\n            voters_[i] = voterAddrs[_offset + i];\n        }\n    }\n\n    function pause() public onlyWhitelisted whenNotPaused {\n        paused = true;\n        emit Pause();\n    }\n\n    function unpause() public onlyWhitelisted whenPaused {\n        paused = false;\n        emit Unpause();\n    }\n}\n",
  "sourcePath": "/Users/rc7/work/src/github.com/iotexproject/iotex-governance/contracts/VPS/WeightedVPS.sol",
  "compiler": {
    "name": "solc",
    "version": "0.4.24+commit.e67f0147.Emscripten.clang"
  },
  "schemaVersion": "3.0.18",
  "updatedAt": "2020-11-07T17:26:47.620Z",
  "devdoc": {
    "methods": {
      "addAddressToWhitelist(address)": {
        "details": "add an address to the whitelist",
        "params": {
          "addr": "address"
        },
        "return": "true if the address was added to the whitelist, false if the address was already in the whitelist"
      },
      "addAddressesToWhitelist(address[])": {
        "details": "add addresses to the whitelist",
        "params": {
          "addrs": "addresses"
        },
        "return": "true if at least one address was added to the whitelist, false if all addresses were already in the whitelist"
      },
      "removeAddressFromWhitelist(address)": {
        "details": "remove an address from the whitelist",
        "params": {
          "addr": "address"
        },
        "return": "true if the address was removed from the whitelist, false if the address wasn't in the whitelist in the first place"
      },
      "removeAddressesFromWhitelist(address[])": {
        "details": "remove addresses from the whitelist",
        "params": {
          "addrs": "addresses"
        },
        "return": "true if at least one address was removed from the whitelist, false if all addresses weren't in the whitelist in the first place"
      }
    }
  },
  "userdoc": {
    "methods": {}
  }
}